{
  "_format": "hh-sol-artifact-1",
  "contractName": "SupplyChainNFT",
  "sourceName": "contracts/SupplyChainNFT.sol",
  "abi": [
    {
      "inputs": [
        {
          "internalType": "address",
          "name": "admin",
          "type": "address"
        }
      ],
      "stateMutability": "nonpayable",
      "type": "constructor"
    },
    {
      "inputs": [],
      "name": "AccessControlBadConfirmation",
      "type": "error"
    },
    {
      "inputs": [
        {
          "internalType": "address",
          "name": "account",
          "type": "address"
        },
        {
          "internalType": "bytes32",
          "name": "neededRole",
          "type": "bytes32"
        }
      ],
      "name": "AccessControlUnauthorizedAccount",
      "type": "error"
    },
    {
      "inputs": [
        {
          "internalType": "address",
          "name": "sender",
          "type": "address"
        },
        {
          "internalType": "uint256",
          "name": "tokenId",
          "type": "uint256"
        },
        {
          "internalType": "address",
          "name": "owner",
          "type": "address"
        }
      ],
      "name": "ERC721IncorrectOwner",
      "type": "error"
    },
    {
      "inputs": [
        {
          "internalType": "address",
          "name": "operator",
          "type": "address"
        },
        {
          "internalType": "uint256",
          "name": "tokenId",
          "type": "uint256"
        }
      ],
      "name": "ERC721InsufficientApproval",
      "type": "error"
    },
    {
      "inputs": [
        {
          "internalType": "address",
          "name": "approver",
          "type": "address"
        }
      ],
      "name": "ERC721InvalidApprover",
      "type": "error"
    },
    {
      "inputs": [
        {
          "internalType": "address",
          "name": "operator",
          "type": "address"
        }
      ],
      "name": "ERC721InvalidOperator",
      "type": "error"
    },
    {
      "inputs": [
        {
          "internalType": "address",
          "name": "owner",
          "type": "address"
        }
      ],
      "name": "ERC721InvalidOwner",
      "type": "error"
    },
    {
      "inputs": [
        {
          "internalType": "address",
          "name": "receiver",
          "type": "address"
        }
      ],
      "name": "ERC721InvalidReceiver",
      "type": "error"
    },
    {
      "inputs": [
        {
          "internalType": "address",
          "name": "sender",
          "type": "address"
        }
      ],
      "name": "ERC721InvalidSender",
      "type": "error"
    },
    {
      "inputs": [
        {
          "internalType": "uint256",
          "name": "tokenId",
          "type": "uint256"
        }
      ],
      "name": "ERC721NonexistentToken",
      "type": "error"
    },
    {
      "anonymous": false,
      "inputs": [
        {
          "indexed": true,
          "internalType": "address",
          "name": "owner",
          "type": "address"
        },
        {
          "indexed": true,
          "internalType": "address",
          "name": "approved",
          "type": "address"
        },
        {
          "indexed": true,
          "internalType": "uint256",
          "name": "tokenId",
          "type": "uint256"
        }
      ],
      "name": "Approval",
      "type": "event"
    },
    {
      "anonymous": false,
      "inputs": [
        {
          "indexed": true,
          "internalType": "address",
          "name": "owner",
          "type": "address"
        },
        {
          "indexed": true,
          "internalType": "address",
          "name": "operator",
          "type": "address"
        },
        {
          "indexed": false,
          "internalType": "bool",
          "name": "approved",
          "type": "bool"
        }
      ],
      "name": "ApprovalForAll",
      "type": "event"
    },
    {
      "anonymous": false,
      "inputs": [
        {
          "indexed": false,
          "internalType": "uint256",
          "name": "_fromTokenId",
          "type": "uint256"
        },
        {
          "indexed": false,
          "internalType": "uint256",
          "name": "_toTokenId",
          "type": "uint256"
        }
      ],
      "name": "BatchMetadataUpdate",
      "type": "event"
    },
    {
      "anonymous": false,
      "inputs": [
        {
          "indexed": false,
          "internalType": "uint256",
          "name": "tokenId",
          "type": "uint256"
        },
        {
          "indexed": false,
          "internalType": "address",
          "name": "farmer",
          "type": "address"
        }
      ],
      "name": "BatchMinted",
      "type": "event"
    },
    {
      "anonymous": false,
      "inputs": [
        {
          "indexed": false,
          "internalType": "uint256",
          "name": "tokenId",
          "type": "uint256"
        },
        {
          "indexed": false,
          "internalType": "string",
          "name": "cid",
          "type": "string"
        }
      ],
      "name": "CertificateAdded",
      "type": "event"
    },
    {
      "anonymous": false,
      "inputs": [
        {
          "indexed": false,
          "internalType": "uint256",
          "name": "tokenId",
          "type": "uint256"
        },
        {
          "indexed": false,
          "internalType": "string",
          "name": "role",
          "type": "string"
        },
        {
          "indexed": false,
          "internalType": "string",
          "name": "name",
          "type": "string"
        }
      ],
      "name": "HandoffAdded",
      "type": "event"
    },
    {
      "anonymous": false,
      "inputs": [
        {
          "indexed": false,
          "internalType": "uint256",
          "name": "_tokenId",
          "type": "uint256"
        }
      ],
      "name": "MetadataUpdate",
      "type": "event"
    },
    {
      "anonymous": false,
      "inputs": [
        {
          "indexed": true,
          "internalType": "bytes32",
          "name": "role",
          "type": "bytes32"
        },
        {
          "indexed": true,
          "internalType": "bytes32",
          "name": "previousAdminRole",
          "type": "bytes32"
        },
        {
          "indexed": true,
          "internalType": "bytes32",
          "name": "newAdminRole",
          "type": "bytes32"
        }
      ],
      "name": "RoleAdminChanged",
      "type": "event"
    },
    {
      "anonymous": false,
      "inputs": [
        {
          "indexed": true,
          "internalType": "bytes32",
          "name": "role",
          "type": "bytes32"
        },
        {
          "indexed": true,
          "internalType": "address",
          "name": "account",
          "type": "address"
        },
        {
          "indexed": true,
          "internalType": "address",
          "name": "sender",
          "type": "address"
        }
      ],
      "name": "RoleGranted",
      "type": "event"
    },
    {
      "anonymous": false,
      "inputs": [
        {
          "indexed": true,
          "internalType": "bytes32",
          "name": "role",
          "type": "bytes32"
        },
        {
          "indexed": true,
          "internalType": "address",
          "name": "account",
          "type": "address"
        },
        {
          "indexed": true,
          "internalType": "address",
          "name": "sender",
          "type": "address"
        }
      ],
      "name": "RoleRevoked",
      "type": "event"
    },
    {
      "anonymous": false,
      "inputs": [
        {
          "indexed": true,
          "internalType": "address",
          "name": "from",
          "type": "address"
        },
        {
          "indexed": true,
          "internalType": "address",
          "name": "to",
          "type": "address"
        },
        {
          "indexed": true,
          "internalType": "uint256",
          "name": "tokenId",
          "type": "uint256"
        }
      ],
      "name": "Transfer",
      "type": "event"
    },
    {
      "inputs": [],
      "name": "ADMIN_ROLE",
      "outputs": [
        {
          "internalType": "bytes32",
          "name": "",
          "type": "bytes32"
        }
      ],
      "stateMutability": "view",
      "type": "function"
    },
    {
      "inputs": [],
      "name": "DEFAULT_ADMIN_ROLE",
      "outputs": [
        {
          "internalType": "bytes32",
          "name": "",
          "type": "bytes32"
        }
      ],
      "stateMutability": "view",
      "type": "function"
    },
    {
      "inputs": [],
      "name": "FARMER_ROLE",
      "outputs": [
        {
          "internalType": "bytes32",
          "name": "",
          "type": "bytes32"
        }
      ],
      "stateMutability": "view",
      "type": "function"
    },
    {
      "inputs": [],
      "name": "ROASTER_ROLE",
      "outputs": [
        {
          "internalType": "bytes32",
          "name": "",
          "type": "bytes32"
        }
      ],
      "stateMutability": "view",
      "type": "function"
    },
    {
      "inputs": [],
      "name": "SHOP_ROLE",
      "outputs": [
        {
          "internalType": "bytes32",
          "name": "",
          "type": "bytes32"
        }
      ],
      "stateMutability": "view",
      "type": "function"
    },
    {
      "inputs": [
        {
          "internalType": "uint256",
          "name": "tokenId",
          "type": "uint256"
        },
        {
          "internalType": "string",
          "name": "cid",
          "type": "string"
        }
      ],
      "name": "addCertificate",
      "outputs": [],
      "stateMutability": "nonpayable",
      "type": "function"
    },
    {
      "inputs": [
        {
          "internalType": "uint256",
          "name": "tokenId",
          "type": "uint256"
        },
        {
          "internalType": "string",
          "name": "name",
          "type": "string"
        },
        {
          "internalType": "string",
          "name": "location",
          "type": "string"
        },
        {
          "internalType": "string",
          "name": "contact",
          "type": "string"
        },
        {
          "internalType": "uint256",
          "name": "price",
          "type": "uint256"
        }
      ],
      "name": "addHandoff",
      "outputs": [],
      "stateMutability": "nonpayable",
      "type": "function"
    },
    {
      "inputs": [
        {
          "internalType": "address",
          "name": "to",
          "type": "address"
        },
        {
          "internalType": "uint256",
          "name": "tokenId",
          "type": "uint256"
        }
      ],
      "name": "approve",
      "outputs": [],
      "stateMutability": "nonpayable",
      "type": "function"
    },
    {
      "inputs": [
        {
          "internalType": "address",
          "name": "owner",
          "type": "address"
        }
      ],
      "name": "balanceOf",
      "outputs": [
        {
          "internalType": "uint256",
          "name": "",
          "type": "uint256"
        }
      ],
      "stateMutability": "view",
      "type": "function"
    },
    {
      "inputs": [
        {
          "internalType": "uint256",
          "name": "",
          "type": "uint256"
        }
      ],
      "name": "batches",
      "outputs": [
        {
          "internalType": "uint256",
          "name": "tokenId",
          "type": "uint256"
        }
      ],
      "stateMutability": "view",
      "type": "function"
    },
    {
      "inputs": [
        {
          "internalType": "uint256",
          "name": "tokenId",
          "type": "uint256"
        }
      ],
      "name": "getApproved",
      "outputs": [
        {
          "internalType": "address",
          "name": "",
          "type": "address"
        }
      ],
      "stateMutability": "view",
      "type": "function"
    },
    {
      "inputs": [
        {
          "internalType": "uint256",
          "name": "tokenId",
          "type": "uint256"
        }
      ],
      "name": "getBatch",
      "outputs": [
        {
          "internalType": "uint256",
          "name": "id",
          "type": "uint256"
        },
        {
          "internalType": "string[]",
          "name": "roles",
          "type": "string[]"
        },
        {
          "internalType": "string[]",
          "name": "names",
          "type": "string[]"
        },
        {
          "internalType": "string[]",
          "name": "locations",
          "type": "string[]"
        },
        {
          "internalType": "string[]",
          "name": "contacts",
          "type": "string[]"
        },
        {
          "internalType": "uint256[]",
          "name": "prices",
          "type": "uint256[]"
        },
        {
          "internalType": "uint256[]",
          "name": "timestamps",
          "type": "uint256[]"
        },
        {
          "internalType": "string[]",
          "name": "certificates",
          "type": "string[]"
        }
      ],
      "stateMutability": "view",
      "type": "function"
    },
    {
      "inputs": [
        {
          "internalType": "bytes32",
          "name": "role",
          "type": "bytes32"
        }
      ],
      "name": "getRoleAdmin",
      "outputs": [
        {
          "internalType": "bytes32",
          "name": "",
          "type": "bytes32"
        }
      ],
      "stateMutability": "view",
      "type": "function"
    },
    {
      "inputs": [
        {
          "internalType": "bytes32",
          "name": "role",
          "type": "bytes32"
        },
        {
          "internalType": "address",
          "name": "account",
          "type": "address"
        }
      ],
      "name": "grantRole",
      "outputs": [],
      "stateMutability": "nonpayable",
      "type": "function"
    },
    {
      "inputs": [
        {
          "internalType": "bytes32",
          "name": "role",
          "type": "bytes32"
        },
        {
          "internalType": "address",
          "name": "account",
          "type": "address"
        }
      ],
      "name": "hasRole",
      "outputs": [
        {
          "internalType": "bool",
          "name": "",
          "type": "bool"
        }
      ],
      "stateMutability": "view",
      "type": "function"
    },
    {
      "inputs": [
        {
          "internalType": "address",
          "name": "owner",
          "type": "address"
        },
        {
          "internalType": "address",
          "name": "operator",
          "type": "address"
        }
      ],
      "name": "isApprovedForAll",
      "outputs": [
        {
          "internalType": "bool",
          "name": "",
          "type": "bool"
        }
      ],
      "stateMutability": "view",
      "type": "function"
    },
    {
      "inputs": [
        {
          "internalType": "string",
          "name": "tokenCID",
          "type": "string"
        },
        {
          "internalType": "string[]",
          "name": "certCIDs",
          "type": "string[]"
        }
      ],
      "name": "mintBatch",
      "outputs": [],
      "stateMutability": "nonpayable",
      "type": "function"
    },
    {
      "inputs": [],
      "name": "name",
      "outputs": [
        {
          "internalType": "string",
          "name": "",
          "type": "string"
        }
      ],
      "stateMutability": "view",
      "type": "function"
    },
    {
      "inputs": [],
      "name": "nextTokenId",
      "outputs": [
        {
          "internalType": "uint256",
          "name": "",
          "type": "uint256"
        }
      ],
      "stateMutability": "view",
      "type": "function"
    },
    {
      "inputs": [
        {
          "internalType": "uint256",
          "name": "tokenId",
          "type": "uint256"
        }
      ],
      "name": "ownerOf",
      "outputs": [
        {
          "internalType": "address",
          "name": "",
          "type": "address"
        }
      ],
      "stateMutability": "view",
      "type": "function"
    },
    {
      "inputs": [
        {
          "internalType": "bytes32",
          "name": "role",
          "type": "bytes32"
        },
        {
          "internalType": "address",
          "name": "callerConfirmation",
          "type": "address"
        }
      ],
      "name": "renounceRole",
      "outputs": [],
      "stateMutability": "nonpayable",
      "type": "function"
    },
    {
      "inputs": [
        {
          "internalType": "bytes32",
          "name": "role",
          "type": "bytes32"
        },
        {
          "internalType": "address",
          "name": "account",
          "type": "address"
        }
      ],
      "name": "revokeRole",
      "outputs": [],
      "stateMutability": "nonpayable",
      "type": "function"
    },
    {
      "inputs": [
        {
          "internalType": "address",
          "name": "from",
          "type": "address"
        },
        {
          "internalType": "address",
          "name": "to",
          "type": "address"
        },
        {
          "internalType": "uint256",
          "name": "tokenId",
          "type": "uint256"
        }
      ],
      "name": "safeTransferFrom",
      "outputs": [],
      "stateMutability": "nonpayable",
      "type": "function"
    },
    {
      "inputs": [
        {
          "internalType": "address",
          "name": "from",
          "type": "address"
        },
        {
          "internalType": "address",
          "name": "to",
          "type": "address"
        },
        {
          "internalType": "uint256",
          "name": "tokenId",
          "type": "uint256"
        },
        {
          "internalType": "bytes",
          "name": "data",
          "type": "bytes"
        }
      ],
      "name": "safeTransferFrom",
      "outputs": [],
      "stateMutability": "nonpayable",
      "type": "function"
    },
    {
      "inputs": [
        {
          "internalType": "address",
          "name": "operator",
          "type": "address"
        },
        {
          "internalType": "bool",
          "name": "approved",
          "type": "bool"
        }
      ],
      "name": "setApprovalForAll",
      "outputs": [],
      "stateMutability": "nonpayable",
      "type": "function"
    },
    {
      "inputs": [
        {
          "internalType": "bytes4",
          "name": "interfaceId",
          "type": "bytes4"
        }
      ],
      "name": "supportsInterface",
      "outputs": [
        {
          "internalType": "bool",
          "name": "",
          "type": "bool"
        }
      ],
      "stateMutability": "view",
      "type": "function"
    },
    {
      "inputs": [],
      "name": "symbol",
      "outputs": [
        {
          "internalType": "string",
          "name": "",
          "type": "string"
        }
      ],
      "stateMutability": "view",
      "type": "function"
    },
    {
      "inputs": [
        {
          "internalType": "uint256",
          "name": "tokenId",
          "type": "uint256"
        }
      ],
      "name": "tokenURI",
      "outputs": [
        {
          "internalType": "string",
          "name": "",
          "type": "string"
        }
      ],
      "stateMutability": "view",
      "type": "function"
    },
    {
      "inputs": [
        {
          "internalType": "address",
          "name": "from",
          "type": "address"
        },
        {
          "internalType": "address",
          "name": "to",
          "type": "address"
        },
        {
          "internalType": "uint256",
          "name": "tokenId",
          "type": "uint256"
        }
      ],
      "name": "transferFrom",
      "outputs": [],
      "stateMutability": "nonpayable",
      "type": "function"
    }
  ],
  "bytecode": "0x608060405260016008553480156200001657600080fd5b50604051620029b5380380620029b5833981016040819052620000399162000196565b6040518060400160405280600e81526020016d4661697254726164654265616e7360901b81525060405180604001604052806003815260200162232a2160e91b81525081600090816200008d91906200026f565b5060016200009c82826200026f565b50620000ae91506000905082620000e3565b50620000db7fa49807205ce4d355092ef5a8a18f56e8913cf4a201fbe287825b095693c2177582620000e3565b50506200033b565b60008281526007602090815260408083206001600160a01b038516845290915281205460ff166200018c5760008381526007602090815260408083206001600160a01b03861684529091529020805460ff19166001179055620001433390565b6001600160a01b0316826001600160a01b0316847f2f8788117e7eff1d82e926ec794901d17c78024a50270940304540a733656f0d60405160405180910390a450600162000190565b5060005b92915050565b600060208284031215620001a957600080fd5b81516001600160a01b0381168114620001c157600080fd5b9392505050565b634e487b7160e01b600052604160045260246000fd5b600181811c90821680620001f357607f821691505b6020821081036200021457634e487b7160e01b600052602260045260246000fd5b50919050565b601f8211156200026a576000816000526020600020601f850160051c81016020861015620002455750805b601f850160051c820191505b81811015620002665782815560010162000251565b5050505b505050565b81516001600160401b038111156200028b576200028b620001c8565b620002a3816200029c8454620001de565b846200021a565b602080601f831160018114620002db5760008415620002c25750858301515b600019600386901b1c1916600185901b17855562000266565b600085815260208120601f198616915b828110156200030c57888601518255948401946001909101908401620002eb565b50858210156200032b5787850151600019600388901b60f8161c191681555b5050505050600190811b01905550565b61266a806200034b6000396000f3fe608060405234801561001057600080fd5b50600436106101cf5760003560e01c806375b238fc11610104578063b32c4d8d116100a2578063d547741f11610071578063d547741f14610427578063dfe252391461043a578063e985e9c514610461578063f39439701461047457600080fd5b8063b32c4d8d146103ce578063b88d4fde146103ee578063c87b56dd14610401578063ccb1173b1461041457600080fd5b806395d89b41116100de57806395d89b4114610398578063a19a3fb3146103a0578063a217fddf146103b3578063a22cb465146103bb57600080fd5b806375b238fc1461034b5780637c8001c41461037257806391d148541461038557600080fd5b80632f2ff15d116101715780635ac442821161014b5780635ac44282146102f55780636352211e1461031c57806370a082311461032f57806375794a3c1461034257600080fd5b80632f2ff15d146102bc57806336568abe146102cf57806342842e0e146102e257600080fd5b8063081812fc116101ad578063081812fc14610246578063095ea7b31461027157806323b872dd14610286578063248a9ca31461029957600080fd5b806301d0216c146101d457806301ffc9a71461020e57806306fdde0314610231575b600080fd5b6101fb7f1f0426c2589e5c3ea5f5996e2a4371ca21edd86514b6679c9dd135d7c85b28bf81565b6040519081526020015b60405180910390f35b61022161021c366004611de5565b61049b565b6040519015158152602001610205565b6102396104ac565b6040516102059190611e52565b610259610254366004611e65565b61053e565b6040516001600160a01b039091168152602001610205565b61028461027f366004611e9a565b610567565b005b610284610294366004611ec4565b610576565b6101fb6102a7366004611e65565b60009081526007602052604090206001015490565b6102846102ca366004611f00565b610606565b6102846102dd366004611f00565b61062b565b6102846102f0366004611ec4565b610663565b610308610303366004611e65565b61067e565b604051610205989796959493929190611fc2565b61025961032a366004611e65565b610cc8565b6101fb61033d366004612063565b610cd3565b6101fb60085481565b6101fb7fa49807205ce4d355092ef5a8a18f56e8913cf4a201fbe287825b095693c2177581565b61028461038036600461213b565b610d1b565b610221610393366004611f00565b610f11565b610239610f3c565b6102846103ae366004612221565b610f4b565b6101fb600081565b6102846103c93660046122ba565b6110dd565b6101fb6103dc366004611e65565b60096020526000908152604090205481565b6102846103fc3660046122f6565b6110e8565b61023961040f366004611e65565b6110ff565b610284610422366004612371565b611210565b610284610435366004611f00565b611355565b6101fb7f6833e94b5193c7a314af51094165d7809e1989f393a17eea242de8d46482826381565b61022161046f3660046123b7565b61137a565b6101fb7f7c6181838a71a779e445600d4c6ecbe16bacf2b3c5bda69c29fada66d1b645d181565b60006104a6826113a8565b92915050565b6060600080546104bb906123e1565b80601f01602080910402602001604051908101604052809291908181526020018280546104e7906123e1565b80156105345780601f1061050957610100808354040283529160200191610534565b820191906000526020600020905b81548152906001019060200180831161051757829003601f168201915b5050505050905090565b6000610549826113cd565b506000828152600460205260409020546001600160a01b03166104a6565b610572828233611406565b5050565b6001600160a01b0382166105a557604051633250574960e11b8152600060048201526024015b60405180910390fd5b60006105b2838333611413565b9050836001600160a01b0316816001600160a01b031614610600576040516364283d7b60e01b81526001600160a01b038086166004830152602482018490528216604482015260640161059c565b50505050565b6000828152600760205260409020600101546106218161150c565b6106008383611519565b6001600160a01b03811633146106545760405163334bd91960e11b815260040160405180910390fd5b61065e82826115ad565b505050565b61065e838383604051806020016040528060008152506110e8565b6000606080606080606080606060085489106106cd5760405162461bcd60e51b815260206004820152600e60248201526d111bd95cc81b9bdd08195e1a5cdd60921b604482015260640161059c565b60008981526009602052604090206001810154806001600160401b038111156106f8576106f861207e565b60405190808252806020026020018201604052801561072b57816020015b60608152602001906001900390816107165790505b509850806001600160401b038111156107465761074661207e565b60405190808252806020026020018201604052801561077957816020015b60608152602001906001900390816107645790505b509750806001600160401b038111156107945761079461207e565b6040519080825280602002602001820160405280156107c757816020015b60608152602001906001900390816107b25790505b509650806001600160401b038111156107e2576107e261207e565b60405190808252806020026020018201604052801561081557816020015b60608152602001906001900390816108005790505b509550806001600160401b038111156108305761083061207e565b604051908082528060200260200182016040528015610859578160200160208202803683370190505b509450806001600160401b038111156108745761087461207e565b60405190808252806020026020018201604052801561089d578160200160208202803683370190505b50935060005b81811015610bc85760008360010182815481106108c2576108c261241b565b906000526020600020906006020190508060000180546108e1906123e1565b80601f016020809104026020016040519081016040528092919081815260200182805461090d906123e1565b801561095a5780601f1061092f5761010080835404028352916020019161095a565b820191906000526020600020905b81548152906001019060200180831161093d57829003601f168201915b50505050508b83815181106109715761097161241b565b602002602001018190525080600101805461098b906123e1565b80601f01602080910402602001604051908101604052809291908181526020018280546109b7906123e1565b8015610a045780601f106109d957610100808354040283529160200191610a04565b820191906000526020600020905b8154815290600101906020018083116109e757829003601f168201915b50505050508a8381518110610a1b57610a1b61241b565b6020026020010181905250806002018054610a35906123e1565b80601f0160208091040260200160405190810160405280929190818152602001828054610a61906123e1565b8015610aae5780601f10610a8357610100808354040283529160200191610aae565b820191906000526020600020905b815481529060010190602001808311610a9157829003601f168201915b5050505050898381518110610ac557610ac561241b565b6020026020010181905250806003018054610adf906123e1565b80601f0160208091040260200160405190810160405280929190818152602001828054610b0b906123e1565b8015610b585780601f10610b2d57610100808354040283529160200191610b58565b820191906000526020600020905b815481529060010190602001808311610b3b57829003601f168201915b5050505050888381518110610b6f57610b6f61241b565b60200260200101819052508060040154878381518110610b9157610b9161241b565b6020026020010181815250508060050154868381518110610bb457610bb461241b565b6020908102919091010152506001016108a3565b5081600001548989898989898860020180805480602002602001604051908101604052809291908181526020016000905b82821015610ca5578382906000526020600020018054610c18906123e1565b80601f0160208091040260200160405190810160405280929190818152602001828054610c44906123e1565b8015610c915780601f10610c6657610100808354040283529160200191610c91565b820191906000526020600020905b815481529060010190602001808311610c7457829003601f168201915b505050505081526020019060010190610bf9565b505050509050995099509950995099509950995099505050919395975091939597565b60006104a6826113cd565b60006001600160a01b038216610cff576040516322718ad960e21b81526000600482015260240161059c565b506001600160a01b031660009081526003602052604090205490565b7f7c6181838a71a779e445600d4c6ecbe16bacf2b3c5bda69c29fada66d1b645d1610d458161150c565b6008805460009182610d5683612431565b919050559050610d66338261161a565b610d708185611634565b60008181526009602052604081208290555b8351811015610de55760096000838152602001908152602001600020600201848281518110610db357610db361241b565b60209081029190910181015182546001810184556000938452919092200190610ddc90826124a8565b50600101610d82565b506000818152600960209081526040808320815161010081018352600660c08201818152652330b936b2b960d11b60e084015282528351808601855286815282860152835180860185528681528285015283518086019094528584526060820193909352608081018590524260a08201526001918201805492830181558552929093208251929390910201908190610e7d90826124a8565b5060208201516001820190610e9290826124a8565b5060408201516002820190610ea790826124a8565b5060608201516003820190610ebc90826124a8565b506080820151600482015560a090910151600590910155604080518281523360208201527f60d658bf0002e1b552459902f2664f03fcd916bfb98b69a823d3334bbad143e7910160405180910390a150505050565b60009182526007602090815260408084206001600160a01b0393909316845291905290205460ff1690565b6060600180546104bb906123e1565b6008548510610f935760405162461bcd60e51b8152602060048201526014602482015273151bdad95b88191bd95cc81b9bdd08195e1a5cdd60621b604482015260640161059c565b6000610f9d61167d565b90506000815111610fe15760405162461bcd60e51b815260206004820152600e60248201526d139bdd08185d5d1a1bdc9a5e995960921b604482015260640161059c565b6000868152600960209081526040808320815160c0810183528581528084018a905291820188905260608201879052608082018690524260a0830152600190810180549182018155845291909220825160069092020190819061104490826124a8565b506020820151600182019061105990826124a8565b506040820151600282019061106e90826124a8565b506060820151600382019061108390826124a8565b506080820151816004015560a0820151816005015550507f136d544ef0efca6c59039603c07fe9c9d054e34f307c570fedee04d911e4cd738682876040516110cd93929190612567565b60405180910390a1505050505050565b610572338383611731565b6110f3848484610576565b610600848484846117d0565b606061110a826113cd565b5060008281526006602052604081208054611124906123e1565b80601f0160208091040260200160405190810160405280929190818152602001828054611150906123e1565b801561119d5780601f106111725761010080835404028352916020019161119d565b820191906000526020600020905b81548152906001019060200180831161118057829003601f168201915b5050505050905060006111bb60408051602081019091526000815290565b905080516000036111cd575092915050565b8151156111ff5780826040516020016111e792919061259c565b60405160208183030381529060405292505050919050565b611208846118f9565b949350505050565b60085482106112585760405162461bcd60e51b8152602060048201526014602482015273151bdad95b88191bd95cc81b9bdd08195e1a5cdd60621b604482015260640161059c565b6112827f7c6181838a71a779e445600d4c6ecbe16bacf2b3c5bda69c29fada66d1b645d133610f11565b806112b257506112b27fa49807205ce4d355092ef5a8a18f56e8913cf4a201fbe287825b095693c2177533610f11565b6112ec5760405162461bcd60e51b815260206004820152600b60248201526a139bdd08185b1b1bddd95960aa1b604482015260640161059c565b60008281526009602090815260408220600201805460018101825590835291200161131782826124a8565b507fb3f7a51d97edfec0a93ec31952a01e523033a70f92f1cfae631a92c02f5306d082826040516113499291906125cb565b60405180910390a15050565b6000828152600760205260409020600101546113708161150c565b61060083836115ad565b6001600160a01b03918216600090815260056020908152604080832093909416825291909152205460ff1690565b60006001600160e01b03198216637965db0b60e01b14806104a657506104a68261196e565b6000818152600260205260408120546001600160a01b0316806104a657604051637e27328960e01b81526004810184905260240161059c565b61065e8383836001611993565b6000828152600260205260408120546001600160a01b039081169083161561144057611440818486611a99565b6001600160a01b0381161561147e5761145d600085600080611993565b6001600160a01b038116600090815260036020526040902080546000190190555b6001600160a01b038516156114ad576001600160a01b0385166000908152600360205260409020805460010190555b60008481526002602052604080822080546001600160a01b0319166001600160a01b0389811691821790925591518793918516917fddf252ad1be2c89b69c2b068fc378daa952ba7f163c4a11628f55a4df523b3ef91a4949350505050565b6115168133611afd565b50565b60006115258383610f11565b6115a55760008381526007602090815260408083206001600160a01b03861684529091529020805460ff1916600117905561155d3390565b6001600160a01b0316826001600160a01b0316847f2f8788117e7eff1d82e926ec794901d17c78024a50270940304540a733656f0d60405160405180910390a45060016104a6565b5060006104a6565b60006115b98383610f11565b156115a55760008381526007602090815260408083206001600160a01b0386168085529252808320805460ff1916905551339286917ff6391f5c32d9c69d2a47ea670b442974b53935d1edc7fd64eb21e047a839171b9190a45060016104a6565b610572828260405180602001604052806000815250611b36565b600082815260066020526040902061164c82826124a8565b506040518281527ff8e1a15aba9398e019f0b49df1a4fde98ee17ae345cb5f6b5e2c27f5033e8ce790602001611349565b60606116a97f6833e94b5193c7a314af51094165d7809e1989f393a17eea242de8d46482826333610f11565b156116d057506040805180820190915260078152662937b0b9ba32b960c91b602082015290565b6116fa7f1f0426c2589e5c3ea5f5996e2a4371ca21edd86514b6679c9dd135d7c85b28bf33610f11565b1561171e5750604080518082019091526004815263053686f760e41b602082015290565b5060408051602081019091526000815290565b6001600160a01b03821661176357604051630b61174360e31b81526001600160a01b038316600482015260240161059c565b6001600160a01b03838116600081815260056020908152604080832094871680845294825291829020805460ff191686151590811790915591519182527f17307eab39ab6107e8899845ad3d59bd9653f200f220920489ca2b5937696c31910160405180910390a3505050565b6001600160a01b0383163b1561060057604051630a85bd0160e11b81526001600160a01b0384169063150b7a02906118129033908890879087906004016125e4565b6020604051808303816000875af192505050801561184d575060408051601f3d908101601f1916820190925261184a91810190612617565b60015b6118b6573d80801561187b576040519150601f19603f3d011682016040523d82523d6000602084013e611880565b606091505b5080516000036118ae57604051633250574960e11b81526001600160a01b038516600482015260240161059c565b805181602001fd5b6001600160e01b03198116630a85bd0160e11b146118f257604051633250574960e11b81526001600160a01b038516600482015260240161059c565b5050505050565b6060611904826113cd565b50600061191c60408051602081019091526000815290565b9050600081511161193c5760405180602001604052806000815250611967565b8061194684611b4d565b60405160200161195792919061259c565b6040516020818303038152906040525b9392505050565b60006001600160e01b03198216632483248360e11b14806104a657506104a682611bdf565b80806119a757506001600160a01b03821615155b15611a695760006119b7846113cd565b90506001600160a01b038316158015906119e35750826001600160a01b0316816001600160a01b031614155b80156119f657506119f4818461137a565b155b15611a1f5760405163a9fbf51f60e01b81526001600160a01b038416600482015260240161059c565b8115611a675783856001600160a01b0316826001600160a01b03167f8c5be1e5ebec7d5bd14f71427d1e84f3dd0314c0f7b2291e5b200ac8c7c3b92560405160405180910390a45b505b5050600090815260046020526040902080546001600160a01b0319166001600160a01b0392909216919091179055565b611aa4838383611c2f565b61065e576001600160a01b038316611ad257604051637e27328960e01b81526004810182905260240161059c565b60405163177e802f60e01b81526001600160a01b03831660048201526024810182905260440161059c565b611b078282610f11565b6105725760405163e2517d3f60e01b81526001600160a01b03821660048201526024810183905260440161059c565b611b408383611c92565b61065e60008484846117d0565b60606000611b5a83611cf7565b60010190506000816001600160401b03811115611b7957611b7961207e565b6040519080825280601f01601f191660200182016040528015611ba3576020820181803683370190505b5090508181016020015b600019016f181899199a1a9b1b9c1cb0b131b232b360811b600a86061a8153600a8504945084611bad57509392505050565b60006001600160e01b031982166380ac58cd60e01b1480611c1057506001600160e01b03198216635b5e139f60e01b145b806104a657506301ffc9a760e01b6001600160e01b03198316146104a6565b60006001600160a01b038316158015906112085750826001600160a01b0316846001600160a01b03161480611c695750611c69848461137a565b806112085750506000908152600460205260409020546001600160a01b03908116911614919050565b6001600160a01b038216611cbc57604051633250574960e11b81526000600482015260240161059c565b6000611cca83836000611413565b90506001600160a01b0381161561065e576040516339e3563760e11b81526000600482015260240161059c565b60008072184f03e93ff9f4daa797ed6e38ed64bf6a1f0160401b8310611d365772184f03e93ff9f4daa797ed6e38ed64bf6a1f0160401b830492506040015b6d04ee2d6d415b85acef81000000008310611d62576d04ee2d6d415b85acef8100000000830492506020015b662386f26fc100008310611d8057662386f26fc10000830492506010015b6305f5e1008310611d98576305f5e100830492506008015b6127108310611dac57612710830492506004015b60648310611dbe576064830492506002015b600a83106104a65760010192915050565b6001600160e01b03198116811461151657600080fd5b600060208284031215611df757600080fd5b813561196781611dcf565b60005b83811015611e1d578181015183820152602001611e05565b50506000910152565b60008151808452611e3e816020860160208601611e02565b601f01601f19169290920160200192915050565b6020815260006119676020830184611e26565b600060208284031215611e7757600080fd5b5035919050565b80356001600160a01b0381168114611e9557600080fd5b919050565b60008060408385031215611ead57600080fd5b611eb683611e7e565b946020939093013593505050565b600080600060608486031215611ed957600080fd5b611ee284611e7e565b9250611ef060208501611e7e565b9150604084013590509250925092565b60008060408385031215611f1357600080fd5b82359150611f2360208401611e7e565b90509250929050565b60008282518085526020808601955060208260051b8401016020860160005b84811015611f7957601f19868403018952611f67838351611e26565b98840198925090830190600101611f4b565b5090979650505050505050565b60008151808452602080850194506020840160005b83811015611fb757815187529582019590820190600101611f9b565b509495945050505050565b60006101008a8352806020840152611fdc8184018b611f2c565b90508281036040840152611ff0818a611f2c565b905082810360608401526120048189611f2c565b905082810360808401526120188188611f2c565b905082810360a084015261202c8187611f86565b905082810360c08401526120408186611f86565b905082810360e08401526120548185611f2c565b9b9a5050505050505050505050565b60006020828403121561207557600080fd5b61196782611e7e565b634e487b7160e01b600052604160045260246000fd5b604051601f8201601f191681016001600160401b03811182821017156120bc576120bc61207e565b604052919050565b60006001600160401b038311156120dd576120dd61207e565b6120f0601f8401601f1916602001612094565b905082815283838301111561210457600080fd5b828260208301376000602084830101529392505050565b600082601f83011261212c57600080fd5b611967838335602085016120c4565b6000806040838503121561214e57600080fd5b82356001600160401b038082111561216557600080fd5b6121718683870161211b565b935060209150818501358181111561218857600080fd5b8501601f8101871361219957600080fd5b8035828111156121ab576121ab61207e565b8060051b6121ba858201612094565b918252828101850191858101908a8411156121d457600080fd5b86850192505b83831015612210578235868111156121f25760008081fd5b6122008c898389010161211b565b83525091860191908601906121da565b809750505050505050509250929050565b600080600080600060a0868803121561223957600080fd5b8535945060208601356001600160401b038082111561225757600080fd5b61226389838a0161211b565b9550604088013591508082111561227957600080fd5b61228589838a0161211b565b9450606088013591508082111561229b57600080fd5b506122a88882890161211b565b95989497509295608001359392505050565b600080604083850312156122cd57600080fd5b6122d683611e7e565b9150602083013580151581146122eb57600080fd5b809150509250929050565b6000806000806080858703121561230c57600080fd5b61231585611e7e565b935061232360208601611e7e565b92506040850135915060608501356001600160401b0381111561234557600080fd5b8501601f8101871361235657600080fd5b612365878235602084016120c4565b91505092959194509250565b6000806040838503121561238457600080fd5b8235915060208301356001600160401b038111156123a157600080fd5b6123ad8582860161211b565b9150509250929050565b600080604083850312156123ca57600080fd5b6123d383611e7e565b9150611f2360208401611e7e565b600181811c908216806123f557607f821691505b60208210810361241557634e487b7160e01b600052602260045260246000fd5b50919050565b634e487b7160e01b600052603260045260246000fd5b60006001820161245157634e487b7160e01b600052601160045260246000fd5b5060010190565b601f82111561065e576000816000526020600020601f850160051c810160208610156124815750805b601f850160051c820191505b818110156124a05782815560010161248d565b505050505050565b81516001600160401b038111156124c1576124c161207e565b6124d5816124cf84546123e1565b84612458565b602080601f83116001811461250a57600084156124f25750858301515b600019600386901b1c1916600185901b1785556124a0565b600085815260208120601f198616915b828110156125395788860151825594840194600190910190840161251a565b50858210156125575787850151600019600388901b60f8161c191681555b5050505050600190811b01905550565b8381526060602082015260006125806060830185611e26565b82810360408401526125928185611e26565b9695505050505050565b600083516125ae818460208801611e02565b8351908301906125c2818360208801611e02565b01949350505050565b8281526040602082015260006112086040830184611e26565b6001600160a01b038581168252841660208201526040810183905260806060820181905260009061259290830184611e26565b60006020828403121561262957600080fd5b815161196781611dcf56fea2646970667358221220f29d35588e8265dc692334010baadbdd89f69409215e465495ba1248d8d0d39364736f6c63430008160033",
  "linkReferences": {},
  "deployedLinkReferences": {}
}