{
  "_format": "hh-sol-artifact-1",
  "contractName": "SupplyChainNFT",
  "sourceName": "contracts/SupplyChainNFT.sol",
  "abi": [
    {
      "inputs": [
        {
          "internalType": "address",
          "name": "admin",
          "type": "address"
        }
      ],
      "stateMutability": "nonpayable",
      "type": "constructor"
    },
    {
      "inputs": [],
      "name": "AccessControlBadConfirmation",
      "type": "error"
    },
    {
      "inputs": [
        {
          "internalType": "address",
          "name": "account",
          "type": "address"
        },
        {
          "internalType": "bytes32",
          "name": "neededRole",
          "type": "bytes32"
        }
      ],
      "name": "AccessControlUnauthorizedAccount",
      "type": "error"
    },
    {
      "inputs": [
        {
          "internalType": "uint256",
          "name": "numerator",
          "type": "uint256"
        },
        {
          "internalType": "uint256",
          "name": "denominator",
          "type": "uint256"
        }
      ],
      "name": "ERC2981InvalidDefaultRoyalty",
      "type": "error"
    },
    {
      "inputs": [
        {
          "internalType": "address",
          "name": "receiver",
          "type": "address"
        }
      ],
      "name": "ERC2981InvalidDefaultRoyaltyReceiver",
      "type": "error"
    },
    {
      "inputs": [
        {
          "internalType": "uint256",
          "name": "tokenId",
          "type": "uint256"
        },
        {
          "internalType": "uint256",
          "name": "numerator",
          "type": "uint256"
        },
        {
          "internalType": "uint256",
          "name": "denominator",
          "type": "uint256"
        }
      ],
      "name": "ERC2981InvalidTokenRoyalty",
      "type": "error"
    },
    {
      "inputs": [
        {
          "internalType": "uint256",
          "name": "tokenId",
          "type": "uint256"
        },
        {
          "internalType": "address",
          "name": "receiver",
          "type": "address"
        }
      ],
      "name": "ERC2981InvalidTokenRoyaltyReceiver",
      "type": "error"
    },
    {
      "inputs": [
        {
          "internalType": "address",
          "name": "sender",
          "type": "address"
        },
        {
          "internalType": "uint256",
          "name": "tokenId",
          "type": "uint256"
        },
        {
          "internalType": "address",
          "name": "owner",
          "type": "address"
        }
      ],
      "name": "ERC721IncorrectOwner",
      "type": "error"
    },
    {
      "inputs": [
        {
          "internalType": "address",
          "name": "operator",
          "type": "address"
        },
        {
          "internalType": "uint256",
          "name": "tokenId",
          "type": "uint256"
        }
      ],
      "name": "ERC721InsufficientApproval",
      "type": "error"
    },
    {
      "inputs": [
        {
          "internalType": "address",
          "name": "approver",
          "type": "address"
        }
      ],
      "name": "ERC721InvalidApprover",
      "type": "error"
    },
    {
      "inputs": [
        {
          "internalType": "address",
          "name": "operator",
          "type": "address"
        }
      ],
      "name": "ERC721InvalidOperator",
      "type": "error"
    },
    {
      "inputs": [
        {
          "internalType": "address",
          "name": "owner",
          "type": "address"
        }
      ],
      "name": "ERC721InvalidOwner",
      "type": "error"
    },
    {
      "inputs": [
        {
          "internalType": "address",
          "name": "receiver",
          "type": "address"
        }
      ],
      "name": "ERC721InvalidReceiver",
      "type": "error"
    },
    {
      "inputs": [
        {
          "internalType": "address",
          "name": "sender",
          "type": "address"
        }
      ],
      "name": "ERC721InvalidSender",
      "type": "error"
    },
    {
      "inputs": [
        {
          "internalType": "uint256",
          "name": "tokenId",
          "type": "uint256"
        }
      ],
      "name": "ERC721NonexistentToken",
      "type": "error"
    },
    {
      "anonymous": false,
      "inputs": [
        {
          "indexed": true,
          "internalType": "address",
          "name": "owner",
          "type": "address"
        },
        {
          "indexed": true,
          "internalType": "address",
          "name": "approved",
          "type": "address"
        },
        {
          "indexed": true,
          "internalType": "uint256",
          "name": "tokenId",
          "type": "uint256"
        }
      ],
      "name": "Approval",
      "type": "event"
    },
    {
      "anonymous": false,
      "inputs": [
        {
          "indexed": true,
          "internalType": "address",
          "name": "owner",
          "type": "address"
        },
        {
          "indexed": true,
          "internalType": "address",
          "name": "operator",
          "type": "address"
        },
        {
          "indexed": false,
          "internalType": "bool",
          "name": "approved",
          "type": "bool"
        }
      ],
      "name": "ApprovalForAll",
      "type": "event"
    },
    {
      "anonymous": false,
      "inputs": [
        {
          "indexed": false,
          "internalType": "uint256",
          "name": "_fromTokenId",
          "type": "uint256"
        },
        {
          "indexed": false,
          "internalType": "uint256",
          "name": "_toTokenId",
          "type": "uint256"
        }
      ],
      "name": "BatchMetadataUpdate",
      "type": "event"
    },
    {
      "anonymous": false,
      "inputs": [
        {
          "indexed": true,
          "internalType": "uint256",
          "name": "id",
          "type": "uint256"
        },
        {
          "indexed": false,
          "internalType": "address",
          "name": "farmer",
          "type": "address"
        }
      ],
      "name": "BatchMinted",
      "type": "event"
    },
    {
      "anonymous": false,
      "inputs": [
        {
          "indexed": true,
          "internalType": "uint256",
          "name": "id",
          "type": "uint256"
        },
        {
          "indexed": false,
          "internalType": "uint256",
          "name": "toFarmer",
          "type": "uint256"
        },
        {
          "indexed": false,
          "internalType": "uint256",
          "name": "refundRoaster",
          "type": "uint256"
        },
        {
          "indexed": false,
          "internalType": "uint256",
          "name": "refundShop",
          "type": "uint256"
        }
      ],
      "name": "IncentiveSettled",
      "type": "event"
    },
    {
      "anonymous": false,
      "inputs": [
        {
          "indexed": false,
          "internalType": "uint256",
          "name": "_tokenId",
          "type": "uint256"
        }
      ],
      "name": "MetadataUpdate",
      "type": "event"
    },
    {
      "anonymous": false,
      "inputs": [
        {
          "indexed": true,
          "internalType": "uint256",
          "name": "id",
          "type": "uint256"
        }
      ],
      "name": "RoasterHandoff",
      "type": "event"
    },
    {
      "anonymous": false,
      "inputs": [
        {
          "indexed": true,
          "internalType": "bytes32",
          "name": "role",
          "type": "bytes32"
        },
        {
          "indexed": true,
          "internalType": "bytes32",
          "name": "previousAdminRole",
          "type": "bytes32"
        },
        {
          "indexed": true,
          "internalType": "bytes32",
          "name": "newAdminRole",
          "type": "bytes32"
        }
      ],
      "name": "RoleAdminChanged",
      "type": "event"
    },
    {
      "anonymous": false,
      "inputs": [
        {
          "indexed": true,
          "internalType": "bytes32",
          "name": "role",
          "type": "bytes32"
        },
        {
          "indexed": true,
          "internalType": "address",
          "name": "account",
          "type": "address"
        },
        {
          "indexed": true,
          "internalType": "address",
          "name": "sender",
          "type": "address"
        }
      ],
      "name": "RoleGranted",
      "type": "event"
    },
    {
      "anonymous": false,
      "inputs": [
        {
          "indexed": true,
          "internalType": "bytes32",
          "name": "role",
          "type": "bytes32"
        },
        {
          "indexed": true,
          "internalType": "address",
          "name": "account",
          "type": "address"
        },
        {
          "indexed": true,
          "internalType": "address",
          "name": "sender",
          "type": "address"
        }
      ],
      "name": "RoleRevoked",
      "type": "event"
    },
    {
      "anonymous": false,
      "inputs": [
        {
          "indexed": true,
          "internalType": "uint256",
          "name": "id",
          "type": "uint256"
        }
      ],
      "name": "ShopHandoff",
      "type": "event"
    },
    {
      "anonymous": false,
      "inputs": [
        {
          "indexed": true,
          "internalType": "address",
          "name": "from",
          "type": "address"
        },
        {
          "indexed": true,
          "internalType": "address",
          "name": "to",
          "type": "address"
        },
        {
          "indexed": true,
          "internalType": "uint256",
          "name": "tokenId",
          "type": "uint256"
        }
      ],
      "name": "Transfer",
      "type": "event"
    },
    {
      "inputs": [],
      "name": "ADMIN_ROLE",
      "outputs": [
        {
          "internalType": "bytes32",
          "name": "",
          "type": "bytes32"
        }
      ],
      "stateMutability": "view",
      "type": "function"
    },
    {
      "inputs": [],
      "name": "DEFAULT_ADMIN_ROLE",
      "outputs": [
        {
          "internalType": "bytes32",
          "name": "",
          "type": "bytes32"
        }
      ],
      "stateMutability": "view",
      "type": "function"
    },
    {
      "inputs": [],
      "name": "FARMER_ROLE",
      "outputs": [
        {
          "internalType": "bytes32",
          "name": "",
          "type": "bytes32"
        }
      ],
      "stateMutability": "view",
      "type": "function"
    },
    {
      "inputs": [],
      "name": "ROASTER_ROLE",
      "outputs": [
        {
          "internalType": "bytes32",
          "name": "",
          "type": "bytes32"
        }
      ],
      "stateMutability": "view",
      "type": "function"
    },
    {
      "inputs": [],
      "name": "SHOP_ROLE",
      "outputs": [
        {
          "internalType": "bytes32",
          "name": "",
          "type": "bytes32"
        }
      ],
      "stateMutability": "view",
      "type": "function"
    },
    {
      "inputs": [
        {
          "internalType": "address",
          "name": "to",
          "type": "address"
        },
        {
          "internalType": "uint256",
          "name": "tokenId",
          "type": "uint256"
        }
      ],
      "name": "approve",
      "outputs": [],
      "stateMutability": "nonpayable",
      "type": "function"
    },
    {
      "inputs": [
        {
          "internalType": "address",
          "name": "owner",
          "type": "address"
        }
      ],
      "name": "balanceOf",
      "outputs": [
        {
          "internalType": "uint256",
          "name": "",
          "type": "uint256"
        }
      ],
      "stateMutability": "view",
      "type": "function"
    },
    {
      "inputs": [
        {
          "internalType": "uint256",
          "name": "",
          "type": "uint256"
        }
      ],
      "name": "batches",
      "outputs": [
        {
          "internalType": "address",
          "name": "farmer",
          "type": "address"
        },
        {
          "internalType": "address",
          "name": "roaster",
          "type": "address"
        },
        {
          "internalType": "address",
          "name": "shop",
          "type": "address"
        },
        {
          "components": [
            {
              "internalType": "uint256",
              "name": "farmerBase",
              "type": "uint256"
            },
            {
              "internalType": "uint256",
              "name": "farmerProof",
              "type": "uint256"
            },
            {
              "internalType": "uint256",
              "name": "roasterBase",
              "type": "uint256"
            },
            {
              "internalType": "uint256",
              "name": "roasterProof",
              "type": "uint256"
            }
          ],
          "internalType": "struct SupplyChainNFT.Prices",
          "name": "p",
          "type": "tuple"
        },
        {
          "components": [
            {
              "internalType": "bool",
              "name": "roasterSeen",
              "type": "bool"
            },
            {
              "internalType": "bool",
              "name": "shopSeen",
              "type": "bool"
            },
            {
              "internalType": "bool",
              "name": "settled",
              "type": "bool"
            }
          ],
          "internalType": "struct SupplyChainNFT.Flags",
          "name": "f",
          "type": "tuple"
        }
      ],
      "stateMutability": "view",
      "type": "function"
    },
    {
      "inputs": [
        {
          "internalType": "uint256",
          "name": "tokenId",
          "type": "uint256"
        }
      ],
      "name": "getApproved",
      "outputs": [
        {
          "internalType": "address",
          "name": "",
          "type": "address"
        }
      ],
      "stateMutability": "view",
      "type": "function"
    },
    {
      "inputs": [
        {
          "internalType": "uint256",
          "name": "id",
          "type": "uint256"
        }
      ],
      "name": "getBatch",
      "outputs": [
        {
          "internalType": "uint256",
          "name": "tokenId",
          "type": "uint256"
        },
        {
          "internalType": "address",
          "name": "farmer",
          "type": "address"
        },
        {
          "internalType": "address",
          "name": "roaster",
          "type": "address"
        },
        {
          "internalType": "address",
          "name": "shop",
          "type": "address"
        },
        {
          "internalType": "uint256",
          "name": "farmerBase",
          "type": "uint256"
        },
        {
          "internalType": "uint256",
          "name": "farmerProof",
          "type": "uint256"
        },
        {
          "internalType": "uint256",
          "name": "roasterBase",
          "type": "uint256"
        },
        {
          "internalType": "uint256",
          "name": "roasterProof",
          "type": "uint256"
        },
        {
          "internalType": "bool",
          "name": "roasterSeen",
          "type": "bool"
        },
        {
          "internalType": "bool",
          "name": "shopSeen",
          "type": "bool"
        },
        {
          "internalType": "bool",
          "name": "settled",
          "type": "bool"
        }
      ],
      "stateMutability": "view",
      "type": "function"
    },
    {
      "inputs": [
        {
          "internalType": "bytes32",
          "name": "role",
          "type": "bytes32"
        }
      ],
      "name": "getRoleAdmin",
      "outputs": [
        {
          "internalType": "bytes32",
          "name": "",
          "type": "bytes32"
        }
      ],
      "stateMutability": "view",
      "type": "function"
    },
    {
      "inputs": [
        {
          "internalType": "bytes32",
          "name": "role",
          "type": "bytes32"
        },
        {
          "internalType": "address",
          "name": "account",
          "type": "address"
        }
      ],
      "name": "grantRole",
      "outputs": [],
      "stateMutability": "nonpayable",
      "type": "function"
    },
    {
      "inputs": [
        {
          "internalType": "bytes32",
          "name": "role",
          "type": "bytes32"
        },
        {
          "internalType": "address",
          "name": "account",
          "type": "address"
        }
      ],
      "name": "hasRole",
      "outputs": [
        {
          "internalType": "bool",
          "name": "",
          "type": "bool"
        }
      ],
      "stateMutability": "view",
      "type": "function"
    },
    {
      "inputs": [
        {
          "internalType": "address",
          "name": "owner",
          "type": "address"
        },
        {
          "internalType": "address",
          "name": "operator",
          "type": "address"
        }
      ],
      "name": "isApprovedForAll",
      "outputs": [
        {
          "internalType": "bool",
          "name": "",
          "type": "bool"
        }
      ],
      "stateMutability": "view",
      "type": "function"
    },
    {
      "inputs": [
        {
          "internalType": "string",
          "name": "tokenURI",
          "type": "string"
        },
        {
          "internalType": "uint256",
          "name": "farmerBase",
          "type": "uint256"
        },
        {
          "internalType": "uint256",
          "name": "farmerProof",
          "type": "uint256"
        },
        {
          "internalType": "uint256",
          "name": "roasterBase",
          "type": "uint256"
        },
        {
          "internalType": "uint256",
          "name": "roasterProof",
          "type": "uint256"
        },
        {
          "internalType": "uint96",
          "name": "royaltyBps",
          "type": "uint96"
        }
      ],
      "name": "mintBatch",
      "outputs": [],
      "stateMutability": "nonpayable",
      "type": "function"
    },
    {
      "inputs": [],
      "name": "name",
      "outputs": [
        {
          "internalType": "string",
          "name": "",
          "type": "string"
        }
      ],
      "stateMutability": "view",
      "type": "function"
    },
    {
      "inputs": [],
      "name": "nextTokenId",
      "outputs": [
        {
          "internalType": "uint256",
          "name": "",
          "type": "uint256"
        }
      ],
      "stateMutability": "view",
      "type": "function"
    },
    {
      "inputs": [
        {
          "internalType": "uint256",
          "name": "tokenId",
          "type": "uint256"
        }
      ],
      "name": "ownerOf",
      "outputs": [
        {
          "internalType": "address",
          "name": "",
          "type": "address"
        }
      ],
      "stateMutability": "view",
      "type": "function"
    },
    {
      "inputs": [
        {
          "internalType": "bytes32",
          "name": "role",
          "type": "bytes32"
        },
        {
          "internalType": "address",
          "name": "callerConfirmation",
          "type": "address"
        }
      ],
      "name": "renounceRole",
      "outputs": [],
      "stateMutability": "nonpayable",
      "type": "function"
    },
    {
      "inputs": [
        {
          "internalType": "bytes32",
          "name": "role",
          "type": "bytes32"
        },
        {
          "internalType": "address",
          "name": "account",
          "type": "address"
        }
      ],
      "name": "revokeRole",
      "outputs": [],
      "stateMutability": "nonpayable",
      "type": "function"
    },
    {
      "inputs": [
        {
          "internalType": "uint256",
          "name": "id",
          "type": "uint256"
        }
      ],
      "name": "roasterHandoff",
      "outputs": [],
      "stateMutability": "payable",
      "type": "function"
    },
    {
      "inputs": [
        {
          "internalType": "uint256",
          "name": "tokenId",
          "type": "uint256"
        },
        {
          "internalType": "uint256",
          "name": "salePrice",
          "type": "uint256"
        }
      ],
      "name": "royaltyInfo",
      "outputs": [
        {
          "internalType": "address",
          "name": "",
          "type": "address"
        },
        {
          "internalType": "uint256",
          "name": "",
          "type": "uint256"
        }
      ],
      "stateMutability": "view",
      "type": "function"
    },
    {
      "inputs": [
        {
          "internalType": "address",
          "name": "from",
          "type": "address"
        },
        {
          "internalType": "address",
          "name": "to",
          "type": "address"
        },
        {
          "internalType": "uint256",
          "name": "tokenId",
          "type": "uint256"
        }
      ],
      "name": "safeTransferFrom",
      "outputs": [],
      "stateMutability": "nonpayable",
      "type": "function"
    },
    {
      "inputs": [
        {
          "internalType": "address",
          "name": "from",
          "type": "address"
        },
        {
          "internalType": "address",
          "name": "to",
          "type": "address"
        },
        {
          "internalType": "uint256",
          "name": "tokenId",
          "type": "uint256"
        },
        {
          "internalType": "bytes",
          "name": "data",
          "type": "bytes"
        }
      ],
      "name": "safeTransferFrom",
      "outputs": [],
      "stateMutability": "nonpayable",
      "type": "function"
    },
    {
      "inputs": [
        {
          "internalType": "address",
          "name": "operator",
          "type": "address"
        },
        {
          "internalType": "bool",
          "name": "approved",
          "type": "bool"
        }
      ],
      "name": "setApprovalForAll",
      "outputs": [],
      "stateMutability": "nonpayable",
      "type": "function"
    },
    {
      "inputs": [
        {
          "internalType": "uint256",
          "name": "id",
          "type": "uint256"
        }
      ],
      "name": "shopHandoff",
      "outputs": [],
      "stateMutability": "payable",
      "type": "function"
    },
    {
      "inputs": [
        {
          "internalType": "bytes4",
          "name": "i",
          "type": "bytes4"
        }
      ],
      "name": "supportsInterface",
      "outputs": [
        {
          "internalType": "bool",
          "name": "",
          "type": "bool"
        }
      ],
      "stateMutability": "view",
      "type": "function"
    },
    {
      "inputs": [],
      "name": "symbol",
      "outputs": [
        {
          "internalType": "string",
          "name": "",
          "type": "string"
        }
      ],
      "stateMutability": "view",
      "type": "function"
    },
    {
      "inputs": [
        {
          "internalType": "uint256",
          "name": "tokenId",
          "type": "uint256"
        }
      ],
      "name": "tokenURI",
      "outputs": [
        {
          "internalType": "string",
          "name": "",
          "type": "string"
        }
      ],
      "stateMutability": "view",
      "type": "function"
    },
    {
      "inputs": [
        {
          "internalType": "address",
          "name": "from",
          "type": "address"
        },
        {
          "internalType": "address",
          "name": "to",
          "type": "address"
        },
        {
          "internalType": "uint256",
          "name": "tokenId",
          "type": "uint256"
        }
      ],
      "name": "transferFrom",
      "outputs": [],
      "stateMutability": "nonpayable",
      "type": "function"
    }
  ],
  "bytecode": "0x60806040526001600a553480156200001657600080fd5b5060405162002863380380620028638339810160408190526200003991620001c3565b6040518060400160405280600e81526020016d4661697254726164654265616e7360901b81525060405180604001604052806003815260200162232a2160e91b81525081600090816200008d91906200029c565b5060016200009c82826200029c565b50620000ae9150600090508262000110565b50620000db7fa49807205ce4d355092ef5a8a18f56e8913cf4a201fbe287825b095693c217758262000110565b50620001087f7c6181838a71a779e445600d4c6ecbe16bacf2b3c5bda69c29fada66d1b645d18262000110565b505062000368565b60008281526007602090815260408083206001600160a01b038516845290915281205460ff16620001b95760008381526007602090815260408083206001600160a01b03861684529091529020805460ff19166001179055620001703390565b6001600160a01b0316826001600160a01b0316847f2f8788117e7eff1d82e926ec794901d17c78024a50270940304540a733656f0d60405160405180910390a4506001620001bd565b5060005b92915050565b600060208284031215620001d657600080fd5b81516001600160a01b0381168114620001ee57600080fd5b9392505050565b634e487b7160e01b600052604160045260246000fd5b600181811c908216806200022057607f821691505b6020821081036200024157634e487b7160e01b600052602260045260246000fd5b50919050565b601f82111562000297576000816000526020600020601f850160051c81016020861015620002725750805b601f850160051c820191505b8181101562000293578281556001016200027e565b5050505b505050565b81516001600160401b03811115620002b857620002b8620001f5565b620002d081620002c984546200020b565b8462000247565b602080601f831160018114620003085760008415620002ef5750858301515b600019600386901b1c1916600185901b17855562000293565b600085815260208120601f198616915b82811015620003395788860151825594840194600190910190840162000318565b5085821015620003585787850151600019600388901b60f8161c191681555b5050505050600190811b01905550565b6124eb80620003786000396000f3fe6080604052600436106101cd5760003560e01c806375794a3c116100f7578063b88d4fde11610095578063d547741f11610064578063d547741f146106df578063dfe25239146106ff578063e985e9c514610733578063f39439701461075357600080fd5b8063b88d4fde1461066c578063c5c67eae1461068c578063c77361d71461069f578063c87b56dd146106bf57600080fd5b806395d89b41116100d157806395d89b41146104f7578063a217fddf1461050c578063a22cb46514610521578063b32c4d8d1461054157600080fd5b806375794a3c1461048d57806375b238fc146104a357806391d14854146104d757600080fd5b80632a55205a1161016f57806342842e0e1161013e57806342842e0e146103a75780635ac44282146103c75780636352211e1461044d57806370a082311461046d57600080fd5b80632a55205a146103155780632f2ff15d146103545780632fe2bca31461037457806336568abe1461038757600080fd5b8063081812fc116101ab578063081812fc1461026b578063095ea7b3146102a357806323b872dd146102c5578063248a9ca3146102e557600080fd5b806301d0216c146101d257806301ffc9a71461021957806306fdde0314610249575b600080fd5b3480156101de57600080fd5b506102067f1f0426c2589e5c3ea5f5996e2a4371ca21edd86514b6679c9dd135d7c85b28bf81565b6040519081526020015b60405180910390f35b34801561022557600080fd5b50610239610234366004611ebb565b610787565b6040519015158152602001610210565b34801561025557600080fd5b5061025e610798565b6040516102109190611f28565b34801561027757600080fd5b5061028b610286366004611f3b565b61082a565b6040516001600160a01b039091168152602001610210565b3480156102af57600080fd5b506102c36102be366004611f70565b610853565b005b3480156102d157600080fd5b506102c36102e0366004611f9a565b610862565b3480156102f157600080fd5b50610206610300366004611f3b565b60009081526007602052604090206001015490565b34801561032157600080fd5b50610335610330366004611fd6565b6108f2565b604080516001600160a01b039093168352602083019190915201610210565b34801561036057600080fd5b506102c361036f366004611ff8565b61099e565b6102c3610382366004611f3b565b6109c3565b34801561039357600080fd5b506102c36103a2366004611ff8565b610ad7565b3480156103b357600080fd5b506102c36103c2366004611f9a565b610b0f565b3480156103d357600080fd5b506103e76103e2366004611f3b565b610b2a565b604080519b8c526001600160a01b039a8b1660208d0152988a16988b0198909852979095166060890152608088019390935260a087019190915260c086015260e08501521515610100840152901515610120830152151561014082015261016001610210565b34801561045957600080fd5b5061028b610468366004611f3b565b610c65565b34801561047957600080fd5b50610206610488366004612024565b610c70565b34801561049957600080fd5b50610206600a5481565b3480156104af57600080fd5b506102067fa49807205ce4d355092ef5a8a18f56e8913cf4a201fbe287825b095693c2177581565b3480156104e357600080fd5b506102396104f2366004611ff8565b610cb8565b34801561050357600080fd5b5061025e610ce3565b34801561051857600080fd5b50610206600081565b34801561052d57600080fd5b506102c361053c36600461203f565b610cf2565b34801561054d57600080fd5b506105f761055c366004611f3b565b600b6020908152600091825260409182902080546001820154600283015485516080810187526003850154815260048501548187015260058501548188015260068501546060808301919091528751908101885260079095015460ff80821615158752610100820481161515978701979097526201000090049095161515958401959095526001600160a01b03918216949082169391169185565b604080516001600160a01b039687168152948616602080870191909152939095168486015281516060808601919091528284015160808601528286015160a08601529091015160c08401528051151560e084015290810151151561010083015290910151151561012082015261014001610210565b34801561067857600080fd5b506102c3610687366004612091565b610cfd565b6102c361069a366004611f3b565b610d14565b3480156106ab57600080fd5b506102c36106ba366004612184565b610e74565b3480156106cb57600080fd5b5061025e6106da366004611f3b565b611139565b3480156106eb57600080fd5b506102c36106fa366004611ff8565b61124a565b34801561070b57600080fd5b506102067f6833e94b5193c7a314af51094165d7809e1989f393a17eea242de8d46482826381565b34801561073f57600080fd5b5061023961074e36600461222a565b61126f565b34801561075f57600080fd5b506102067f7c6181838a71a779e445600d4c6ecbe16bacf2b3c5bda69c29fada66d1b645d181565b60006107928261129d565b92915050565b6060600080546107a790612254565b80601f01602080910402602001604051908101604052809291908181526020018280546107d390612254565b80156108205780601f106107f557610100808354040283529160200191610820565b820191906000526020600020905b81548152906001019060200180831161080357829003601f168201915b5050505050905090565b6000610835826112c2565b506000828152600460205260409020546001600160a01b0316610792565b61085e8282336112fb565b5050565b6001600160a01b03821661089157604051633250574960e11b8152600060048201526024015b60405180910390fd5b600061089e838333611308565b9050836001600160a01b0316816001600160a01b0316146108ec576040516364283d7b60e01b81526001600160a01b0380861660048301526024820184905282166044820152606401610888565b50505050565b60008281526009602090815260408083208151808301909252546001600160a01b038116808352600160a01b9091046001600160601b03169282019290925282916109675750604080518082019091526008546001600160a01b0381168252600160a01b90046001600160601b031660208201525b602081015160009061271090610986906001600160601b0316876122a4565b61099091906122bb565b915196919550909350505050565b6000828152600760205260409020600101546109b981611401565b6108ec838361140e565b7f6833e94b5193c7a314af51094165d7809e1989f393a17eea242de8d4648282636109ed81611401565b6000828152600b60205260409020600781015460ff1615610a3f5760405162461bcd60e51b815260206004820152600c60248201526b526f617374657220646f6e6560a01b6044820152606401610888565b60038101543414610a835760405162461bcd60e51b815260206004820152600e60248201526d706179206661726d65724261736560901b6044820152606401610888565b600180820180546001600160a01b0319163317905560078201805460ff1916909117905560405183907fdcc23e7b0b5cf6737f4b090f8d05687561527ca8b06a49a249c2874ace6f3b9690600090a2505050565b6001600160a01b0381163314610b005760405163334bd91960e11b815260040160405180910390fd5b610b0a82826114a2565b505050565b610b0a83838360405180602001604052806000815250610cfd565b6000806000806000806000806000806000808c118015610b4b5750600a548c105b610b805760405162461bcd60e51b8152602060048201526006602482015265189859081a5960d21b6044820152606401610888565b6000600b60008e815260200190815260200160002090508c8160000160009054906101000a90046001600160a01b03168260010160009054906101000a90046001600160a01b03168360020160009054906101000a90046001600160a01b031684600301600001548560030160010154866003016002015487600301600301548860070160000160009054906101000a900460ff168960070160000160019054906101000a900460ff168a60070160000160029054906101000a900460ff169b509b509b509b509b509b509b509b509b509b509b505091939597999b90929496989a50565b6000610792826112c2565b60006001600160a01b038216610c9c576040516322718ad960e21b815260006004820152602401610888565b506001600160a01b031660009081526003602052604090205490565b60009182526007602090815260408084206001600160a01b0393909316845291905290205460ff1690565b6060600180546107a790612254565b61085e33838361150f565b610d08848484610862565b6108ec848484846115ae565b7f1f0426c2589e5c3ea5f5996e2a4371ca21edd86514b6679c9dd135d7c85b28bf610d3e81611401565b6000828152600b60205260409020600781015460ff16610d905760405162461bcd60e51b815260206004820152600d60248201526c149bd85cdd195c88199a5c9cdd609a1b6044820152606401610888565b6007810154610100900460ff1615610dd65760405162461bcd60e51b815260206004820152600960248201526853686f7020646f6e6560b81b6044820152606401610888565b60058101543414610e1b5760405162461bcd60e51b815260206004820152600f60248201526e70617920726f61737465724261736560881b6044820152606401610888565b6002810180546001600160a01b0319163317905560078101805461ff00191661010017905560405183907fc1846f935e8064dd0804f3b569aec9d407c68dfed0f9df7f4cafb61248d5a02e90600090a2610b0a836116d7565b7f7c6181838a71a779e445600d4c6ecbe16bacf2b3c5bda69c29fada66d1b645d1610e9e81611401565b858510610ee35760405162461bcd60e51b81526020600482015260136024820152726661726d657250726f6f66203e3d206261736560681b6044820152606401610888565b838310610f295760405162461bcd60e51b8152602060048201526014602482015273726f617374657250726f6f66203e3d206261736560601b6044820152606401610888565b612710826001600160601b03161115610f705760405162461bcd60e51b81526020600482015260096024820152680627073203e203130360bc1b6044820152606401610888565b600a805460009182610f81836122dd565b919050559050610f91338261187d565b610fd1818a8a8080601f01602080910402602001604051908101604052809392919081815260200183838082843760009201919091525061189792505050565b610fdc8133856118e7565b6040805160a08101825233808252600060208084018281528486018381528651608080820189528f82528185018f90528189018e905260608083018e905280890192835289518082018b52878152808701889052808b018890529189019182528a8752600b865295899020975188546001600160a01b03199081166001600160a01b03928316178a55945160018a018054871691831691909117905592516002890180549095169316929092179092559051805160038701558083015160048701558087015160058701559092015160068501559051805160079094018054828401519287015161ffff1990911695151561ff00191695909517610100921515929092029190911762ff00001916620100009415159490940293909317909255915191825282917f60d658bf0002e1b552459902f2664f03fcd916bfb98b69a823d3334bbad143e7910160405180910390a2505050505050505050565b6060611144826112c2565b506000828152600660205260408120805461115e90612254565b80601f016020809104026020016040519081016040528092919081815260200182805461118a90612254565b80156111d75780601f106111ac576101008083540402835291602001916111d7565b820191906000526020600020905b8154815290600101906020018083116111ba57829003601f168201915b5050505050905060006111f560408051602081019091526000815290565b90508051600003611207575092915050565b8151156112395780826040516020016112219291906122f6565b60405160208183030381529060405292505050919050565b611242846119a9565b949350505050565b60008281526007602052604090206001015461126581611401565b6108ec83836114a2565b6001600160a01b03918216600090815260056020908152604080832093909416825291909152205460ff1690565b60006001600160e01b0319821663152a902d60e11b1480610792575061079282611a1e565b6000818152600260205260408120546001600160a01b03168061079257604051637e27328960e01b815260048101849052602401610888565b610b0a8383836001611a43565b6000828152600260205260408120546001600160a01b039081169083161561133557611335818486611b49565b6001600160a01b0381161561137357611352600085600080611a43565b6001600160a01b038116600090815260036020526040902080546000190190555b6001600160a01b038516156113a2576001600160a01b0385166000908152600360205260409020805460010190555b60008481526002602052604080822080546001600160a01b0319166001600160a01b0389811691821790925591518793918516917fddf252ad1be2c89b69c2b068fc378daa952ba7f163c4a11628f55a4df523b3ef91a4949350505050565b61140b8133611bad565b50565b600061141a8383610cb8565b61149a5760008381526007602090815260408083206001600160a01b03861684529091529020805460ff191660011790556114523390565b6001600160a01b0316826001600160a01b0316847f2f8788117e7eff1d82e926ec794901d17c78024a50270940304540a733656f0d60405160405180910390a4506001610792565b506000610792565b60006114ae8383610cb8565b1561149a5760008381526007602090815260408083206001600160a01b0386168085529252808320805460ff1916905551339286917ff6391f5c32d9c69d2a47ea670b442974b53935d1edc7fd64eb21e047a839171b9190a4506001610792565b6001600160a01b03821661154157604051630b61174360e31b81526001600160a01b0383166004820152602401610888565b6001600160a01b03838116600081815260056020908152604080832094871680845294825291829020805460ff191686151590811790915591519182527f17307eab39ab6107e8899845ad3d59bd9653f200f220920489ca2b5937696c31910160405180910390a3505050565b6001600160a01b0383163b156108ec57604051630a85bd0160e11b81526001600160a01b0384169063150b7a02906115f0903390889087908790600401612325565b6020604051808303816000875af192505050801561162b575060408051601f3d908101601f1916820190925261162891810190612362565b60015b611694573d808015611659576040519150601f19603f3d011682016040523d82523d6000602084013e61165e565b606091505b50805160000361168c57604051633250574960e11b81526001600160a01b0385166004820152602401610888565b805181602001fd5b6001600160e01b03198116630a85bd0160e11b146116d057604051633250574960e11b81526001600160a01b0385166004820152602401610888565b5050505050565b6000818152600b60205260409020600781015460ff16801561170257506007810154610100900460ff165b80156117195750600781015462010000900460ff16155b1561085e57600481015460038201546000916117349161237f565b6006830154600584015491925060009161174e919061237f565b600484015460068501549192509060009061176a908590612392565b60018601546040519192506001600160a01b03169082156108fc029083906000818181858888f193505050501580156117a7573d6000803e3d6000fd5b5060028501546040516001600160a01b039091169084156108fc029085906000818181858888f193505050501580156117e4573d6000803e3d6000fd5b5084546040516001600160a01b039091169083156108fc029084906000818181858888f1935050505015801561181e573d6000803e3d6000fd5b5060078501805462ff0000191662010000179055604080518381526020810186905290810184905286907f1ea2aae0216c4161cb1ade2f288b84a74e0fb65458b440a4609b0d8d66324b119060600160405180910390a2505050505050565b61085e828260405180602001604052806000815250611be6565b60008281526006602052604090206118af82826123f5565b506040518281527ff8e1a15aba9398e019f0b49df1a4fde98ee17ae345cb5f6b5e2c27f5033e8ce79060200160405180910390a15050565b6127106001600160601b03821681101561192d5760405163dfd1fc1b60e01b8152600481018590526001600160601b038316602482015260448101829052606401610888565b6001600160a01b03831661195e57604051634b4f842960e11b81526004810185905260006024820152604401610888565b506040805180820182526001600160a01b0393841681526001600160601b0392831660208083019182526000968752600990529190942093519051909116600160a01b029116179055565b60606119b4826112c2565b5060006119cc60408051602081019091526000815290565b905060008151116119ec5760405180602001604052806000815250611a17565b806119f684611bfd565b604051602001611a079291906122f6565b6040516020818303038152906040525b9392505050565b60006001600160e01b03198216637965db0b60e01b1480610792575061079282611c90565b8080611a5757506001600160a01b03821615155b15611b19576000611a67846112c2565b90506001600160a01b03831615801590611a935750826001600160a01b0316816001600160a01b031614155b8015611aa65750611aa4818461126f565b155b15611acf5760405163a9fbf51f60e01b81526001600160a01b0384166004820152602401610888565b8115611b175783856001600160a01b0316826001600160a01b03167f8c5be1e5ebec7d5bd14f71427d1e84f3dd0314c0f7b2291e5b200ac8c7c3b92560405160405180910390a45b505b5050600090815260046020526040902080546001600160a01b0319166001600160a01b0392909216919091179055565b611b54838383611cb5565b610b0a576001600160a01b038316611b8257604051637e27328960e01b815260048101829052602401610888565b60405163177e802f60e01b81526001600160a01b038316600482015260248101829052604401610888565b611bb78282610cb8565b61085e5760405163e2517d3f60e01b81526001600160a01b038216600482015260248101839052604401610888565b611bf08383611d18565b610b0a60008484846115ae565b60606000611c0a83611d7d565b600101905060008167ffffffffffffffff811115611c2a57611c2a61207b565b6040519080825280601f01601f191660200182016040528015611c54576020820181803683370190505b5090508181016020015b600019016f181899199a1a9b1b9c1cb0b131b232b360811b600a86061a8153600a8504945084611c5e57509392505050565b60006001600160e01b03198216632483248360e11b1480610792575061079282611e55565b60006001600160a01b038316158015906112425750826001600160a01b0316846001600160a01b03161480611cef5750611cef848461126f565b806112425750506000908152600460205260409020546001600160a01b03908116911614919050565b6001600160a01b038216611d4257604051633250574960e11b815260006004820152602401610888565b6000611d5083836000611308565b90506001600160a01b03811615610b0a576040516339e3563760e11b815260006004820152602401610888565b60008072184f03e93ff9f4daa797ed6e38ed64bf6a1f0160401b8310611dbc5772184f03e93ff9f4daa797ed6e38ed64bf6a1f0160401b830492506040015b6d04ee2d6d415b85acef81000000008310611de8576d04ee2d6d415b85acef8100000000830492506020015b662386f26fc100008310611e0657662386f26fc10000830492506010015b6305f5e1008310611e1e576305f5e100830492506008015b6127108310611e3257612710830492506004015b60648310611e44576064830492506002015b600a83106107925760010192915050565b60006001600160e01b031982166380ac58cd60e01b1480611e8657506001600160e01b03198216635b5e139f60e01b145b8061079257506301ffc9a760e01b6001600160e01b0319831614610792565b6001600160e01b03198116811461140b57600080fd5b600060208284031215611ecd57600080fd5b8135611a1781611ea5565b60005b83811015611ef3578181015183820152602001611edb565b50506000910152565b60008151808452611f14816020860160208601611ed8565b601f01601f19169290920160200192915050565b602081526000611a176020830184611efc565b600060208284031215611f4d57600080fd5b5035919050565b80356001600160a01b0381168114611f6b57600080fd5b919050565b60008060408385031215611f8357600080fd5b611f8c83611f54565b946020939093013593505050565b600080600060608486031215611faf57600080fd5b611fb884611f54565b9250611fc660208501611f54565b9150604084013590509250925092565b60008060408385031215611fe957600080fd5b50508035926020909101359150565b6000806040838503121561200b57600080fd5b8235915061201b60208401611f54565b90509250929050565b60006020828403121561203657600080fd5b611a1782611f54565b6000806040838503121561205257600080fd5b61205b83611f54565b91506020830135801515811461207057600080fd5b809150509250929050565b634e487b7160e01b600052604160045260246000fd5b600080600080608085870312156120a757600080fd5b6120b085611f54565b93506120be60208601611f54565b925060408501359150606085013567ffffffffffffffff808211156120e257600080fd5b818701915087601f8301126120f657600080fd5b8135818111156121085761210861207b565b604051601f8201601f19908116603f011681019083821181831017156121305761213061207b565b816040528281528a602084870101111561214957600080fd5b82602086016020830137600060208483010152809550505050505092959194509250565b80356001600160601b0381168114611f6b57600080fd5b600080600080600080600060c0888a03121561219f57600080fd5b873567ffffffffffffffff808211156121b757600080fd5b818a0191508a601f8301126121cb57600080fd5b8135818111156121da57600080fd5b8b60208285010111156121ec57600080fd5b60209283019950975050880135945060408801359350606088013592506080880135915061221c60a0890161216d565b905092959891949750929550565b6000806040838503121561223d57600080fd5b61224683611f54565b915061201b60208401611f54565b600181811c9082168061226857607f821691505b60208210810361228857634e487b7160e01b600052602260045260246000fd5b50919050565b634e487b7160e01b600052601160045260246000fd5b80820281158282048414176107925761079261228e565b6000826122d857634e487b7160e01b600052601260045260246000fd5b500490565b6000600182016122ef576122ef61228e565b5060010190565b60008351612308818460208801611ed8565b83519083019061231c818360208801611ed8565b01949350505050565b6001600160a01b038581168252841660208201526040810183905260806060820181905260009061235890830184611efc565b9695505050505050565b60006020828403121561237457600080fd5b8151611a1781611ea5565b818103818111156107925761079261228e565b808201808211156107925761079261228e565b601f821115610b0a576000816000526020600020601f850160051c810160208610156123ce5750805b601f850160051c820191505b818110156123ed578281556001016123da565b505050505050565b815167ffffffffffffffff81111561240f5761240f61207b565b6124238161241d8454612254565b846123a5565b602080601f83116001811461245857600084156124405750858301515b600019600386901b1c1916600185901b1785556123ed565b600085815260208120601f198616915b8281101561248757888601518255948401946001909101908401612468565b50858210156124a55787850151600019600388901b60f8161c191681555b5050505050600190811b0190555056fea2646970667358221220421cff6e93b9ea7f27430618e5e9cbce08593853eeb20b41418468a55e4504d564736f6c63430008160033",
  "linkReferences": {},
  "deployedLinkReferences": {}
}