{"contracts/SupplyChainFactory.sol":{"SupplyChainFactory":{"abi":[{"inputs":[{"internalType":"address","name":"admin","type":"address"}],"stateMutability":"nonpayable","type":"constructor"},{"inputs":[],"name":"getNFTAddress","outputs":[{"internalType":"address","name":"","type":"address"}],"stateMutability":"view","type":"function"},{"inputs":[],"name":"nftContract","outputs":[{"internalType":"contract SupplyChainNFT","name":"","type":"address"}],"stateMutability":"view","type":"function"}],"evm":{"bytecode":{"linkReferences":{},"object":"608060405234801561001057600080fd5b5060405161307438038061307483398101604081905261002f91610162565b8060405161003c90610155565b6001600160a01b039091168152602001604051809103906000f080158015610068573d6000803e3d6000fd5b50600080546001600160a01b0319166001600160a01b0392909216918217905560408051630f39439760e41b81529051632f2ff15d91839163f3943970916004808201926020929091908290030181865afa1580156100cb573d6000803e3d6000fd5b505050506040513d601f19601f820116820180604052508101906100ef9190610192565b6040516001600160e01b031960e084901b16815260048101919091526001600160a01b0384166024820152604401600060405180830381600087803b15801561013757600080fd5b505af115801561014b573d6000803e3d6000fd5b50505050506101ab565b612e138061026183390190565b60006020828403121561017457600080fd5b81516001600160a01b038116811461018b57600080fd5b9392505050565b6000602082840312156101a457600080fd5b5051919050565b60a8806101b96000396000f3fe6080604052348015600f57600080fd5b506004361060325760003560e01c8063b9618478146037578063d56d229d146060575b600080fd5b6000546001600160a01b03165b6040516001600160a01b03909116815260200160405180910390f35b6000546044906001600160a01b03168156fea2646970667358221220583276bc9c7302e2f92394a8b7e4137baff3e9d5165ae456eb2b2914846e5f3464736f6c6343000816003360806040526001600a553480156200001657600080fd5b5060405162002e1338038062002e13833981016040819052620000399162000196565b6040518060400160405280600e81526020016d4661697254726164654265616e7360901b81525060405180604001604052806003815260200162232a2160e91b81525081600090816200008d91906200026f565b5060016200009c82826200026f565b50620000ae91506000905082620000e3565b50620000db7fa49807205ce4d355092ef5a8a18f56e8913cf4a201fbe287825b095693c2177582620000e3565b50506200033b565b60008281526007602090815260408083206001600160a01b038516845290915281205460ff166200018c5760008381526007602090815260408083206001600160a01b03861684529091529020805460ff19166001179055620001433390565b6001600160a01b0316826001600160a01b0316847f2f8788117e7eff1d82e926ec794901d17c78024a50270940304540a733656f0d60405160405180910390a450600162000190565b5060005b92915050565b600060208284031215620001a957600080fd5b81516001600160a01b0381168114620001c157600080fd5b9392505050565b634e487b7160e01b600052604160045260246000fd5b600181811c90821680620001f357607f821691505b6020821081036200021457634e487b7160e01b600052602260045260246000fd5b50919050565b601f8211156200026a576000816000526020600020601f850160051c81016020861015620002455750805b601f850160051c820191505b81811015620002665782815560010162000251565b5050505b505050565b81516001600160401b038111156200028b576200028b620001c8565b620002a3816200029c8454620001de565b846200021a565b602080601f831160018114620002db5760008415620002c25750858301515b600019600386901b1c1916600185901b17855562000266565b600085815260208120601f198616915b828110156200030c57888601518255948401946001909101908401620002eb565b50858210156200032b5787850151600019600388901b60f8161c191681555b5050505050600190811b01905550565b612ac8806200034b6000396000f3fe608060405234801561001057600080fd5b50600436106101da5760003560e01c806375b238fc11610104578063b32c4d8d116100a2578063d547741f11610071578063d547741f146104a7578063dfe25239146104ba578063e985e9c5146104e1578063f3943970146104f457600080fd5b8063b32c4d8d1461040b578063b88d4fde1461046e578063c87b56dd14610481578063ccb1173b1461049457600080fd5b806395d89b41116100de57806395d89b41146103d5578063a19a3fb3146103dd578063a217fddf146103f0578063a22cb465146103f857600080fd5b806375b238fc14610388578063805e6b07146103af57806391d14854146103c257600080fd5b80632a55205a1161017c5780635ac442821161014b5780635ac44282146103325780636352211e1461035957806370a082311461036c57806375794a3c1461037f57600080fd5b80632a55205a146102c75780632f2ff15d146102f957806336568abe1461030c57806342842e0e1461031f57600080fd5b8063081812fc116101b8578063081812fc14610251578063095ea7b31461027c57806323b872dd14610291578063248a9ca3146102a457600080fd5b806301d0216c146101df57806301ffc9a71461021957806306fdde031461023c575b600080fd5b6102067f1f0426c2589e5c3ea5f5996e2a4371ca21edd86514b6679c9dd135d7c85b28bf81565b6040519081526020015b60405180910390f35b61022c610227366004612132565b61051b565b6040519015158152602001610210565b61024461052c565b604051610210919061219f565b61026461025f3660046121b2565b6105be565b6040516001600160a01b039091168152602001610210565b61028f61028a3660046121e7565b6105e7565b005b61028f61029f366004612211565b6105f6565b6102066102b23660046121b2565b60009081526007602052604090206001015490565b6102da6102d536600461224d565b610686565b604080516001600160a01b039093168352602083019190915201610210565b61028f61030736600461226f565b610732565b61028f61031a36600461226f565b610757565b61028f61032d366004612211565b61078f565b6103456103403660046121b2565b6107aa565b604051610210989796959493929190612331565b6102646103673660046121b2565b610df4565b61020661037a3660046123d2565b610dff565b610206600a5481565b6102067fa49807205ce4d355092ef5a8a18f56e8913cf4a201fbe287825b095693c2177581565b61028f6103bd36600461255f565b610e47565b61022c6103d036600461226f565b611075565b6102446110a0565b61028f6103eb366004612654565b6110af565b610206600081565b61028f6104063660046126ed565b61133d565b6104466104193660046121b2565b600b6020526000908152604090208054600382015460049092015490919060ff8082169161010090041684565b6040805194855260208501939093529015159183019190915215156060820152608001610210565b61028f61047c366004612729565b611348565b61024461048f3660046121b2565b61135f565b61028f6104a23660046127a4565b611470565b61028f6104b536600461226f565b6115b4565b6102067f6833e94b5193c7a314af51094165d7809e1989f393a17eea242de8d46482826381565b61022c6104ef3660046127ea565b6115d9565b6102067f7c6181838a71a779e445600d4c6ecbe16bacf2b3c5bda69c29fada66d1b645d181565b600061052682611607565b92915050565b60606000805461053b90612814565b80601f016020809104026020016040519081016040528092919081815260200182805461056790612814565b80156105b45780601f10610589576101008083540402835291602001916105b4565b820191906000526020600020905b81548152906001019060200180831161059757829003601f168201915b5050505050905090565b60006105c98261162c565b506000828152600460205260409020546001600160a01b0316610526565b6105f2828233611665565b5050565b6001600160a01b03821661062557604051633250574960e11b8152600060048201526024015b60405180910390fd5b6000610632838333611672565b9050836001600160a01b0316816001600160a01b031614610680576040516364283d7b60e01b81526001600160a01b038086166004830152602482018490528216604482015260640161061c565b50505050565b60008281526009602090815260408083208151808301909252546001600160a01b038116808352600160a01b9091046001600160601b03169282019290925282916106fb5750604080518082019091526008546001600160a01b0381168252600160a01b90046001600160601b031660208201525b60208101516000906127109061071a906001600160601b031687612864565b610724919061287b565b915196919550909350505050565b60008281526007602052604090206001015461074d8161176b565b6106808383611778565b6001600160a01b03811633146107805760405163334bd91960e11b815260040160405180910390fd5b61078a828261180c565b505050565b61078a83838360405180602001604052806000815250611348565b60006060806060806060806060600a5489106107f95760405162461bcd60e51b815260206004820152600e60248201526d111bd95cc81b9bdd08195e1a5cdd60921b604482015260640161061c565b6000898152600b602052604090206001810154806001600160401b03811115610824576108246123ed565b60405190808252806020026020018201604052801561085757816020015b60608152602001906001900390816108425790505b509850806001600160401b03811115610872576108726123ed565b6040519080825280602002602001820160405280156108a557816020015b60608152602001906001900390816108905790505b509750806001600160401b038111156108c0576108c06123ed565b6040519080825280602002602001820160405280156108f357816020015b60608152602001906001900390816108de5790505b509650806001600160401b0381111561090e5761090e6123ed565b60405190808252806020026020018201604052801561094157816020015b606081526020019060019003908161092c5790505b509550806001600160401b0381111561095c5761095c6123ed565b604051908082528060200260200182016040528015610985578160200160208202803683370190505b509450806001600160401b038111156109a0576109a06123ed565b6040519080825280602002602001820160405280156109c9578160200160208202803683370190505b50935060005b81811015610cf45760008360010182815481106109ee576109ee61289d565b90600052602060002090600602019050806000018054610a0d90612814565b80601f0160208091040260200160405190810160405280929190818152602001828054610a3990612814565b8015610a865780601f10610a5b57610100808354040283529160200191610a86565b820191906000526020600020905b815481529060010190602001808311610a6957829003601f168201915b50505050508b8381518110610a9d57610a9d61289d565b6020026020010181905250806001018054610ab790612814565b80601f0160208091040260200160405190810160405280929190818152602001828054610ae390612814565b8015610b305780601f10610b0557610100808354040283529160200191610b30565b820191906000526020600020905b815481529060010190602001808311610b1357829003601f168201915b50505050508a8381518110610b4757610b4761289d565b6020026020010181905250806002018054610b6190612814565b80601f0160208091040260200160405190810160405280929190818152602001828054610b8d90612814565b8015610bda5780601f10610baf57610100808354040283529160200191610bda565b820191906000526020600020905b815481529060010190602001808311610bbd57829003601f168201915b5050505050898381518110610bf157610bf161289d565b6020026020010181905250806003018054610c0b90612814565b80601f0160208091040260200160405190810160405280929190818152602001828054610c3790612814565b8015610c845780601f10610c5957610100808354040283529160200191610c84565b820191906000526020600020905b815481529060010190602001808311610c6757829003601f168201915b5050505050888381518110610c9b57610c9b61289d565b60200260200101819052508060040154878381518110610cbd57610cbd61289d565b6020026020010181815250508060050154868381518110610ce057610ce061289d565b6020908102919091010152506001016109cf565b5081600001548989898989898860020180805480602002602001604051908101604052809291908181526020016000905b82821015610dd1578382906000526020600020018054610d4490612814565b80601f0160208091040260200160405190810160405280929190818152602001828054610d7090612814565b8015610dbd5780601f10610d9257610100808354040283529160200191610dbd565b820191906000526020600020905b815481529060010190602001808311610da057829003601f168201915b505050505081526020019060010190610d25565b505050509050995099509950995099509950995099505050919395975091939597565b60006105268261162c565b60006001600160a01b038216610e2b576040516322718ad960e21b81526000600482015260240161061c565b506001600160a01b031660009081526003602052604090205490565b7f7c6181838a71a779e445600d4c6ecbe16bacf2b3c5bda69c29fada66d1b645d1610e718161176b565b612710826001600160601b03161115610ebf5760405162461bcd60e51b815260206004820152601060248201526f0e4def2c2d8e8f240e8dede40d0d2ced60831b604482015260640161061c565b600a805460009182610ed0836128b3565b919050559050610ee03382611879565b610eea818b611893565b6000818152600b6020526040812082815560038101869055905b8a51811015610f5557816002018b8281518110610f2357610f2361289d565b60209081029190910181015182546001810184556000938452919092200190610f4c908261291c565b50600101610f04565b506040805161010081018252600660c08201818152652330b936b2b960d11b60e0840152825260208083018d90529282018b9052606082018a9052608082018990524260a08301526001808501805491820181556000908152939093208251929390910201908190610fc7908261291c565b5060208201516001820190610fdc908261291c565b5060408201516002820190610ff1908261291c565b5060608201516003820190611006908261291c565b506080820151816004015560a0820151816005015550506110288233866118e3565b6040516001600160601b0385168152339083907f6dad49f29ba597ab21d9d1cbc9320ad410d22f091931dac09f33b9375d4a96349060200160405180910390a35050505050505050505050565b60009182526007602090815260408084206001600160a01b0393909316845291905290205460ff1690565b60606001805461053b90612814565b600a5485106110f75760405162461bcd60e51b8152602060048201526014602482015273151bdad95b88191bd95cc81b9bdd08195e1a5cdd60621b604482015260640161061c565b60006111016119a5565b905060008151116111455760405162461bcd60e51b815260206004820152600e60248201526d139bdd08185d5d1a1bdc9a5e995960921b604482015260640161061c565b6000868152600b602090815260409091208251918301919091207f01114cbf365edd2dfa0b2d7130b88e95ef56193e5facdde42287dbea63bd343d016111955760048101805460ff191660011790555b815160208301207f3a23c263a5be40813644cee3e554a21b439912bce4771650cbc609f060d14f45016111d45760048101805461ff0019166101001790555b6040805160c081018252838152602080820189905291810187905260608101869052608081018590524260a0820152600180840180549182018155600090815292909220815191926006020190819061122d908261291c565b5060208201516001820190611242908261291c565b5060408201516002820190611257908261291c565b506060820151600382019061126c908261291c565b506080820151816004015560a082015181600501555050867f136d544ef0efca6c59039603c07fe9c9d054e34f307c570fedee04d911e4cd7383886040516112b59291906129db565b60405180910390a2600481015460ff1680156112da57506004810154610100900460ff165b80156112e95750600381015415155b1561133457867f0cf1451ab4e65df42ef4b7e6745008b05888843319629cca2b58993a471e49b3826003015460405161132491815260200190565b60405180910390a2600060038201555b50505050505050565b6105f2338383611a59565b6113538484846105f6565b61068084848484611af8565b606061136a8261162c565b506000828152600660205260408120805461138490612814565b80601f01602080910402602001604051908101604052809291908181526020018280546113b090612814565b80156113fd5780601f106113d2576101008083540402835291602001916113fd565b820191906000526020600020905b8154815290600101906020018083116113e057829003601f168201915b50505050509050600061141b60408051602081019091526000815290565b9050805160000361142d575092915050565b81511561145f578082604051602001611447929190612a09565b60405160208183030381529060405292505050919050565b61146884611c21565b949350505050565b600a5482106114b85760405162461bcd60e51b8152602060048201526014602482015273151bdad95b88191bd95cc81b9bdd08195e1a5cdd60621b604482015260640161061c565b6114e27f7c6181838a71a779e445600d4c6ecbe16bacf2b3c5bda69c29fada66d1b645d133611075565b8061151257506115127fa49807205ce4d355092ef5a8a18f56e8913cf4a201fbe287825b095693c2177533611075565b61154c5760405162461bcd60e51b815260206004820152600b60248201526a139bdd08185b1b1bddd95960aa1b604482015260640161061c565b6000828152600b6020908152604082206002018054600181018255908352912001611577828261291c565b50817fb3f7a51d97edfec0a93ec31952a01e523033a70f92f1cfae631a92c02f5306d0826040516115a8919061219f565b60405180910390a25050565b6000828152600760205260409020600101546115cf8161176b565b610680838361180c565b6001600160a01b03918216600090815260056020908152604080832093909416825291909152205460ff1690565b60006001600160e01b0319821663152a902d60e11b1480610526575061052682611c96565b6000818152600260205260408120546001600160a01b03168061052657604051637e27328960e01b81526004810184905260240161061c565b61078a8383836001611cbb565b6000828152600260205260408120546001600160a01b039081169083161561169f5761169f818486611dc1565b6001600160a01b038116156116dd576116bc600085600080611cbb565b6001600160a01b038116600090815260036020526040902080546000190190555b6001600160a01b0385161561170c576001600160a01b0385166000908152600360205260409020805460010190555b60008481526002602052604080822080546001600160a01b0319166001600160a01b0389811691821790925591518793918516917fddf252ad1be2c89b69c2b068fc378daa952ba7f163c4a11628f55a4df523b3ef91a4949350505050565b6117758133611e25565b50565b60006117848383611075565b6118045760008381526007602090815260408083206001600160a01b03861684529091529020805460ff191660011790556117bc3390565b6001600160a01b0316826001600160a01b0316847f2f8788117e7eff1d82e926ec794901d17c78024a50270940304540a733656f0d60405160405180910390a4506001610526565b506000610526565b60006118188383611075565b156118045760008381526007602090815260408083206001600160a01b0386168085529252808320805460ff1916905551339286917ff6391f5c32d9c69d2a47ea670b442974b53935d1edc7fd64eb21e047a839171b9190a4506001610526565b6105f2828260405180602001604052806000815250611e5e565b60008281526006602052604090206118ab828261291c565b506040518281527ff8e1a15aba9398e019f0b49df1a4fde98ee17ae345cb5f6b5e2c27f5033e8ce79060200160405180910390a15050565b6127106001600160601b0382168110156119295760405163dfd1fc1b60e01b8152600481018590526001600160601b03831660248201526044810182905260640161061c565b6001600160a01b03831661195a57604051634b4f842960e11b8152600481018590526000602482015260440161061c565b506040805180820182526001600160a01b0393841681526001600160601b0392831660208083019182526000968752600990529190942093519051909116600160a01b029116179055565b60606119d17f6833e94b5193c7a314af51094165d7809e1989f393a17eea242de8d46482826333611075565b156119f857506040805180820190915260078152662937b0b9ba32b960c91b602082015290565b611a227f1f0426c2589e5c3ea5f5996e2a4371ca21edd86514b6679c9dd135d7c85b28bf33611075565b15611a465750604080518082019091526004815263053686f760e41b602082015290565b5060408051602081019091526000815290565b6001600160a01b038216611a8b57604051630b61174360e31b81526001600160a01b038316600482015260240161061c565b6001600160a01b03838116600081815260056020908152604080832094871680845294825291829020805460ff191686151590811790915591519182527f17307eab39ab6107e8899845ad3d59bd9653f200f220920489ca2b5937696c31910160405180910390a3505050565b6001600160a01b0383163b1561068057604051630a85bd0160e11b81526001600160a01b0384169063150b7a0290611b3a903390889087908790600401612a38565b6020604051808303816000875af1925050508015611b75575060408051601f3d908101601f19168201909252611b7291810190612a75565b60015b611bde573d808015611ba3576040519150601f19603f3d011682016040523d82523d6000602084013e611ba8565b606091505b508051600003611bd657604051633250574960e11b81526001600160a01b038516600482015260240161061c565b805181602001fd5b6001600160e01b03198116630a85bd0160e11b14611c1a57604051633250574960e11b81526001600160a01b038516600482015260240161061c565b5050505050565b6060611c2c8261162c565b506000611c4460408051602081019091526000815290565b90506000815111611c645760405180602001604052806000815250611c8f565b80611c6e84611e75565b604051602001611c7f929190612a09565b6040516020818303038152906040525b9392505050565b60006001600160e01b03198216637965db0b60e01b1480610526575061052682611f07565b8080611ccf57506001600160a01b03821615155b15611d91576000611cdf8461162c565b90506001600160a01b03831615801590611d0b5750826001600160a01b0316816001600160a01b031614155b8015611d1e5750611d1c81846115d9565b155b15611d475760405163a9fbf51f60e01b81526001600160a01b038416600482015260240161061c565b8115611d8f5783856001600160a01b0316826001600160a01b03167f8c5be1e5ebec7d5bd14f71427d1e84f3dd0314c0f7b2291e5b200ac8c7c3b92560405160405180910390a45b505b5050600090815260046020526040902080546001600160a01b0319166001600160a01b0392909216919091179055565b611dcc838383611f2c565b61078a576001600160a01b038316611dfa57604051637e27328960e01b81526004810182905260240161061c565b60405163177e802f60e01b81526001600160a01b03831660048201526024810182905260440161061c565b611e2f8282611075565b6105f25760405163e2517d3f60e01b81526001600160a01b03821660048201526024810183905260440161061c565b611e688383611f8f565b61078a6000848484611af8565b60606000611e8283611ff4565b60010190506000816001600160401b03811115611ea157611ea16123ed565b6040519080825280601f01601f191660200182016040528015611ecb576020820181803683370190505b5090508181016020015b600019016f181899199a1a9b1b9c1cb0b131b232b360811b600a86061a8153600a8504945084611ed557509392505050565b60006001600160e01b03198216632483248360e11b14806105265750610526826120cc565b60006001600160a01b038316158015906114685750826001600160a01b0316846001600160a01b03161480611f665750611f6684846115d9565b806114685750506000908152600460205260409020546001600160a01b03908116911614919050565b6001600160a01b038216611fb957604051633250574960e11b81526000600482015260240161061c565b6000611fc783836000611672565b90506001600160a01b0381161561078a576040516339e3563760e11b81526000600482015260240161061c565b60008072184f03e93ff9f4daa797ed6e38ed64bf6a1f0160401b83106120335772184f03e93ff9f4daa797ed6e38ed64bf6a1f0160401b830492506040015b6d04ee2d6d415b85acef8100000000831061205f576d04ee2d6d415b85acef8100000000830492506020015b662386f26fc10000831061207d57662386f26fc10000830492506010015b6305f5e1008310612095576305f5e100830492506008015b61271083106120a957612710830492506004015b606483106120bb576064830492506002015b600a83106105265760010192915050565b60006001600160e01b031982166380ac58cd60e01b14806120fd57506001600160e01b03198216635b5e139f60e01b145b8061052657506301ffc9a760e01b6001600160e01b0319831614610526565b6001600160e01b03198116811461177557600080fd5b60006020828403121561214457600080fd5b8135611c8f8161211c565b60005b8381101561216a578181015183820152602001612152565b50506000910152565b6000815180845261218b81602086016020860161214f565b601f01601f19169290920160200192915050565b602081526000611c8f6020830184612173565b6000602082840312156121c457600080fd5b5035919050565b80356001600160a01b03811681146121e257600080fd5b919050565b600080604083850312156121fa57600080fd5b612203836121cb565b946020939093013593505050565b60008060006060848603121561222657600080fd5b61222f846121cb565b925061223d602085016121cb565b9150604084013590509250925092565b6000806040838503121561226057600080fd5b50508035926020909101359150565b6000806040838503121561228257600080fd5b82359150612292602084016121cb565b90509250929050565b60008282518085526020808601955060208260051b8401016020860160005b848110156122e857601f198684030189526122d6838351612173565b988401989250908301906001016122ba565b5090979650505050505050565b60008151808452602080850194506020840160005b838110156123265781518752958201959082019060010161230a565b509495945050505050565b60006101008a835280602084015261234b8184018b61229b565b9050828103604084015261235f818a61229b565b90508281036060840152612373818961229b565b90508281036080840152612387818861229b565b905082810360a084015261239b81876122f5565b905082810360c08401526123af81866122f5565b905082810360e08401526123c3818561229b565b9b9a5050505050505050505050565b6000602082840312156123e457600080fd5b611c8f826121cb565b634e487b7160e01b600052604160045260246000fd5b604051601f8201601f191681016001600160401b038111828210171561242b5761242b6123ed565b604052919050565b60006001600160401b0383111561244c5761244c6123ed565b61245f601f8401601f1916602001612403565b905082815283838301111561247357600080fd5b828260208301376000602084830101529392505050565b600082601f83011261249b57600080fd5b611c8f83833560208501612433565b600082601f8301126124bb57600080fd5b813560206001600160401b03808311156124d7576124d76123ed565b8260051b6124e6838201612403565b938452858101830193838101908886111561250057600080fd5b84880192505b8583101561253c5782358481111561251e5760008081fd5b61252c8a87838c010161248a565b8352509184019190840190612506565b98975050505050505050565b80356001600160601b03811681146121e257600080fd5b600080600080600080600080610100898b03121561257c57600080fd5b88356001600160401b038082111561259357600080fd5b61259f8c838d0161248a565b995060208b01359150808211156125b557600080fd5b6125c18c838d016124aa565b985060408b01359150808211156125d757600080fd5b6125e38c838d0161248a565b975060608b01359150808211156125f957600080fd5b6126058c838d0161248a565b965060808b013591508082111561261b57600080fd5b506126288b828c0161248a565b94505060a0890135925060c0890135915061264560e08a01612548565b90509295985092959890939650565b600080600080600060a0868803121561266c57600080fd5b8535945060208601356001600160401b038082111561268a57600080fd5b61269689838a0161248a565b955060408801359150808211156126ac57600080fd5b6126b889838a0161248a565b945060608801359150808211156126ce57600080fd5b506126db8882890161248a565b95989497509295608001359392505050565b6000806040838503121561270057600080fd5b612709836121cb565b91506020830135801515811461271e57600080fd5b809150509250929050565b6000806000806080858703121561273f57600080fd5b612748856121cb565b9350612756602086016121cb565b92506040850135915060608501356001600160401b0381111561277857600080fd5b8501601f8101871361278957600080fd5b61279887823560208401612433565b91505092959194509250565b600080604083850312156127b757600080fd5b8235915060208301356001600160401b038111156127d457600080fd5b6127e08582860161248a565b9150509250929050565b600080604083850312156127fd57600080fd5b612806836121cb565b9150612292602084016121cb565b600181811c9082168061282857607f821691505b60208210810361284857634e487b7160e01b600052602260045260246000fd5b50919050565b634e487b7160e01b600052601160045260246000fd5b80820281158282048414176105265761052661284e565b60008261289857634e487b7160e01b600052601260045260246000fd5b500490565b634e487b7160e01b600052603260045260246000fd5b6000600182016128c5576128c561284e565b5060010190565b601f82111561078a576000816000526020600020601f850160051c810160208610156128f55750805b601f850160051c820191505b8181101561291457828155600101612901565b505050505050565b81516001600160401b03811115612935576129356123ed565b612949816129438454612814565b846128cc565b602080601f83116001811461297e57600084156129665750858301515b600019600386901b1c1916600185901b178555612914565b600085815260208120601f198616915b828110156129ad5788860151825594840194600190910190840161298e565b50858210156129cb5787850151600019600388901b60f8161c191681555b5050505050600190811b01905550565b6040815260006129ee6040830185612173565b8281036020840152612a008185612173565b95945050505050565b60008351612a1b81846020880161214f565b835190830190612a2f81836020880161214f565b01949350505050565b6001600160a01b0385811682528416602082015260408101839052608060608201819052600090612a6b90830184612173565b9695505050505050565b600060208284031215612a8757600080fd5b8151611c8f8161211c56fea264697066735822122016b3b959165e5c375c8b1155e14ab4cbf42c3d1e888fda7846857650a96f0cc264736f6c63430008160033","opcodes":"PUSH1 0x80 PUSH1 0x40 MSTORE CALLVALUE DUP1 ISZERO PUSH2 0x10 JUMPI PUSH1 0x0 DUP1 REVERT JUMPDEST POP PUSH1 0x40 MLOAD PUSH2 0x3074 CODESIZE SUB DUP1 PUSH2 0x3074 DUP4 CODECOPY DUP2 ADD PUSH1 0x40 DUP2 SWAP1 MSTORE PUSH2 0x2F SWAP2 PUSH2 0x162 JUMP JUMPDEST DUP1 PUSH1 0x40 MLOAD PUSH2 0x3C SWAP1 PUSH2 0x155 JUMP JUMPDEST PUSH1 0x1 PUSH1 0x1 PUSH1 0xA0 SHL SUB SWAP1 SWAP2 AND DUP2 MSTORE PUSH1 0x20 ADD PUSH1 0x40 MLOAD DUP1 SWAP2 SUB SWAP1 PUSH1 0x0 CREATE DUP1 ISZERO DUP1 ISZERO PUSH2 0x68 JUMPI RETURNDATASIZE PUSH1 0x0 DUP1 RETURNDATACOPY RETURNDATASIZE PUSH1 0x0 REVERT JUMPDEST POP PUSH1 0x0 DUP1 SLOAD PUSH1 0x1 PUSH1 0x1 PUSH1 0xA0 SHL SUB NOT AND PUSH1 0x1 PUSH1 0x1 PUSH1 0xA0 SHL SUB SWAP3 SWAP1 SWAP3 AND SWAP2 DUP3 OR SWAP1 SSTORE PUSH1 0x40 DUP1 MLOAD PUSH4 0xF394397 PUSH1 0xE4 SHL DUP2 MSTORE SWAP1 MLOAD PUSH4 0x2F2FF15D SWAP2 DUP4 SWAP2 PUSH4 0xF3943970 SWAP2 PUSH1 0x4 DUP1 DUP3 ADD SWAP3 PUSH1 0x20 SWAP3 SWAP1 SWAP2 SWAP1 DUP3 SWAP1 SUB ADD DUP2 DUP7 GAS STATICCALL ISZERO DUP1 ISZERO PUSH2 0xCB JUMPI RETURNDATASIZE PUSH1 0x0 DUP1 RETURNDATACOPY RETURNDATASIZE PUSH1 0x0 REVERT JUMPDEST POP POP POP POP PUSH1 0x40 MLOAD RETURNDATASIZE PUSH1 0x1F NOT PUSH1 0x1F DUP3 ADD AND DUP3 ADD DUP1 PUSH1 0x40 MSTORE POP DUP2 ADD SWAP1 PUSH2 0xEF SWAP2 SWAP1 PUSH2 0x192 JUMP JUMPDEST PUSH1 0x40 MLOAD PUSH1 0x1 PUSH1 0x1 PUSH1 0xE0 SHL SUB NOT PUSH1 0xE0 DUP5 SWAP1 SHL AND DUP2 MSTORE PUSH1 0x4 DUP2 ADD SWAP2 SWAP1 SWAP2 MSTORE PUSH1 0x1 PUSH1 0x1 PUSH1 0xA0 SHL SUB DUP5 AND PUSH1 0x24 DUP3 ADD MSTORE PUSH1 0x44 ADD PUSH1 0x0 PUSH1 0x40 MLOAD DUP1 DUP4 SUB DUP2 PUSH1 0x0 DUP8 DUP1 EXTCODESIZE ISZERO DUP1 ISZERO PUSH2 0x137 JUMPI PUSH1 0x0 DUP1 REVERT JUMPDEST POP GAS CALL ISZERO DUP1 ISZERO PUSH2 0x14B JUMPI RETURNDATASIZE PUSH1 0x0 DUP1 RETURNDATACOPY RETURNDATASIZE PUSH1 0x0 REVERT JUMPDEST POP POP POP POP POP PUSH2 0x1AB JUMP JUMPDEST PUSH2 0x2E13 DUP1 PUSH2 0x261 DUP4 CODECOPY ADD SWAP1 JUMP JUMPDEST PUSH1 0x0 PUSH1 0x20 DUP3 DUP5 SUB SLT ISZERO PUSH2 0x174 JUMPI PUSH1 0x0 DUP1 REVERT JUMPDEST DUP2 MLOAD PUSH1 0x1 PUSH1 0x1 PUSH1 0xA0 SHL SUB DUP2 AND DUP2 EQ PUSH2 0x18B JUMPI PUSH1 0x0 DUP1 REVERT JUMPDEST SWAP4 SWAP3 POP POP POP JUMP JUMPDEST PUSH1 0x0 PUSH1 0x20 DUP3 DUP5 SUB SLT ISZERO PUSH2 0x1A4 JUMPI PUSH1 0x0 DUP1 REVERT JUMPDEST POP MLOAD SWAP2 SWAP1 POP JUMP JUMPDEST PUSH1 0xA8 DUP1 PUSH2 0x1B9 PUSH1 0x0 CODECOPY PUSH1 0x0 RETURN INVALID PUSH1 0x80 PUSH1 0x40 MSTORE CALLVALUE DUP1 ISZERO PUSH1 0xF JUMPI PUSH1 0x0 DUP1 REVERT JUMPDEST POP PUSH1 0x4 CALLDATASIZE LT PUSH1 0x32 JUMPI PUSH1 0x0 CALLDATALOAD PUSH1 0xE0 SHR DUP1 PUSH4 0xB9618478 EQ PUSH1 0x37 JUMPI DUP1 PUSH4 0xD56D229D EQ PUSH1 0x60 JUMPI JUMPDEST PUSH1 0x0 DUP1 REVERT JUMPDEST PUSH1 0x0 SLOAD PUSH1 0x1 PUSH1 0x1 PUSH1 0xA0 SHL SUB AND JUMPDEST PUSH1 0x40 MLOAD PUSH1 0x1 PUSH1 0x1 PUSH1 0xA0 SHL SUB SWAP1 SWAP2 AND DUP2 MSTORE PUSH1 0x20 ADD PUSH1 0x40 MLOAD DUP1 SWAP2 SUB SWAP1 RETURN JUMPDEST PUSH1 0x0 SLOAD PUSH1 0x44 SWAP1 PUSH1 0x1 PUSH1 0x1 PUSH1 0xA0 SHL SUB AND DUP2 JUMP INVALID LOG2 PUSH5 0x6970667358 0x22 SLT KECCAK256 PC ORIGIN PUSH23 0xBC9C7302E2F92394A8B7E4137BAFF3E9D5165AE456EB2B 0x29 EQ DUP5 PUSH15 0x5F3464736F6C634300081600336080 PUSH1 0x40 MSTORE PUSH1 0x1 PUSH1 0xA SSTORE CALLVALUE DUP1 ISZERO PUSH3 0x16 JUMPI PUSH1 0x0 DUP1 REVERT JUMPDEST POP PUSH1 0x40 MLOAD PUSH3 0x2E13 CODESIZE SUB DUP1 PUSH3 0x2E13 DUP4 CODECOPY DUP2 ADD PUSH1 0x40 DUP2 SWAP1 MSTORE PUSH3 0x39 SWAP2 PUSH3 0x196 JUMP JUMPDEST PUSH1 0x40 MLOAD DUP1 PUSH1 0x40 ADD PUSH1 0x40 MSTORE DUP1 PUSH1 0xE DUP2 MSTORE PUSH1 0x20 ADD PUSH14 0x4661697254726164654265616E73 PUSH1 0x90 SHL DUP2 MSTORE POP PUSH1 0x40 MLOAD DUP1 PUSH1 0x40 ADD PUSH1 0x40 MSTORE DUP1 PUSH1 0x3 DUP2 MSTORE PUSH1 0x20 ADD PUSH3 0x232A21 PUSH1 0xE9 SHL DUP2 MSTORE POP DUP2 PUSH1 0x0 SWAP1 DUP2 PUSH3 0x8D SWAP2 SWAP1 PUSH3 0x26F JUMP JUMPDEST POP PUSH1 0x1 PUSH3 0x9C DUP3 DUP3 PUSH3 0x26F JUMP JUMPDEST POP PUSH3 0xAE SWAP2 POP PUSH1 0x0 SWAP1 POP DUP3 PUSH3 0xE3 JUMP JUMPDEST POP PUSH3 0xDB PUSH32 0xA49807205CE4D355092EF5A8A18F56E8913CF4A201FBE287825B095693C21775 DUP3 PUSH3 0xE3 JUMP JUMPDEST POP POP PUSH3 0x33B JUMP JUMPDEST PUSH1 0x0 DUP3 DUP2 MSTORE PUSH1 0x7 PUSH1 0x20 SWAP1 DUP2 MSTORE PUSH1 0x40 DUP1 DUP4 KECCAK256 PUSH1 0x1 PUSH1 0x1 PUSH1 0xA0 SHL SUB DUP6 AND DUP5 MSTORE SWAP1 SWAP2 MSTORE DUP2 KECCAK256 SLOAD PUSH1 0xFF AND PUSH3 0x18C JUMPI PUSH1 0x0 DUP4 DUP2 MSTORE PUSH1 0x7 PUSH1 0x20 SWAP1 DUP2 MSTORE PUSH1 0x40 DUP1 DUP4 KECCAK256 PUSH1 0x1 PUSH1 0x1 PUSH1 0xA0 SHL SUB DUP7 AND DUP5 MSTORE SWAP1 SWAP2 MSTORE SWAP1 KECCAK256 DUP1 SLOAD PUSH1 0xFF NOT AND PUSH1 0x1 OR SWAP1 SSTORE PUSH3 0x143 CALLER SWAP1 JUMP JUMPDEST PUSH1 0x1 PUSH1 0x1 PUSH1 0xA0 SHL SUB AND DUP3 PUSH1 0x1 PUSH1 0x1 PUSH1 0xA0 SHL SUB AND DUP5 PUSH32 0x2F8788117E7EFF1D82E926EC794901D17C78024A50270940304540A733656F0D PUSH1 0x40 MLOAD PUSH1 0x40 MLOAD DUP1 SWAP2 SUB SWAP1 LOG4 POP PUSH1 0x1 PUSH3 0x190 JUMP JUMPDEST POP PUSH1 0x0 JUMPDEST SWAP3 SWAP2 POP POP JUMP JUMPDEST PUSH1 0x0 PUSH1 0x20 DUP3 DUP5 SUB SLT ISZERO PUSH3 0x1A9 JUMPI PUSH1 0x0 DUP1 REVERT JUMPDEST DUP2 MLOAD PUSH1 0x1 PUSH1 0x1 PUSH1 0xA0 SHL SUB DUP2 AND DUP2 EQ PUSH3 0x1C1 JUMPI PUSH1 0x0 DUP1 REVERT JUMPDEST SWAP4 SWAP3 POP POP POP JUMP JUMPDEST PUSH4 0x4E487B71 PUSH1 0xE0 SHL PUSH1 0x0 MSTORE PUSH1 0x41 PUSH1 0x4 MSTORE PUSH1 0x24 PUSH1 0x0 REVERT JUMPDEST PUSH1 0x1 DUP2 DUP2 SHR SWAP1 DUP3 AND DUP1 PUSH3 0x1F3 JUMPI PUSH1 0x7F DUP3 AND SWAP2 POP JUMPDEST PUSH1 0x20 DUP3 LT DUP2 SUB PUSH3 0x214 JUMPI PUSH4 0x4E487B71 PUSH1 0xE0 SHL PUSH1 0x0 MSTORE PUSH1 0x22 PUSH1 0x4 MSTORE PUSH1 0x24 PUSH1 0x0 REVERT JUMPDEST POP SWAP2 SWAP1 POP JUMP JUMPDEST PUSH1 0x1F DUP3 GT ISZERO PUSH3 0x26A JUMPI PUSH1 0x0 DUP2 PUSH1 0x0 MSTORE PUSH1 0x20 PUSH1 0x0 KECCAK256 PUSH1 0x1F DUP6 ADD PUSH1 0x5 SHR DUP2 ADD PUSH1 0x20 DUP7 LT ISZERO PUSH3 0x245 JUMPI POP DUP1 JUMPDEST PUSH1 0x1F DUP6 ADD PUSH1 0x5 SHR DUP3 ADD SWAP2 POP JUMPDEST DUP2 DUP2 LT ISZERO PUSH3 0x266 JUMPI DUP3 DUP2 SSTORE PUSH1 0x1 ADD PUSH3 0x251 JUMP JUMPDEST POP POP POP JUMPDEST POP POP POP JUMP JUMPDEST DUP2 MLOAD PUSH1 0x1 PUSH1 0x1 PUSH1 0x40 SHL SUB DUP2 GT ISZERO PUSH3 0x28B JUMPI PUSH3 0x28B PUSH3 0x1C8 JUMP JUMPDEST PUSH3 0x2A3 DUP2 PUSH3 0x29C DUP5 SLOAD PUSH3 0x1DE JUMP JUMPDEST DUP5 PUSH3 0x21A JUMP JUMPDEST PUSH1 0x20 DUP1 PUSH1 0x1F DUP4 GT PUSH1 0x1 DUP2 EQ PUSH3 0x2DB JUMPI PUSH1 0x0 DUP5 ISZERO PUSH3 0x2C2 JUMPI POP DUP6 DUP4 ADD MLOAD JUMPDEST PUSH1 0x0 NOT PUSH1 0x3 DUP7 SWAP1 SHL SHR NOT AND PUSH1 0x1 DUP6 SWAP1 SHL OR DUP6 SSTORE PUSH3 0x266 JUMP JUMPDEST PUSH1 0x0 DUP6 DUP2 MSTORE PUSH1 0x20 DUP2 KECCAK256 PUSH1 0x1F NOT DUP7 AND SWAP2 JUMPDEST DUP3 DUP2 LT ISZERO PUSH3 0x30C JUMPI DUP9 DUP7 ADD MLOAD DUP3 SSTORE SWAP5 DUP5 ADD SWAP5 PUSH1 0x1 SWAP1 SWAP2 ADD SWAP1 DUP5 ADD PUSH3 0x2EB JUMP JUMPDEST POP DUP6 DUP3 LT ISZERO PUSH3 0x32B JUMPI DUP8 DUP6 ADD MLOAD PUSH1 0x0 NOT PUSH1 0x3 DUP9 SWAP1 SHL PUSH1 0xF8 AND SHR NOT AND DUP2 SSTORE JUMPDEST POP POP POP POP POP PUSH1 0x1 SWAP1 DUP2 SHL ADD SWAP1 SSTORE POP JUMP JUMPDEST PUSH2 0x2AC8 DUP1 PUSH3 0x34B PUSH1 0x0 CODECOPY PUSH1 0x0 RETURN INVALID PUSH1 0x80 PUSH1 0x40 MSTORE CALLVALUE DUP1 ISZERO PUSH2 0x10 JUMPI PUSH1 0x0 DUP1 REVERT JUMPDEST POP PUSH1 0x4 CALLDATASIZE LT PUSH2 0x1DA JUMPI PUSH1 0x0 CALLDATALOAD PUSH1 0xE0 SHR DUP1 PUSH4 0x75B238FC GT PUSH2 0x104 JUMPI DUP1 PUSH4 0xB32C4D8D GT PUSH2 0xA2 JUMPI DUP1 PUSH4 0xD547741F GT PUSH2 0x71 JUMPI DUP1 PUSH4 0xD547741F EQ PUSH2 0x4A7 JUMPI DUP1 PUSH4 0xDFE25239 EQ PUSH2 0x4BA JUMPI DUP1 PUSH4 0xE985E9C5 EQ PUSH2 0x4E1 JUMPI DUP1 PUSH4 0xF3943970 EQ PUSH2 0x4F4 JUMPI PUSH1 0x0 DUP1 REVERT JUMPDEST DUP1 PUSH4 0xB32C4D8D EQ PUSH2 0x40B JUMPI DUP1 PUSH4 0xB88D4FDE EQ PUSH2 0x46E JUMPI DUP1 PUSH4 0xC87B56DD EQ PUSH2 0x481 JUMPI DUP1 PUSH4 0xCCB1173B EQ PUSH2 0x494 JUMPI PUSH1 0x0 DUP1 REVERT JUMPDEST DUP1 PUSH4 0x95D89B41 GT PUSH2 0xDE JUMPI DUP1 PUSH4 0x95D89B41 EQ PUSH2 0x3D5 JUMPI DUP1 PUSH4 0xA19A3FB3 EQ PUSH2 0x3DD JUMPI DUP1 PUSH4 0xA217FDDF EQ PUSH2 0x3F0 JUMPI DUP1 PUSH4 0xA22CB465 EQ PUSH2 0x3F8 JUMPI PUSH1 0x0 DUP1 REVERT JUMPDEST DUP1 PUSH4 0x75B238FC EQ PUSH2 0x388 JUMPI DUP1 PUSH4 0x805E6B07 EQ PUSH2 0x3AF JUMPI DUP1 PUSH4 0x91D14854 EQ PUSH2 0x3C2 JUMPI PUSH1 0x0 DUP1 REVERT JUMPDEST DUP1 PUSH4 0x2A55205A GT PUSH2 0x17C JUMPI DUP1 PUSH4 0x5AC44282 GT PUSH2 0x14B JUMPI DUP1 PUSH4 0x5AC44282 EQ PUSH2 0x332 JUMPI DUP1 PUSH4 0x6352211E EQ PUSH2 0x359 JUMPI DUP1 PUSH4 0x70A08231 EQ PUSH2 0x36C JUMPI DUP1 PUSH4 0x75794A3C EQ PUSH2 0x37F JUMPI PUSH1 0x0 DUP1 REVERT JUMPDEST DUP1 PUSH4 0x2A55205A EQ PUSH2 0x2C7 JUMPI DUP1 PUSH4 0x2F2FF15D EQ PUSH2 0x2F9 JUMPI DUP1 PUSH4 0x36568ABE EQ PUSH2 0x30C JUMPI DUP1 PUSH4 0x42842E0E EQ PUSH2 0x31F JUMPI PUSH1 0x0 DUP1 REVERT JUMPDEST DUP1 PUSH4 0x81812FC GT PUSH2 0x1B8 JUMPI DUP1 PUSH4 0x81812FC EQ PUSH2 0x251 JUMPI DUP1 PUSH4 0x95EA7B3 EQ PUSH2 0x27C JUMPI DUP1 PUSH4 0x23B872DD EQ PUSH2 0x291 JUMPI DUP1 PUSH4 0x248A9CA3 EQ PUSH2 0x2A4 JUMPI PUSH1 0x0 DUP1 REVERT JUMPDEST DUP1 PUSH4 0x1D0216C EQ PUSH2 0x1DF JUMPI DUP1 PUSH4 0x1FFC9A7 EQ PUSH2 0x219 JUMPI DUP1 PUSH4 0x6FDDE03 EQ PUSH2 0x23C JUMPI JUMPDEST PUSH1 0x0 DUP1 REVERT JUMPDEST PUSH2 0x206 PUSH32 0x1F0426C2589E5C3EA5F5996E2A4371CA21EDD86514B6679C9DD135D7C85B28BF DUP2 JUMP JUMPDEST PUSH1 0x40 MLOAD SWAP1 DUP2 MSTORE PUSH1 0x20 ADD JUMPDEST PUSH1 0x40 MLOAD DUP1 SWAP2 SUB SWAP1 RETURN JUMPDEST PUSH2 0x22C PUSH2 0x227 CALLDATASIZE PUSH1 0x4 PUSH2 0x2132 JUMP JUMPDEST PUSH2 0x51B JUMP JUMPDEST PUSH1 0x40 MLOAD SWAP1 ISZERO ISZERO DUP2 MSTORE PUSH1 0x20 ADD PUSH2 0x210 JUMP JUMPDEST PUSH2 0x244 PUSH2 0x52C JUMP JUMPDEST PUSH1 0x40 MLOAD PUSH2 0x210 SWAP2 SWAP1 PUSH2 0x219F JUMP JUMPDEST PUSH2 0x264 PUSH2 0x25F CALLDATASIZE PUSH1 0x4 PUSH2 0x21B2 JUMP JUMPDEST PUSH2 0x5BE JUMP JUMPDEST PUSH1 0x40 MLOAD PUSH1 0x1 PUSH1 0x1 PUSH1 0xA0 SHL SUB SWAP1 SWAP2 AND DUP2 MSTORE PUSH1 0x20 ADD PUSH2 0x210 JUMP JUMPDEST PUSH2 0x28F PUSH2 0x28A CALLDATASIZE PUSH1 0x4 PUSH2 0x21E7 JUMP JUMPDEST PUSH2 0x5E7 JUMP JUMPDEST STOP JUMPDEST PUSH2 0x28F PUSH2 0x29F CALLDATASIZE PUSH1 0x4 PUSH2 0x2211 JUMP JUMPDEST PUSH2 0x5F6 JUMP JUMPDEST PUSH2 0x206 PUSH2 0x2B2 CALLDATASIZE PUSH1 0x4 PUSH2 0x21B2 JUMP JUMPDEST PUSH1 0x0 SWAP1 DUP2 MSTORE PUSH1 0x7 PUSH1 0x20 MSTORE PUSH1 0x40 SWAP1 KECCAK256 PUSH1 0x1 ADD SLOAD SWAP1 JUMP JUMPDEST PUSH2 0x2DA PUSH2 0x2D5 CALLDATASIZE PUSH1 0x4 PUSH2 0x224D JUMP JUMPDEST PUSH2 0x686 JUMP JUMPDEST PUSH1 0x40 DUP1 MLOAD PUSH1 0x1 PUSH1 0x1 PUSH1 0xA0 SHL SUB SWAP1 SWAP4 AND DUP4 MSTORE PUSH1 0x20 DUP4 ADD SWAP2 SWAP1 SWAP2 MSTORE ADD PUSH2 0x210 JUMP JUMPDEST PUSH2 0x28F PUSH2 0x307 CALLDATASIZE PUSH1 0x4 PUSH2 0x226F JUMP JUMPDEST PUSH2 0x732 JUMP JUMPDEST PUSH2 0x28F PUSH2 0x31A CALLDATASIZE PUSH1 0x4 PUSH2 0x226F JUMP JUMPDEST PUSH2 0x757 JUMP JUMPDEST PUSH2 0x28F PUSH2 0x32D CALLDATASIZE PUSH1 0x4 PUSH2 0x2211 JUMP JUMPDEST PUSH2 0x78F JUMP JUMPDEST PUSH2 0x345 PUSH2 0x340 CALLDATASIZE PUSH1 0x4 PUSH2 0x21B2 JUMP JUMPDEST PUSH2 0x7AA JUMP JUMPDEST PUSH1 0x40 MLOAD PUSH2 0x210 SWAP9 SWAP8 SWAP7 SWAP6 SWAP5 SWAP4 SWAP3 SWAP2 SWAP1 PUSH2 0x2331 JUMP JUMPDEST PUSH2 0x264 PUSH2 0x367 CALLDATASIZE PUSH1 0x4 PUSH2 0x21B2 JUMP JUMPDEST PUSH2 0xDF4 JUMP JUMPDEST PUSH2 0x206 PUSH2 0x37A CALLDATASIZE PUSH1 0x4 PUSH2 0x23D2 JUMP JUMPDEST PUSH2 0xDFF JUMP JUMPDEST PUSH2 0x206 PUSH1 0xA SLOAD DUP2 JUMP JUMPDEST PUSH2 0x206 PUSH32 0xA49807205CE4D355092EF5A8A18F56E8913CF4A201FBE287825B095693C21775 DUP2 JUMP JUMPDEST PUSH2 0x28F PUSH2 0x3BD CALLDATASIZE PUSH1 0x4 PUSH2 0x255F JUMP JUMPDEST PUSH2 0xE47 JUMP JUMPDEST PUSH2 0x22C PUSH2 0x3D0 CALLDATASIZE PUSH1 0x4 PUSH2 0x226F JUMP JUMPDEST PUSH2 0x1075 JUMP JUMPDEST PUSH2 0x244 PUSH2 0x10A0 JUMP JUMPDEST PUSH2 0x28F PUSH2 0x3EB CALLDATASIZE PUSH1 0x4 PUSH2 0x2654 JUMP JUMPDEST PUSH2 0x10AF JUMP JUMPDEST PUSH2 0x206 PUSH1 0x0 DUP2 JUMP JUMPDEST PUSH2 0x28F PUSH2 0x406 CALLDATASIZE PUSH1 0x4 PUSH2 0x26ED JUMP JUMPDEST PUSH2 0x133D JUMP JUMPDEST PUSH2 0x446 PUSH2 0x419 CALLDATASIZE PUSH1 0x4 PUSH2 0x21B2 JUMP JUMPDEST PUSH1 0xB PUSH1 0x20 MSTORE PUSH1 0x0 SWAP1 DUP2 MSTORE PUSH1 0x40 SWAP1 KECCAK256 DUP1 SLOAD PUSH1 0x3 DUP3 ADD SLOAD PUSH1 0x4 SWAP1 SWAP3 ADD SLOAD SWAP1 SWAP2 SWAP1 PUSH1 0xFF DUP1 DUP3 AND SWAP2 PUSH2 0x100 SWAP1 DIV AND DUP5 JUMP JUMPDEST PUSH1 0x40 DUP1 MLOAD SWAP5 DUP6 MSTORE PUSH1 0x20 DUP6 ADD SWAP4 SWAP1 SWAP4 MSTORE SWAP1 ISZERO ISZERO SWAP2 DUP4 ADD SWAP2 SWAP1 SWAP2 MSTORE ISZERO ISZERO PUSH1 0x60 DUP3 ADD MSTORE PUSH1 0x80 ADD PUSH2 0x210 JUMP JUMPDEST PUSH2 0x28F PUSH2 0x47C CALLDATASIZE PUSH1 0x4 PUSH2 0x2729 JUMP JUMPDEST PUSH2 0x1348 JUMP JUMPDEST PUSH2 0x244 PUSH2 0x48F CALLDATASIZE PUSH1 0x4 PUSH2 0x21B2 JUMP JUMPDEST PUSH2 0x135F JUMP JUMPDEST PUSH2 0x28F PUSH2 0x4A2 CALLDATASIZE PUSH1 0x4 PUSH2 0x27A4 JUMP JUMPDEST PUSH2 0x1470 JUMP JUMPDEST PUSH2 0x28F PUSH2 0x4B5 CALLDATASIZE PUSH1 0x4 PUSH2 0x226F JUMP JUMPDEST PUSH2 0x15B4 JUMP JUMPDEST PUSH2 0x206 PUSH32 0x6833E94B5193C7A314AF51094165D7809E1989F393A17EEA242DE8D464828263 DUP2 JUMP JUMPDEST PUSH2 0x22C PUSH2 0x4EF CALLDATASIZE PUSH1 0x4 PUSH2 0x27EA JUMP JUMPDEST PUSH2 0x15D9 JUMP JUMPDEST PUSH2 0x206 PUSH32 0x7C6181838A71A779E445600D4C6ECBE16BACF2B3C5BDA69C29FADA66D1B645D1 DUP2 JUMP JUMPDEST PUSH1 0x0 PUSH2 0x526 DUP3 PUSH2 0x1607 JUMP JUMPDEST SWAP3 SWAP2 POP POP JUMP JUMPDEST PUSH1 0x60 PUSH1 0x0 DUP1 SLOAD PUSH2 0x53B SWAP1 PUSH2 0x2814 JUMP JUMPDEST DUP1 PUSH1 0x1F ADD PUSH1 0x20 DUP1 SWAP2 DIV MUL PUSH1 0x20 ADD PUSH1 0x40 MLOAD SWAP1 DUP2 ADD PUSH1 0x40 MSTORE DUP1 SWAP3 SWAP2 SWAP1 DUP2 DUP2 MSTORE PUSH1 0x20 ADD DUP3 DUP1 SLOAD PUSH2 0x567 SWAP1 PUSH2 0x2814 JUMP JUMPDEST DUP1 ISZERO PUSH2 0x5B4 JUMPI DUP1 PUSH1 0x1F LT PUSH2 0x589 JUMPI PUSH2 0x100 DUP1 DUP4 SLOAD DIV MUL DUP4 MSTORE SWAP2 PUSH1 0x20 ADD SWAP2 PUSH2 0x5B4 JUMP JUMPDEST DUP3 ADD SWAP2 SWAP1 PUSH1 0x0 MSTORE PUSH1 0x20 PUSH1 0x0 KECCAK256 SWAP1 JUMPDEST DUP2 SLOAD DUP2 MSTORE SWAP1 PUSH1 0x1 ADD SWAP1 PUSH1 0x20 ADD DUP1 DUP4 GT PUSH2 0x597 JUMPI DUP3 SWAP1 SUB PUSH1 0x1F AND DUP3 ADD SWAP2 JUMPDEST POP POP POP POP POP SWAP1 POP SWAP1 JUMP JUMPDEST PUSH1 0x0 PUSH2 0x5C9 DUP3 PUSH2 0x162C JUMP JUMPDEST POP PUSH1 0x0 DUP3 DUP2 MSTORE PUSH1 0x4 PUSH1 0x20 MSTORE PUSH1 0x40 SWAP1 KECCAK256 SLOAD PUSH1 0x1 PUSH1 0x1 PUSH1 0xA0 SHL SUB AND PUSH2 0x526 JUMP JUMPDEST PUSH2 0x5F2 DUP3 DUP3 CALLER PUSH2 0x1665 JUMP JUMPDEST POP POP JUMP JUMPDEST PUSH1 0x1 PUSH1 0x1 PUSH1 0xA0 SHL SUB DUP3 AND PUSH2 0x625 JUMPI PUSH1 0x40 MLOAD PUSH4 0x32505749 PUSH1 0xE1 SHL DUP2 MSTORE PUSH1 0x0 PUSH1 0x4 DUP3 ADD MSTORE PUSH1 0x24 ADD JUMPDEST PUSH1 0x40 MLOAD DUP1 SWAP2 SUB SWAP1 REVERT JUMPDEST PUSH1 0x0 PUSH2 0x632 DUP4 DUP4 CALLER PUSH2 0x1672 JUMP JUMPDEST SWAP1 POP DUP4 PUSH1 0x1 PUSH1 0x1 PUSH1 0xA0 SHL SUB AND DUP2 PUSH1 0x1 PUSH1 0x1 PUSH1 0xA0 SHL SUB AND EQ PUSH2 0x680 JUMPI PUSH1 0x40 MLOAD PUSH4 0x64283D7B PUSH1 0xE0 SHL DUP2 MSTORE PUSH1 0x1 PUSH1 0x1 PUSH1 0xA0 SHL SUB DUP1 DUP7 AND PUSH1 0x4 DUP4 ADD MSTORE PUSH1 0x24 DUP3 ADD DUP5 SWAP1 MSTORE DUP3 AND PUSH1 0x44 DUP3 ADD MSTORE PUSH1 0x64 ADD PUSH2 0x61C JUMP JUMPDEST POP POP POP POP JUMP JUMPDEST PUSH1 0x0 DUP3 DUP2 MSTORE PUSH1 0x9 PUSH1 0x20 SWAP1 DUP2 MSTORE PUSH1 0x40 DUP1 DUP4 KECCAK256 DUP2 MLOAD DUP1 DUP4 ADD SWAP1 SWAP3 MSTORE SLOAD PUSH1 0x1 PUSH1 0x1 PUSH1 0xA0 SHL SUB DUP2 AND DUP1 DUP4 MSTORE PUSH1 0x1 PUSH1 0xA0 SHL SWAP1 SWAP2 DIV PUSH1 0x1 PUSH1 0x1 PUSH1 0x60 SHL SUB AND SWAP3 DUP3 ADD SWAP3 SWAP1 SWAP3 MSTORE DUP3 SWAP2 PUSH2 0x6FB JUMPI POP PUSH1 0x40 DUP1 MLOAD DUP1 DUP3 ADD SWAP1 SWAP2 MSTORE PUSH1 0x8 SLOAD PUSH1 0x1 PUSH1 0x1 PUSH1 0xA0 SHL SUB DUP2 AND DUP3 MSTORE PUSH1 0x1 PUSH1 0xA0 SHL SWAP1 DIV PUSH1 0x1 PUSH1 0x1 PUSH1 0x60 SHL SUB AND PUSH1 0x20 DUP3 ADD MSTORE JUMPDEST PUSH1 0x20 DUP2 ADD MLOAD PUSH1 0x0 SWAP1 PUSH2 0x2710 SWAP1 PUSH2 0x71A SWAP1 PUSH1 0x1 PUSH1 0x1 PUSH1 0x60 SHL SUB AND DUP8 PUSH2 0x2864 JUMP JUMPDEST PUSH2 0x724 SWAP2 SWAP1 PUSH2 0x287B JUMP JUMPDEST SWAP2 MLOAD SWAP7 SWAP2 SWAP6 POP SWAP1 SWAP4 POP POP POP POP JUMP JUMPDEST PUSH1 0x0 DUP3 DUP2 MSTORE PUSH1 0x7 PUSH1 0x20 MSTORE PUSH1 0x40 SWAP1 KECCAK256 PUSH1 0x1 ADD SLOAD PUSH2 0x74D DUP2 PUSH2 0x176B JUMP JUMPDEST PUSH2 0x680 DUP4 DUP4 PUSH2 0x1778 JUMP JUMPDEST PUSH1 0x1 PUSH1 0x1 PUSH1 0xA0 SHL SUB DUP2 AND CALLER EQ PUSH2 0x780 JUMPI PUSH1 0x40 MLOAD PUSH4 0x334BD919 PUSH1 0xE1 SHL DUP2 MSTORE PUSH1 0x4 ADD PUSH1 0x40 MLOAD DUP1 SWAP2 SUB SWAP1 REVERT JUMPDEST PUSH2 0x78A DUP3 DUP3 PUSH2 0x180C JUMP JUMPDEST POP POP POP JUMP JUMPDEST PUSH2 0x78A DUP4 DUP4 DUP4 PUSH1 0x40 MLOAD DUP1 PUSH1 0x20 ADD PUSH1 0x40 MSTORE DUP1 PUSH1 0x0 DUP2 MSTORE POP PUSH2 0x1348 JUMP JUMPDEST PUSH1 0x0 PUSH1 0x60 DUP1 PUSH1 0x60 DUP1 PUSH1 0x60 DUP1 PUSH1 0x60 PUSH1 0xA SLOAD DUP10 LT PUSH2 0x7F9 JUMPI PUSH1 0x40 MLOAD PUSH3 0x461BCD PUSH1 0xE5 SHL DUP2 MSTORE PUSH1 0x20 PUSH1 0x4 DUP3 ADD MSTORE PUSH1 0xE PUSH1 0x24 DUP3 ADD MSTORE PUSH14 0x111BD95CC81B9BDD08195E1A5CDD PUSH1 0x92 SHL PUSH1 0x44 DUP3 ADD MSTORE PUSH1 0x64 ADD PUSH2 0x61C JUMP JUMPDEST PUSH1 0x0 DUP10 DUP2 MSTORE PUSH1 0xB PUSH1 0x20 MSTORE PUSH1 0x40 SWAP1 KECCAK256 PUSH1 0x1 DUP2 ADD SLOAD DUP1 PUSH1 0x1 PUSH1 0x1 PUSH1 0x40 SHL SUB DUP2 GT ISZERO PUSH2 0x824 JUMPI PUSH2 0x824 PUSH2 0x23ED JUMP JUMPDEST PUSH1 0x40 MLOAD SWAP1 DUP1 DUP3 MSTORE DUP1 PUSH1 0x20 MUL PUSH1 0x20 ADD DUP3 ADD PUSH1 0x40 MSTORE DUP1 ISZERO PUSH2 0x857 JUMPI DUP2 PUSH1 0x20 ADD JUMPDEST PUSH1 0x60 DUP2 MSTORE PUSH1 0x20 ADD SWAP1 PUSH1 0x1 SWAP1 SUB SWAP1 DUP2 PUSH2 0x842 JUMPI SWAP1 POP JUMPDEST POP SWAP9 POP DUP1 PUSH1 0x1 PUSH1 0x1 PUSH1 0x40 SHL SUB DUP2 GT ISZERO PUSH2 0x872 JUMPI PUSH2 0x872 PUSH2 0x23ED JUMP JUMPDEST PUSH1 0x40 MLOAD SWAP1 DUP1 DUP3 MSTORE DUP1 PUSH1 0x20 MUL PUSH1 0x20 ADD DUP3 ADD PUSH1 0x40 MSTORE DUP1 ISZERO PUSH2 0x8A5 JUMPI DUP2 PUSH1 0x20 ADD JUMPDEST PUSH1 0x60 DUP2 MSTORE PUSH1 0x20 ADD SWAP1 PUSH1 0x1 SWAP1 SUB SWAP1 DUP2 PUSH2 0x890 JUMPI SWAP1 POP JUMPDEST POP SWAP8 POP DUP1 PUSH1 0x1 PUSH1 0x1 PUSH1 0x40 SHL SUB DUP2 GT ISZERO PUSH2 0x8C0 JUMPI PUSH2 0x8C0 PUSH2 0x23ED JUMP JUMPDEST PUSH1 0x40 MLOAD SWAP1 DUP1 DUP3 MSTORE DUP1 PUSH1 0x20 MUL PUSH1 0x20 ADD DUP3 ADD PUSH1 0x40 MSTORE DUP1 ISZERO PUSH2 0x8F3 JUMPI DUP2 PUSH1 0x20 ADD JUMPDEST PUSH1 0x60 DUP2 MSTORE PUSH1 0x20 ADD SWAP1 PUSH1 0x1 SWAP1 SUB SWAP1 DUP2 PUSH2 0x8DE JUMPI SWAP1 POP JUMPDEST POP SWAP7 POP DUP1 PUSH1 0x1 PUSH1 0x1 PUSH1 0x40 SHL SUB DUP2 GT ISZERO PUSH2 0x90E JUMPI PUSH2 0x90E PUSH2 0x23ED JUMP JUMPDEST PUSH1 0x40 MLOAD SWAP1 DUP1 DUP3 MSTORE DUP1 PUSH1 0x20 MUL PUSH1 0x20 ADD DUP3 ADD PUSH1 0x40 MSTORE DUP1 ISZERO PUSH2 0x941 JUMPI DUP2 PUSH1 0x20 ADD JUMPDEST PUSH1 0x60 DUP2 MSTORE PUSH1 0x20 ADD SWAP1 PUSH1 0x1 SWAP1 SUB SWAP1 DUP2 PUSH2 0x92C JUMPI SWAP1 POP JUMPDEST POP SWAP6 POP DUP1 PUSH1 0x1 PUSH1 0x1 PUSH1 0x40 SHL SUB DUP2 GT ISZERO PUSH2 0x95C JUMPI PUSH2 0x95C PUSH2 0x23ED JUMP JUMPDEST PUSH1 0x40 MLOAD SWAP1 DUP1 DUP3 MSTORE DUP1 PUSH1 0x20 MUL PUSH1 0x20 ADD DUP3 ADD PUSH1 0x40 MSTORE DUP1 ISZERO PUSH2 0x985 JUMPI DUP2 PUSH1 0x20 ADD PUSH1 0x20 DUP3 MUL DUP1 CALLDATASIZE DUP4 CALLDATACOPY ADD SWAP1 POP JUMPDEST POP SWAP5 POP DUP1 PUSH1 0x1 PUSH1 0x1 PUSH1 0x40 SHL SUB DUP2 GT ISZERO PUSH2 0x9A0 JUMPI PUSH2 0x9A0 PUSH2 0x23ED JUMP JUMPDEST PUSH1 0x40 MLOAD SWAP1 DUP1 DUP3 MSTORE DUP1 PUSH1 0x20 MUL PUSH1 0x20 ADD DUP3 ADD PUSH1 0x40 MSTORE DUP1 ISZERO PUSH2 0x9C9 JUMPI DUP2 PUSH1 0x20 ADD PUSH1 0x20 DUP3 MUL DUP1 CALLDATASIZE DUP4 CALLDATACOPY ADD SWAP1 POP JUMPDEST POP SWAP4 POP PUSH1 0x0 JUMPDEST DUP2 DUP2 LT ISZERO PUSH2 0xCF4 JUMPI PUSH1 0x0 DUP4 PUSH1 0x1 ADD DUP3 DUP2 SLOAD DUP2 LT PUSH2 0x9EE JUMPI PUSH2 0x9EE PUSH2 0x289D JUMP JUMPDEST SWAP1 PUSH1 0x0 MSTORE PUSH1 0x20 PUSH1 0x0 KECCAK256 SWAP1 PUSH1 0x6 MUL ADD SWAP1 POP DUP1 PUSH1 0x0 ADD DUP1 SLOAD PUSH2 0xA0D SWAP1 PUSH2 0x2814 JUMP JUMPDEST DUP1 PUSH1 0x1F ADD PUSH1 0x20 DUP1 SWAP2 DIV MUL PUSH1 0x20 ADD PUSH1 0x40 MLOAD SWAP1 DUP2 ADD PUSH1 0x40 MSTORE DUP1 SWAP3 SWAP2 SWAP1 DUP2 DUP2 MSTORE PUSH1 0x20 ADD DUP3 DUP1 SLOAD PUSH2 0xA39 SWAP1 PUSH2 0x2814 JUMP JUMPDEST DUP1 ISZERO PUSH2 0xA86 JUMPI DUP1 PUSH1 0x1F LT PUSH2 0xA5B JUMPI PUSH2 0x100 DUP1 DUP4 SLOAD DIV MUL DUP4 MSTORE SWAP2 PUSH1 0x20 ADD SWAP2 PUSH2 0xA86 JUMP JUMPDEST DUP3 ADD SWAP2 SWAP1 PUSH1 0x0 MSTORE PUSH1 0x20 PUSH1 0x0 KECCAK256 SWAP1 JUMPDEST DUP2 SLOAD DUP2 MSTORE SWAP1 PUSH1 0x1 ADD SWAP1 PUSH1 0x20 ADD DUP1 DUP4 GT PUSH2 0xA69 JUMPI DUP3 SWAP1 SUB PUSH1 0x1F AND DUP3 ADD SWAP2 JUMPDEST POP POP POP POP POP DUP12 DUP4 DUP2 MLOAD DUP2 LT PUSH2 0xA9D JUMPI PUSH2 0xA9D PUSH2 0x289D JUMP JUMPDEST PUSH1 0x20 MUL PUSH1 0x20 ADD ADD DUP2 SWAP1 MSTORE POP DUP1 PUSH1 0x1 ADD DUP1 SLOAD PUSH2 0xAB7 SWAP1 PUSH2 0x2814 JUMP JUMPDEST DUP1 PUSH1 0x1F ADD PUSH1 0x20 DUP1 SWAP2 DIV MUL PUSH1 0x20 ADD PUSH1 0x40 MLOAD SWAP1 DUP2 ADD PUSH1 0x40 MSTORE DUP1 SWAP3 SWAP2 SWAP1 DUP2 DUP2 MSTORE PUSH1 0x20 ADD DUP3 DUP1 SLOAD PUSH2 0xAE3 SWAP1 PUSH2 0x2814 JUMP JUMPDEST DUP1 ISZERO PUSH2 0xB30 JUMPI DUP1 PUSH1 0x1F LT PUSH2 0xB05 JUMPI PUSH2 0x100 DUP1 DUP4 SLOAD DIV MUL DUP4 MSTORE SWAP2 PUSH1 0x20 ADD SWAP2 PUSH2 0xB30 JUMP JUMPDEST DUP3 ADD SWAP2 SWAP1 PUSH1 0x0 MSTORE PUSH1 0x20 PUSH1 0x0 KECCAK256 SWAP1 JUMPDEST DUP2 SLOAD DUP2 MSTORE SWAP1 PUSH1 0x1 ADD SWAP1 PUSH1 0x20 ADD DUP1 DUP4 GT PUSH2 0xB13 JUMPI DUP3 SWAP1 SUB PUSH1 0x1F AND DUP3 ADD SWAP2 JUMPDEST POP POP POP POP POP DUP11 DUP4 DUP2 MLOAD DUP2 LT PUSH2 0xB47 JUMPI PUSH2 0xB47 PUSH2 0x289D JUMP JUMPDEST PUSH1 0x20 MUL PUSH1 0x20 ADD ADD DUP2 SWAP1 MSTORE POP DUP1 PUSH1 0x2 ADD DUP1 SLOAD PUSH2 0xB61 SWAP1 PUSH2 0x2814 JUMP JUMPDEST DUP1 PUSH1 0x1F ADD PUSH1 0x20 DUP1 SWAP2 DIV MUL PUSH1 0x20 ADD PUSH1 0x40 MLOAD SWAP1 DUP2 ADD PUSH1 0x40 MSTORE DUP1 SWAP3 SWAP2 SWAP1 DUP2 DUP2 MSTORE PUSH1 0x20 ADD DUP3 DUP1 SLOAD PUSH2 0xB8D SWAP1 PUSH2 0x2814 JUMP JUMPDEST DUP1 ISZERO PUSH2 0xBDA JUMPI DUP1 PUSH1 0x1F LT PUSH2 0xBAF JUMPI PUSH2 0x100 DUP1 DUP4 SLOAD DIV MUL DUP4 MSTORE SWAP2 PUSH1 0x20 ADD SWAP2 PUSH2 0xBDA JUMP JUMPDEST DUP3 ADD SWAP2 SWAP1 PUSH1 0x0 MSTORE PUSH1 0x20 PUSH1 0x0 KECCAK256 SWAP1 JUMPDEST DUP2 SLOAD DUP2 MSTORE SWAP1 PUSH1 0x1 ADD SWAP1 PUSH1 0x20 ADD DUP1 DUP4 GT PUSH2 0xBBD JUMPI DUP3 SWAP1 SUB PUSH1 0x1F AND DUP3 ADD SWAP2 JUMPDEST POP POP POP POP POP DUP10 DUP4 DUP2 MLOAD DUP2 LT PUSH2 0xBF1 JUMPI PUSH2 0xBF1 PUSH2 0x289D JUMP JUMPDEST PUSH1 0x20 MUL PUSH1 0x20 ADD ADD DUP2 SWAP1 MSTORE POP DUP1 PUSH1 0x3 ADD DUP1 SLOAD PUSH2 0xC0B SWAP1 PUSH2 0x2814 JUMP JUMPDEST DUP1 PUSH1 0x1F ADD PUSH1 0x20 DUP1 SWAP2 DIV MUL PUSH1 0x20 ADD PUSH1 0x40 MLOAD SWAP1 DUP2 ADD PUSH1 0x40 MSTORE DUP1 SWAP3 SWAP2 SWAP1 DUP2 DUP2 MSTORE PUSH1 0x20 ADD DUP3 DUP1 SLOAD PUSH2 0xC37 SWAP1 PUSH2 0x2814 JUMP JUMPDEST DUP1 ISZERO PUSH2 0xC84 JUMPI DUP1 PUSH1 0x1F LT PUSH2 0xC59 JUMPI PUSH2 0x100 DUP1 DUP4 SLOAD DIV MUL DUP4 MSTORE SWAP2 PUSH1 0x20 ADD SWAP2 PUSH2 0xC84 JUMP JUMPDEST DUP3 ADD SWAP2 SWAP1 PUSH1 0x0 MSTORE PUSH1 0x20 PUSH1 0x0 KECCAK256 SWAP1 JUMPDEST DUP2 SLOAD DUP2 MSTORE SWAP1 PUSH1 0x1 ADD SWAP1 PUSH1 0x20 ADD DUP1 DUP4 GT PUSH2 0xC67 JUMPI DUP3 SWAP1 SUB PUSH1 0x1F AND DUP3 ADD SWAP2 JUMPDEST POP POP POP POP POP DUP9 DUP4 DUP2 MLOAD DUP2 LT PUSH2 0xC9B JUMPI PUSH2 0xC9B PUSH2 0x289D JUMP JUMPDEST PUSH1 0x20 MUL PUSH1 0x20 ADD ADD DUP2 SWAP1 MSTORE POP DUP1 PUSH1 0x4 ADD SLOAD DUP8 DUP4 DUP2 MLOAD DUP2 LT PUSH2 0xCBD JUMPI PUSH2 0xCBD PUSH2 0x289D JUMP JUMPDEST PUSH1 0x20 MUL PUSH1 0x20 ADD ADD DUP2 DUP2 MSTORE POP POP DUP1 PUSH1 0x5 ADD SLOAD DUP7 DUP4 DUP2 MLOAD DUP2 LT PUSH2 0xCE0 JUMPI PUSH2 0xCE0 PUSH2 0x289D JUMP JUMPDEST PUSH1 0x20 SWAP1 DUP2 MUL SWAP2 SWAP1 SWAP2 ADD ADD MSTORE POP PUSH1 0x1 ADD PUSH2 0x9CF JUMP JUMPDEST POP DUP2 PUSH1 0x0 ADD SLOAD DUP10 DUP10 DUP10 DUP10 DUP10 DUP10 DUP9 PUSH1 0x2 ADD DUP1 DUP1 SLOAD DUP1 PUSH1 0x20 MUL PUSH1 0x20 ADD PUSH1 0x40 MLOAD SWAP1 DUP2 ADD PUSH1 0x40 MSTORE DUP1 SWAP3 SWAP2 SWAP1 DUP2 DUP2 MSTORE PUSH1 0x20 ADD PUSH1 0x0 SWAP1 JUMPDEST DUP3 DUP3 LT ISZERO PUSH2 0xDD1 JUMPI DUP4 DUP3 SWAP1 PUSH1 0x0 MSTORE PUSH1 0x20 PUSH1 0x0 KECCAK256 ADD DUP1 SLOAD PUSH2 0xD44 SWAP1 PUSH2 0x2814 JUMP JUMPDEST DUP1 PUSH1 0x1F ADD PUSH1 0x20 DUP1 SWAP2 DIV MUL PUSH1 0x20 ADD PUSH1 0x40 MLOAD SWAP1 DUP2 ADD PUSH1 0x40 MSTORE DUP1 SWAP3 SWAP2 SWAP1 DUP2 DUP2 MSTORE PUSH1 0x20 ADD DUP3 DUP1 SLOAD PUSH2 0xD70 SWAP1 PUSH2 0x2814 JUMP JUMPDEST DUP1 ISZERO PUSH2 0xDBD JUMPI DUP1 PUSH1 0x1F LT PUSH2 0xD92 JUMPI PUSH2 0x100 DUP1 DUP4 SLOAD DIV MUL DUP4 MSTORE SWAP2 PUSH1 0x20 ADD SWAP2 PUSH2 0xDBD JUMP JUMPDEST DUP3 ADD SWAP2 SWAP1 PUSH1 0x0 MSTORE PUSH1 0x20 PUSH1 0x0 KECCAK256 SWAP1 JUMPDEST DUP2 SLOAD DUP2 MSTORE SWAP1 PUSH1 0x1 ADD SWAP1 PUSH1 0x20 ADD DUP1 DUP4 GT PUSH2 0xDA0 JUMPI DUP3 SWAP1 SUB PUSH1 0x1F AND DUP3 ADD SWAP2 JUMPDEST POP POP POP POP POP DUP2 MSTORE PUSH1 0x20 ADD SWAP1 PUSH1 0x1 ADD SWAP1 PUSH2 0xD25 JUMP JUMPDEST POP POP POP POP SWAP1 POP SWAP10 POP SWAP10 POP SWAP10 POP SWAP10 POP SWAP10 POP SWAP10 POP SWAP10 POP SWAP10 POP POP POP SWAP2 SWAP4 SWAP6 SWAP8 POP SWAP2 SWAP4 SWAP6 SWAP8 JUMP JUMPDEST PUSH1 0x0 PUSH2 0x526 DUP3 PUSH2 0x162C JUMP JUMPDEST PUSH1 0x0 PUSH1 0x1 PUSH1 0x1 PUSH1 0xA0 SHL SUB DUP3 AND PUSH2 0xE2B JUMPI PUSH1 0x40 MLOAD PUSH4 0x22718AD9 PUSH1 0xE2 SHL DUP2 MSTORE PUSH1 0x0 PUSH1 0x4 DUP3 ADD MSTORE PUSH1 0x24 ADD PUSH2 0x61C JUMP JUMPDEST POP PUSH1 0x1 PUSH1 0x1 PUSH1 0xA0 SHL SUB AND PUSH1 0x0 SWAP1 DUP2 MSTORE PUSH1 0x3 PUSH1 0x20 MSTORE PUSH1 0x40 SWAP1 KECCAK256 SLOAD SWAP1 JUMP JUMPDEST PUSH32 0x7C6181838A71A779E445600D4C6ECBE16BACF2B3C5BDA69C29FADA66D1B645D1 PUSH2 0xE71 DUP2 PUSH2 0x176B JUMP JUMPDEST PUSH2 0x2710 DUP3 PUSH1 0x1 PUSH1 0x1 PUSH1 0x60 SHL SUB AND GT ISZERO PUSH2 0xEBF JUMPI PUSH1 0x40 MLOAD PUSH3 0x461BCD PUSH1 0xE5 SHL DUP2 MSTORE PUSH1 0x20 PUSH1 0x4 DUP3 ADD MSTORE PUSH1 0x10 PUSH1 0x24 DUP3 ADD MSTORE PUSH16 0xE4DEF2C2D8E8F240E8DEDE40D0D2CED PUSH1 0x83 SHL PUSH1 0x44 DUP3 ADD MSTORE PUSH1 0x64 ADD PUSH2 0x61C JUMP JUMPDEST PUSH1 0xA DUP1 SLOAD PUSH1 0x0 SWAP2 DUP3 PUSH2 0xED0 DUP4 PUSH2 0x28B3 JUMP JUMPDEST SWAP2 SWAP1 POP SSTORE SWAP1 POP PUSH2 0xEE0 CALLER DUP3 PUSH2 0x1879 JUMP JUMPDEST PUSH2 0xEEA DUP2 DUP12 PUSH2 0x1893 JUMP JUMPDEST PUSH1 0x0 DUP2 DUP2 MSTORE PUSH1 0xB PUSH1 0x20 MSTORE PUSH1 0x40 DUP2 KECCAK256 DUP3 DUP2 SSTORE PUSH1 0x3 DUP2 ADD DUP7 SWAP1 SSTORE SWAP1 JUMPDEST DUP11 MLOAD DUP2 LT ISZERO PUSH2 0xF55 JUMPI DUP2 PUSH1 0x2 ADD DUP12 DUP3 DUP2 MLOAD DUP2 LT PUSH2 0xF23 JUMPI PUSH2 0xF23 PUSH2 0x289D JUMP JUMPDEST PUSH1 0x20 SWAP1 DUP2 MUL SWAP2 SWAP1 SWAP2 ADD DUP2 ADD MLOAD DUP3 SLOAD PUSH1 0x1 DUP2 ADD DUP5 SSTORE PUSH1 0x0 SWAP4 DUP5 MSTORE SWAP2 SWAP1 SWAP3 KECCAK256 ADD SWAP1 PUSH2 0xF4C SWAP1 DUP3 PUSH2 0x291C JUMP JUMPDEST POP PUSH1 0x1 ADD PUSH2 0xF04 JUMP JUMPDEST POP PUSH1 0x40 DUP1 MLOAD PUSH2 0x100 DUP2 ADD DUP3 MSTORE PUSH1 0x6 PUSH1 0xC0 DUP3 ADD DUP2 DUP2 MSTORE PUSH6 0x2330B936B2B9 PUSH1 0xD1 SHL PUSH1 0xE0 DUP5 ADD MSTORE DUP3 MSTORE PUSH1 0x20 DUP1 DUP4 ADD DUP14 SWAP1 MSTORE SWAP3 DUP3 ADD DUP12 SWAP1 MSTORE PUSH1 0x60 DUP3 ADD DUP11 SWAP1 MSTORE PUSH1 0x80 DUP3 ADD DUP10 SWAP1 MSTORE TIMESTAMP PUSH1 0xA0 DUP4 ADD MSTORE PUSH1 0x1 DUP1 DUP6 ADD DUP1 SLOAD SWAP2 DUP3 ADD DUP2 SSTORE PUSH1 0x0 SWAP1 DUP2 MSTORE SWAP4 SWAP1 SWAP4 KECCAK256 DUP3 MLOAD SWAP3 SWAP4 SWAP1 SWAP2 MUL ADD SWAP1 DUP2 SWAP1 PUSH2 0xFC7 SWAP1 DUP3 PUSH2 0x291C JUMP JUMPDEST POP PUSH1 0x20 DUP3 ADD MLOAD PUSH1 0x1 DUP3 ADD SWAP1 PUSH2 0xFDC SWAP1 DUP3 PUSH2 0x291C JUMP JUMPDEST POP PUSH1 0x40 DUP3 ADD MLOAD PUSH1 0x2 DUP3 ADD SWAP1 PUSH2 0xFF1 SWAP1 DUP3 PUSH2 0x291C JUMP JUMPDEST POP PUSH1 0x60 DUP3 ADD MLOAD PUSH1 0x3 DUP3 ADD SWAP1 PUSH2 0x1006 SWAP1 DUP3 PUSH2 0x291C JUMP JUMPDEST POP PUSH1 0x80 DUP3 ADD MLOAD DUP2 PUSH1 0x4 ADD SSTORE PUSH1 0xA0 DUP3 ADD MLOAD DUP2 PUSH1 0x5 ADD SSTORE POP POP PUSH2 0x1028 DUP3 CALLER DUP7 PUSH2 0x18E3 JUMP JUMPDEST PUSH1 0x40 MLOAD PUSH1 0x1 PUSH1 0x1 PUSH1 0x60 SHL SUB DUP6 AND DUP2 MSTORE CALLER SWAP1 DUP4 SWAP1 PUSH32 0x6DAD49F29BA597AB21D9D1CBC9320AD410D22F091931DAC09F33B9375D4A9634 SWAP1 PUSH1 0x20 ADD PUSH1 0x40 MLOAD DUP1 SWAP2 SUB SWAP1 LOG3 POP POP POP POP POP POP POP POP POP POP POP JUMP JUMPDEST PUSH1 0x0 SWAP2 DUP3 MSTORE PUSH1 0x7 PUSH1 0x20 SWAP1 DUP2 MSTORE PUSH1 0x40 DUP1 DUP5 KECCAK256 PUSH1 0x1 PUSH1 0x1 PUSH1 0xA0 SHL SUB SWAP4 SWAP1 SWAP4 AND DUP5 MSTORE SWAP2 SWAP1 MSTORE SWAP1 KECCAK256 SLOAD PUSH1 0xFF AND SWAP1 JUMP JUMPDEST PUSH1 0x60 PUSH1 0x1 DUP1 SLOAD PUSH2 0x53B SWAP1 PUSH2 0x2814 JUMP JUMPDEST PUSH1 0xA SLOAD DUP6 LT PUSH2 0x10F7 JUMPI PUSH1 0x40 MLOAD PUSH3 0x461BCD PUSH1 0xE5 SHL DUP2 MSTORE PUSH1 0x20 PUSH1 0x4 DUP3 ADD MSTORE PUSH1 0x14 PUSH1 0x24 DUP3 ADD MSTORE PUSH20 0x151BDAD95B88191BD95CC81B9BDD08195E1A5CDD PUSH1 0x62 SHL PUSH1 0x44 DUP3 ADD MSTORE PUSH1 0x64 ADD PUSH2 0x61C JUMP JUMPDEST PUSH1 0x0 PUSH2 0x1101 PUSH2 0x19A5 JUMP JUMPDEST SWAP1 POP PUSH1 0x0 DUP2 MLOAD GT PUSH2 0x1145 JUMPI PUSH1 0x40 MLOAD PUSH3 0x461BCD PUSH1 0xE5 SHL DUP2 MSTORE PUSH1 0x20 PUSH1 0x4 DUP3 ADD MSTORE PUSH1 0xE PUSH1 0x24 DUP3 ADD MSTORE PUSH14 0x139BDD08185D5D1A1BDC9A5E9959 PUSH1 0x92 SHL PUSH1 0x44 DUP3 ADD MSTORE PUSH1 0x64 ADD PUSH2 0x61C JUMP JUMPDEST PUSH1 0x0 DUP7 DUP2 MSTORE PUSH1 0xB PUSH1 0x20 SWAP1 DUP2 MSTORE PUSH1 0x40 SWAP1 SWAP2 KECCAK256 DUP3 MLOAD SWAP2 DUP4 ADD SWAP2 SWAP1 SWAP2 KECCAK256 PUSH32 0x1114CBF365EDD2DFA0B2D7130B88E95EF56193E5FACDDE42287DBEA63BD343D ADD PUSH2 0x1195 JUMPI PUSH1 0x4 DUP2 ADD DUP1 SLOAD PUSH1 0xFF NOT AND PUSH1 0x1 OR SWAP1 SSTORE JUMPDEST DUP2 MLOAD PUSH1 0x20 DUP4 ADD KECCAK256 PUSH32 0x3A23C263A5BE40813644CEE3E554A21B439912BCE4771650CBC609F060D14F45 ADD PUSH2 0x11D4 JUMPI PUSH1 0x4 DUP2 ADD DUP1 SLOAD PUSH2 0xFF00 NOT AND PUSH2 0x100 OR SWAP1 SSTORE JUMPDEST PUSH1 0x40 DUP1 MLOAD PUSH1 0xC0 DUP2 ADD DUP3 MSTORE DUP4 DUP2 MSTORE PUSH1 0x20 DUP1 DUP3 ADD DUP10 SWAP1 MSTORE SWAP2 DUP2 ADD DUP8 SWAP1 MSTORE PUSH1 0x60 DUP2 ADD DUP7 SWAP1 MSTORE PUSH1 0x80 DUP2 ADD DUP6 SWAP1 MSTORE TIMESTAMP PUSH1 0xA0 DUP3 ADD MSTORE PUSH1 0x1 DUP1 DUP5 ADD DUP1 SLOAD SWAP2 DUP3 ADD DUP2 SSTORE PUSH1 0x0 SWAP1 DUP2 MSTORE SWAP3 SWAP1 SWAP3 KECCAK256 DUP2 MLOAD SWAP2 SWAP3 PUSH1 0x6 MUL ADD SWAP1 DUP2 SWAP1 PUSH2 0x122D SWAP1 DUP3 PUSH2 0x291C JUMP JUMPDEST POP PUSH1 0x20 DUP3 ADD MLOAD PUSH1 0x1 DUP3 ADD SWAP1 PUSH2 0x1242 SWAP1 DUP3 PUSH2 0x291C JUMP JUMPDEST POP PUSH1 0x40 DUP3 ADD MLOAD PUSH1 0x2 DUP3 ADD SWAP1 PUSH2 0x1257 SWAP1 DUP3 PUSH2 0x291C JUMP JUMPDEST POP PUSH1 0x60 DUP3 ADD MLOAD PUSH1 0x3 DUP3 ADD SWAP1 PUSH2 0x126C SWAP1 DUP3 PUSH2 0x291C JUMP JUMPDEST POP PUSH1 0x80 DUP3 ADD MLOAD DUP2 PUSH1 0x4 ADD SSTORE PUSH1 0xA0 DUP3 ADD MLOAD DUP2 PUSH1 0x5 ADD SSTORE POP POP DUP7 PUSH32 0x136D544EF0EFCA6C59039603C07FE9C9D054E34F307C570FEDEE04D911E4CD73 DUP4 DUP9 PUSH1 0x40 MLOAD PUSH2 0x12B5 SWAP3 SWAP2 SWAP1 PUSH2 0x29DB JUMP JUMPDEST PUSH1 0x40 MLOAD DUP1 SWAP2 SUB SWAP1 LOG2 PUSH1 0x4 DUP2 ADD SLOAD PUSH1 0xFF AND DUP1 ISZERO PUSH2 0x12DA JUMPI POP PUSH1 0x4 DUP2 ADD SLOAD PUSH2 0x100 SWAP1 DIV PUSH1 0xFF AND JUMPDEST DUP1 ISZERO PUSH2 0x12E9 JUMPI POP PUSH1 0x3 DUP2 ADD SLOAD ISZERO ISZERO JUMPDEST ISZERO PUSH2 0x1334 JUMPI DUP7 PUSH32 0xCF1451AB4E65DF42EF4B7E6745008B05888843319629CCA2B58993A471E49B3 DUP3 PUSH1 0x3 ADD SLOAD PUSH1 0x40 MLOAD PUSH2 0x1324 SWAP2 DUP2 MSTORE PUSH1 0x20 ADD SWAP1 JUMP JUMPDEST PUSH1 0x40 MLOAD DUP1 SWAP2 SUB SWAP1 LOG2 PUSH1 0x0 PUSH1 0x3 DUP3 ADD SSTORE JUMPDEST POP POP POP POP POP POP POP JUMP JUMPDEST PUSH2 0x5F2 CALLER DUP4 DUP4 PUSH2 0x1A59 JUMP JUMPDEST PUSH2 0x1353 DUP5 DUP5 DUP5 PUSH2 0x5F6 JUMP JUMPDEST PUSH2 0x680 DUP5 DUP5 DUP5 DUP5 PUSH2 0x1AF8 JUMP JUMPDEST PUSH1 0x60 PUSH2 0x136A DUP3 PUSH2 0x162C JUMP JUMPDEST POP PUSH1 0x0 DUP3 DUP2 MSTORE PUSH1 0x6 PUSH1 0x20 MSTORE PUSH1 0x40 DUP2 KECCAK256 DUP1 SLOAD PUSH2 0x1384 SWAP1 PUSH2 0x2814 JUMP JUMPDEST DUP1 PUSH1 0x1F ADD PUSH1 0x20 DUP1 SWAP2 DIV MUL PUSH1 0x20 ADD PUSH1 0x40 MLOAD SWAP1 DUP2 ADD PUSH1 0x40 MSTORE DUP1 SWAP3 SWAP2 SWAP1 DUP2 DUP2 MSTORE PUSH1 0x20 ADD DUP3 DUP1 SLOAD PUSH2 0x13B0 SWAP1 PUSH2 0x2814 JUMP JUMPDEST DUP1 ISZERO PUSH2 0x13FD JUMPI DUP1 PUSH1 0x1F LT PUSH2 0x13D2 JUMPI PUSH2 0x100 DUP1 DUP4 SLOAD DIV MUL DUP4 MSTORE SWAP2 PUSH1 0x20 ADD SWAP2 PUSH2 0x13FD JUMP JUMPDEST DUP3 ADD SWAP2 SWAP1 PUSH1 0x0 MSTORE PUSH1 0x20 PUSH1 0x0 KECCAK256 SWAP1 JUMPDEST DUP2 SLOAD DUP2 MSTORE SWAP1 PUSH1 0x1 ADD SWAP1 PUSH1 0x20 ADD DUP1 DUP4 GT PUSH2 0x13E0 JUMPI DUP3 SWAP1 SUB PUSH1 0x1F AND DUP3 ADD SWAP2 JUMPDEST POP POP POP POP POP SWAP1 POP PUSH1 0x0 PUSH2 0x141B PUSH1 0x40 DUP1 MLOAD PUSH1 0x20 DUP2 ADD SWAP1 SWAP2 MSTORE PUSH1 0x0 DUP2 MSTORE SWAP1 JUMP JUMPDEST SWAP1 POP DUP1 MLOAD PUSH1 0x0 SUB PUSH2 0x142D JUMPI POP SWAP3 SWAP2 POP POP JUMP JUMPDEST DUP2 MLOAD ISZERO PUSH2 0x145F JUMPI DUP1 DUP3 PUSH1 0x40 MLOAD PUSH1 0x20 ADD PUSH2 0x1447 SWAP3 SWAP2 SWAP1 PUSH2 0x2A09 JUMP JUMPDEST PUSH1 0x40 MLOAD PUSH1 0x20 DUP2 DUP4 SUB SUB DUP2 MSTORE SWAP1 PUSH1 0x40 MSTORE SWAP3 POP POP POP SWAP2 SWAP1 POP JUMP JUMPDEST PUSH2 0x1468 DUP5 PUSH2 0x1C21 JUMP JUMPDEST SWAP5 SWAP4 POP POP POP POP JUMP JUMPDEST PUSH1 0xA SLOAD DUP3 LT PUSH2 0x14B8 JUMPI PUSH1 0x40 MLOAD PUSH3 0x461BCD PUSH1 0xE5 SHL DUP2 MSTORE PUSH1 0x20 PUSH1 0x4 DUP3 ADD MSTORE PUSH1 0x14 PUSH1 0x24 DUP3 ADD MSTORE PUSH20 0x151BDAD95B88191BD95CC81B9BDD08195E1A5CDD PUSH1 0x62 SHL PUSH1 0x44 DUP3 ADD MSTORE PUSH1 0x64 ADD PUSH2 0x61C JUMP JUMPDEST PUSH2 0x14E2 PUSH32 0x7C6181838A71A779E445600D4C6ECBE16BACF2B3C5BDA69C29FADA66D1B645D1 CALLER PUSH2 0x1075 JUMP JUMPDEST DUP1 PUSH2 0x1512 JUMPI POP PUSH2 0x1512 PUSH32 0xA49807205CE4D355092EF5A8A18F56E8913CF4A201FBE287825B095693C21775 CALLER PUSH2 0x1075 JUMP JUMPDEST PUSH2 0x154C JUMPI PUSH1 0x40 MLOAD PUSH3 0x461BCD PUSH1 0xE5 SHL DUP2 MSTORE PUSH1 0x20 PUSH1 0x4 DUP3 ADD MSTORE PUSH1 0xB PUSH1 0x24 DUP3 ADD MSTORE PUSH11 0x139BDD08185B1B1BDDD959 PUSH1 0xAA SHL PUSH1 0x44 DUP3 ADD MSTORE PUSH1 0x64 ADD PUSH2 0x61C JUMP JUMPDEST PUSH1 0x0 DUP3 DUP2 MSTORE PUSH1 0xB PUSH1 0x20 SWAP1 DUP2 MSTORE PUSH1 0x40 DUP3 KECCAK256 PUSH1 0x2 ADD DUP1 SLOAD PUSH1 0x1 DUP2 ADD DUP3 SSTORE SWAP1 DUP4 MSTORE SWAP2 KECCAK256 ADD PUSH2 0x1577 DUP3 DUP3 PUSH2 0x291C JUMP JUMPDEST POP DUP2 PUSH32 0xB3F7A51D97EDFEC0A93EC31952A01E523033A70F92F1CFAE631A92C02F5306D0 DUP3 PUSH1 0x40 MLOAD PUSH2 0x15A8 SWAP2 SWAP1 PUSH2 0x219F JUMP JUMPDEST PUSH1 0x40 MLOAD DUP1 SWAP2 SUB SWAP1 LOG2 POP POP JUMP JUMPDEST PUSH1 0x0 DUP3 DUP2 MSTORE PUSH1 0x7 PUSH1 0x20 MSTORE PUSH1 0x40 SWAP1 KECCAK256 PUSH1 0x1 ADD SLOAD PUSH2 0x15CF DUP2 PUSH2 0x176B JUMP JUMPDEST PUSH2 0x680 DUP4 DUP4 PUSH2 0x180C JUMP JUMPDEST PUSH1 0x1 PUSH1 0x1 PUSH1 0xA0 SHL SUB SWAP2 DUP3 AND PUSH1 0x0 SWAP1 DUP2 MSTORE PUSH1 0x5 PUSH1 0x20 SWAP1 DUP2 MSTORE PUSH1 0x40 DUP1 DUP4 KECCAK256 SWAP4 SWAP1 SWAP5 AND DUP3 MSTORE SWAP2 SWAP1 SWAP2 MSTORE KECCAK256 SLOAD PUSH1 0xFF AND SWAP1 JUMP JUMPDEST PUSH1 0x0 PUSH1 0x1 PUSH1 0x1 PUSH1 0xE0 SHL SUB NOT DUP3 AND PUSH4 0x152A902D PUSH1 0xE1 SHL EQ DUP1 PUSH2 0x526 JUMPI POP PUSH2 0x526 DUP3 PUSH2 0x1C96 JUMP JUMPDEST PUSH1 0x0 DUP2 DUP2 MSTORE PUSH1 0x2 PUSH1 0x20 MSTORE PUSH1 0x40 DUP2 KECCAK256 SLOAD PUSH1 0x1 PUSH1 0x1 PUSH1 0xA0 SHL SUB AND DUP1 PUSH2 0x526 JUMPI PUSH1 0x40 MLOAD PUSH4 0x7E273289 PUSH1 0xE0 SHL DUP2 MSTORE PUSH1 0x4 DUP2 ADD DUP5 SWAP1 MSTORE PUSH1 0x24 ADD PUSH2 0x61C JUMP JUMPDEST PUSH2 0x78A DUP4 DUP4 DUP4 PUSH1 0x1 PUSH2 0x1CBB JUMP JUMPDEST PUSH1 0x0 DUP3 DUP2 MSTORE PUSH1 0x2 PUSH1 0x20 MSTORE PUSH1 0x40 DUP2 KECCAK256 SLOAD PUSH1 0x1 PUSH1 0x1 PUSH1 0xA0 SHL SUB SWAP1 DUP2 AND SWAP1 DUP4 AND ISZERO PUSH2 0x169F JUMPI PUSH2 0x169F DUP2 DUP5 DUP7 PUSH2 0x1DC1 JUMP JUMPDEST PUSH1 0x1 PUSH1 0x1 PUSH1 0xA0 SHL SUB DUP2 AND ISZERO PUSH2 0x16DD JUMPI PUSH2 0x16BC PUSH1 0x0 DUP6 PUSH1 0x0 DUP1 PUSH2 0x1CBB JUMP JUMPDEST PUSH1 0x1 PUSH1 0x1 PUSH1 0xA0 SHL SUB DUP2 AND PUSH1 0x0 SWAP1 DUP2 MSTORE PUSH1 0x3 PUSH1 0x20 MSTORE PUSH1 0x40 SWAP1 KECCAK256 DUP1 SLOAD PUSH1 0x0 NOT ADD SWAP1 SSTORE JUMPDEST PUSH1 0x1 PUSH1 0x1 PUSH1 0xA0 SHL SUB DUP6 AND ISZERO PUSH2 0x170C JUMPI PUSH1 0x1 PUSH1 0x1 PUSH1 0xA0 SHL SUB DUP6 AND PUSH1 0x0 SWAP1 DUP2 MSTORE PUSH1 0x3 PUSH1 0x20 MSTORE PUSH1 0x40 SWAP1 KECCAK256 DUP1 SLOAD PUSH1 0x1 ADD SWAP1 SSTORE JUMPDEST PUSH1 0x0 DUP5 DUP2 MSTORE PUSH1 0x2 PUSH1 0x20 MSTORE PUSH1 0x40 DUP1 DUP3 KECCAK256 DUP1 SLOAD PUSH1 0x1 PUSH1 0x1 PUSH1 0xA0 SHL SUB NOT AND PUSH1 0x1 PUSH1 0x1 PUSH1 0xA0 SHL SUB DUP10 DUP2 AND SWAP2 DUP3 OR SWAP1 SWAP3 SSTORE SWAP2 MLOAD DUP8 SWAP4 SWAP2 DUP6 AND SWAP2 PUSH32 0xDDF252AD1BE2C89B69C2B068FC378DAA952BA7F163C4A11628F55A4DF523B3EF SWAP2 LOG4 SWAP5 SWAP4 POP POP POP POP JUMP JUMPDEST PUSH2 0x1775 DUP2 CALLER PUSH2 0x1E25 JUMP JUMPDEST POP JUMP JUMPDEST PUSH1 0x0 PUSH2 0x1784 DUP4 DUP4 PUSH2 0x1075 JUMP JUMPDEST PUSH2 0x1804 JUMPI PUSH1 0x0 DUP4 DUP2 MSTORE PUSH1 0x7 PUSH1 0x20 SWAP1 DUP2 MSTORE PUSH1 0x40 DUP1 DUP4 KECCAK256 PUSH1 0x1 PUSH1 0x1 PUSH1 0xA0 SHL SUB DUP7 AND DUP5 MSTORE SWAP1 SWAP2 MSTORE SWAP1 KECCAK256 DUP1 SLOAD PUSH1 0xFF NOT AND PUSH1 0x1 OR SWAP1 SSTORE PUSH2 0x17BC CALLER SWAP1 JUMP JUMPDEST PUSH1 0x1 PUSH1 0x1 PUSH1 0xA0 SHL SUB AND DUP3 PUSH1 0x1 PUSH1 0x1 PUSH1 0xA0 SHL SUB AND DUP5 PUSH32 0x2F8788117E7EFF1D82E926EC794901D17C78024A50270940304540A733656F0D PUSH1 0x40 MLOAD PUSH1 0x40 MLOAD DUP1 SWAP2 SUB SWAP1 LOG4 POP PUSH1 0x1 PUSH2 0x526 JUMP JUMPDEST POP PUSH1 0x0 PUSH2 0x526 JUMP JUMPDEST PUSH1 0x0 PUSH2 0x1818 DUP4 DUP4 PUSH2 0x1075 JUMP JUMPDEST ISZERO PUSH2 0x1804 JUMPI PUSH1 0x0 DUP4 DUP2 MSTORE PUSH1 0x7 PUSH1 0x20 SWAP1 DUP2 MSTORE PUSH1 0x40 DUP1 DUP4 KECCAK256 PUSH1 0x1 PUSH1 0x1 PUSH1 0xA0 SHL SUB DUP7 AND DUP1 DUP6 MSTORE SWAP3 MSTORE DUP1 DUP4 KECCAK256 DUP1 SLOAD PUSH1 0xFF NOT AND SWAP1 SSTORE MLOAD CALLER SWAP3 DUP7 SWAP2 PUSH32 0xF6391F5C32D9C69D2A47EA670B442974B53935D1EDC7FD64EB21E047A839171B SWAP2 SWAP1 LOG4 POP PUSH1 0x1 PUSH2 0x526 JUMP JUMPDEST PUSH2 0x5F2 DUP3 DUP3 PUSH1 0x40 MLOAD DUP1 PUSH1 0x20 ADD PUSH1 0x40 MSTORE DUP1 PUSH1 0x0 DUP2 MSTORE POP PUSH2 0x1E5E JUMP JUMPDEST PUSH1 0x0 DUP3 DUP2 MSTORE PUSH1 0x6 PUSH1 0x20 MSTORE PUSH1 0x40 SWAP1 KECCAK256 PUSH2 0x18AB DUP3 DUP3 PUSH2 0x291C JUMP JUMPDEST POP PUSH1 0x40 MLOAD DUP3 DUP2 MSTORE PUSH32 0xF8E1A15ABA9398E019F0B49DF1A4FDE98EE17AE345CB5F6B5E2C27F5033E8CE7 SWAP1 PUSH1 0x20 ADD PUSH1 0x40 MLOAD DUP1 SWAP2 SUB SWAP1 LOG1 POP POP JUMP JUMPDEST PUSH2 0x2710 PUSH1 0x1 PUSH1 0x1 PUSH1 0x60 SHL SUB DUP3 AND DUP2 LT ISZERO PUSH2 0x1929 JUMPI PUSH1 0x40 MLOAD PUSH4 0xDFD1FC1B PUSH1 0xE0 SHL DUP2 MSTORE PUSH1 0x4 DUP2 ADD DUP6 SWAP1 MSTORE PUSH1 0x1 PUSH1 0x1 PUSH1 0x60 SHL SUB DUP4 AND PUSH1 0x24 DUP3 ADD MSTORE PUSH1 0x44 DUP2 ADD DUP3 SWAP1 MSTORE PUSH1 0x64 ADD PUSH2 0x61C JUMP JUMPDEST PUSH1 0x1 PUSH1 0x1 PUSH1 0xA0 SHL SUB DUP4 AND PUSH2 0x195A JUMPI PUSH1 0x40 MLOAD PUSH4 0x4B4F8429 PUSH1 0xE1 SHL DUP2 MSTORE PUSH1 0x4 DUP2 ADD DUP6 SWAP1 MSTORE PUSH1 0x0 PUSH1 0x24 DUP3 ADD MSTORE PUSH1 0x44 ADD PUSH2 0x61C JUMP JUMPDEST POP PUSH1 0x40 DUP1 MLOAD DUP1 DUP3 ADD DUP3 MSTORE PUSH1 0x1 PUSH1 0x1 PUSH1 0xA0 SHL SUB SWAP4 DUP5 AND DUP2 MSTORE PUSH1 0x1 PUSH1 0x1 PUSH1 0x60 SHL SUB SWAP3 DUP4 AND PUSH1 0x20 DUP1 DUP4 ADD SWAP2 DUP3 MSTORE PUSH1 0x0 SWAP7 DUP8 MSTORE PUSH1 0x9 SWAP1 MSTORE SWAP2 SWAP1 SWAP5 KECCAK256 SWAP4 MLOAD SWAP1 MLOAD SWAP1 SWAP2 AND PUSH1 0x1 PUSH1 0xA0 SHL MUL SWAP2 AND OR SWAP1 SSTORE JUMP JUMPDEST PUSH1 0x60 PUSH2 0x19D1 PUSH32 0x6833E94B5193C7A314AF51094165D7809E1989F393A17EEA242DE8D464828263 CALLER PUSH2 0x1075 JUMP JUMPDEST ISZERO PUSH2 0x19F8 JUMPI POP PUSH1 0x40 DUP1 MLOAD DUP1 DUP3 ADD SWAP1 SWAP2 MSTORE PUSH1 0x7 DUP2 MSTORE PUSH7 0x2937B0B9BA32B9 PUSH1 0xC9 SHL PUSH1 0x20 DUP3 ADD MSTORE SWAP1 JUMP JUMPDEST PUSH2 0x1A22 PUSH32 0x1F0426C2589E5C3EA5F5996E2A4371CA21EDD86514B6679C9DD135D7C85B28BF CALLER PUSH2 0x1075 JUMP JUMPDEST ISZERO PUSH2 0x1A46 JUMPI POP PUSH1 0x40 DUP1 MLOAD DUP1 DUP3 ADD SWAP1 SWAP2 MSTORE PUSH1 0x4 DUP2 MSTORE PUSH4 0x53686F7 PUSH1 0xE4 SHL PUSH1 0x20 DUP3 ADD MSTORE SWAP1 JUMP JUMPDEST POP PUSH1 0x40 DUP1 MLOAD PUSH1 0x20 DUP2 ADD SWAP1 SWAP2 MSTORE PUSH1 0x0 DUP2 MSTORE SWAP1 JUMP JUMPDEST PUSH1 0x1 PUSH1 0x1 PUSH1 0xA0 SHL SUB DUP3 AND PUSH2 0x1A8B JUMPI PUSH1 0x40 MLOAD PUSH4 0xB611743 PUSH1 0xE3 SHL DUP2 MSTORE PUSH1 0x1 PUSH1 0x1 PUSH1 0xA0 SHL SUB DUP4 AND PUSH1 0x4 DUP3 ADD MSTORE PUSH1 0x24 ADD PUSH2 0x61C JUMP JUMPDEST PUSH1 0x1 PUSH1 0x1 PUSH1 0xA0 SHL SUB DUP4 DUP2 AND PUSH1 0x0 DUP2 DUP2 MSTORE PUSH1 0x5 PUSH1 0x20 SWAP1 DUP2 MSTORE PUSH1 0x40 DUP1 DUP4 KECCAK256 SWAP5 DUP8 AND DUP1 DUP5 MSTORE SWAP5 DUP3 MSTORE SWAP2 DUP3 SWAP1 KECCAK256 DUP1 SLOAD PUSH1 0xFF NOT AND DUP7 ISZERO ISZERO SWAP1 DUP2 OR SWAP1 SWAP2 SSTORE SWAP2 MLOAD SWAP2 DUP3 MSTORE PUSH32 0x17307EAB39AB6107E8899845AD3D59BD9653F200F220920489CA2B5937696C31 SWAP2 ADD PUSH1 0x40 MLOAD DUP1 SWAP2 SUB SWAP1 LOG3 POP POP POP JUMP JUMPDEST PUSH1 0x1 PUSH1 0x1 PUSH1 0xA0 SHL SUB DUP4 AND EXTCODESIZE ISZERO PUSH2 0x680 JUMPI PUSH1 0x40 MLOAD PUSH4 0xA85BD01 PUSH1 0xE1 SHL DUP2 MSTORE PUSH1 0x1 PUSH1 0x1 PUSH1 0xA0 SHL SUB DUP5 AND SWAP1 PUSH4 0x150B7A02 SWAP1 PUSH2 0x1B3A SWAP1 CALLER SWAP1 DUP9 SWAP1 DUP8 SWAP1 DUP8 SWAP1 PUSH1 0x4 ADD PUSH2 0x2A38 JUMP JUMPDEST PUSH1 0x20 PUSH1 0x40 MLOAD DUP1 DUP4 SUB DUP2 PUSH1 0x0 DUP8 GAS CALL SWAP3 POP POP POP DUP1 ISZERO PUSH2 0x1B75 JUMPI POP PUSH1 0x40 DUP1 MLOAD PUSH1 0x1F RETURNDATASIZE SWAP1 DUP2 ADD PUSH1 0x1F NOT AND DUP3 ADD SWAP1 SWAP3 MSTORE PUSH2 0x1B72 SWAP2 DUP2 ADD SWAP1 PUSH2 0x2A75 JUMP JUMPDEST PUSH1 0x1 JUMPDEST PUSH2 0x1BDE JUMPI RETURNDATASIZE DUP1 DUP1 ISZERO PUSH2 0x1BA3 JUMPI PUSH1 0x40 MLOAD SWAP2 POP PUSH1 0x1F NOT PUSH1 0x3F RETURNDATASIZE ADD AND DUP3 ADD PUSH1 0x40 MSTORE RETURNDATASIZE DUP3 MSTORE RETURNDATASIZE PUSH1 0x0 PUSH1 0x20 DUP5 ADD RETURNDATACOPY PUSH2 0x1BA8 JUMP JUMPDEST PUSH1 0x60 SWAP2 POP JUMPDEST POP DUP1 MLOAD PUSH1 0x0 SUB PUSH2 0x1BD6 JUMPI PUSH1 0x40 MLOAD PUSH4 0x32505749 PUSH1 0xE1 SHL DUP2 MSTORE PUSH1 0x1 PUSH1 0x1 PUSH1 0xA0 SHL SUB DUP6 AND PUSH1 0x4 DUP3 ADD MSTORE PUSH1 0x24 ADD PUSH2 0x61C JUMP JUMPDEST DUP1 MLOAD DUP2 PUSH1 0x20 ADD REVERT JUMPDEST PUSH1 0x1 PUSH1 0x1 PUSH1 0xE0 SHL SUB NOT DUP2 AND PUSH4 0xA85BD01 PUSH1 0xE1 SHL EQ PUSH2 0x1C1A JUMPI PUSH1 0x40 MLOAD PUSH4 0x32505749 PUSH1 0xE1 SHL DUP2 MSTORE PUSH1 0x1 PUSH1 0x1 PUSH1 0xA0 SHL SUB DUP6 AND PUSH1 0x4 DUP3 ADD MSTORE PUSH1 0x24 ADD PUSH2 0x61C JUMP JUMPDEST POP POP POP POP POP JUMP JUMPDEST PUSH1 0x60 PUSH2 0x1C2C DUP3 PUSH2 0x162C JUMP JUMPDEST POP PUSH1 0x0 PUSH2 0x1C44 PUSH1 0x40 DUP1 MLOAD PUSH1 0x20 DUP2 ADD SWAP1 SWAP2 MSTORE PUSH1 0x0 DUP2 MSTORE SWAP1 JUMP JUMPDEST SWAP1 POP PUSH1 0x0 DUP2 MLOAD GT PUSH2 0x1C64 JUMPI PUSH1 0x40 MLOAD DUP1 PUSH1 0x20 ADD PUSH1 0x40 MSTORE DUP1 PUSH1 0x0 DUP2 MSTORE POP PUSH2 0x1C8F JUMP JUMPDEST DUP1 PUSH2 0x1C6E DUP5 PUSH2 0x1E75 JUMP JUMPDEST PUSH1 0x40 MLOAD PUSH1 0x20 ADD PUSH2 0x1C7F SWAP3 SWAP2 SWAP1 PUSH2 0x2A09 JUMP JUMPDEST PUSH1 0x40 MLOAD PUSH1 0x20 DUP2 DUP4 SUB SUB DUP2 MSTORE SWAP1 PUSH1 0x40 MSTORE JUMPDEST SWAP4 SWAP3 POP POP POP JUMP JUMPDEST PUSH1 0x0 PUSH1 0x1 PUSH1 0x1 PUSH1 0xE0 SHL SUB NOT DUP3 AND PUSH4 0x7965DB0B PUSH1 0xE0 SHL EQ DUP1 PUSH2 0x526 JUMPI POP PUSH2 0x526 DUP3 PUSH2 0x1F07 JUMP JUMPDEST DUP1 DUP1 PUSH2 0x1CCF JUMPI POP PUSH1 0x1 PUSH1 0x1 PUSH1 0xA0 SHL SUB DUP3 AND ISZERO ISZERO JUMPDEST ISZERO PUSH2 0x1D91 JUMPI PUSH1 0x0 PUSH2 0x1CDF DUP5 PUSH2 0x162C JUMP JUMPDEST SWAP1 POP PUSH1 0x1 PUSH1 0x1 PUSH1 0xA0 SHL SUB DUP4 AND ISZERO DUP1 ISZERO SWAP1 PUSH2 0x1D0B JUMPI POP DUP3 PUSH1 0x1 PUSH1 0x1 PUSH1 0xA0 SHL SUB AND DUP2 PUSH1 0x1 PUSH1 0x1 PUSH1 0xA0 SHL SUB AND EQ ISZERO JUMPDEST DUP1 ISZERO PUSH2 0x1D1E JUMPI POP PUSH2 0x1D1C DUP2 DUP5 PUSH2 0x15D9 JUMP JUMPDEST ISZERO JUMPDEST ISZERO PUSH2 0x1D47 JUMPI PUSH1 0x40 MLOAD PUSH4 0xA9FBF51F PUSH1 0xE0 SHL DUP2 MSTORE PUSH1 0x1 PUSH1 0x1 PUSH1 0xA0 SHL SUB DUP5 AND PUSH1 0x4 DUP3 ADD MSTORE PUSH1 0x24 ADD PUSH2 0x61C JUMP JUMPDEST DUP2 ISZERO PUSH2 0x1D8F JUMPI DUP4 DUP6 PUSH1 0x1 PUSH1 0x1 PUSH1 0xA0 SHL SUB AND DUP3 PUSH1 0x1 PUSH1 0x1 PUSH1 0xA0 SHL SUB AND PUSH32 0x8C5BE1E5EBEC7D5BD14F71427D1E84F3DD0314C0F7B2291E5B200AC8C7C3B925 PUSH1 0x40 MLOAD PUSH1 0x40 MLOAD DUP1 SWAP2 SUB SWAP1 LOG4 JUMPDEST POP JUMPDEST POP POP PUSH1 0x0 SWAP1 DUP2 MSTORE PUSH1 0x4 PUSH1 0x20 MSTORE PUSH1 0x40 SWAP1 KECCAK256 DUP1 SLOAD PUSH1 0x1 PUSH1 0x1 PUSH1 0xA0 SHL SUB NOT AND PUSH1 0x1 PUSH1 0x1 PUSH1 0xA0 SHL SUB SWAP3 SWAP1 SWAP3 AND SWAP2 SWAP1 SWAP2 OR SWAP1 SSTORE JUMP JUMPDEST PUSH2 0x1DCC DUP4 DUP4 DUP4 PUSH2 0x1F2C JUMP JUMPDEST PUSH2 0x78A JUMPI PUSH1 0x1 PUSH1 0x1 PUSH1 0xA0 SHL SUB DUP4 AND PUSH2 0x1DFA JUMPI PUSH1 0x40 MLOAD PUSH4 0x7E273289 PUSH1 0xE0 SHL DUP2 MSTORE PUSH1 0x4 DUP2 ADD DUP3 SWAP1 MSTORE PUSH1 0x24 ADD PUSH2 0x61C JUMP JUMPDEST PUSH1 0x40 MLOAD PUSH4 0x177E802F PUSH1 0xE0 SHL DUP2 MSTORE PUSH1 0x1 PUSH1 0x1 PUSH1 0xA0 SHL SUB DUP4 AND PUSH1 0x4 DUP3 ADD MSTORE PUSH1 0x24 DUP2 ADD DUP3 SWAP1 MSTORE PUSH1 0x44 ADD PUSH2 0x61C JUMP JUMPDEST PUSH2 0x1E2F DUP3 DUP3 PUSH2 0x1075 JUMP JUMPDEST PUSH2 0x5F2 JUMPI PUSH1 0x40 MLOAD PUSH4 0xE2517D3F PUSH1 0xE0 SHL DUP2 MSTORE PUSH1 0x1 PUSH1 0x1 PUSH1 0xA0 SHL SUB DUP3 AND PUSH1 0x4 DUP3 ADD MSTORE PUSH1 0x24 DUP2 ADD DUP4 SWAP1 MSTORE PUSH1 0x44 ADD PUSH2 0x61C JUMP JUMPDEST PUSH2 0x1E68 DUP4 DUP4 PUSH2 0x1F8F JUMP JUMPDEST PUSH2 0x78A PUSH1 0x0 DUP5 DUP5 DUP5 PUSH2 0x1AF8 JUMP JUMPDEST PUSH1 0x60 PUSH1 0x0 PUSH2 0x1E82 DUP4 PUSH2 0x1FF4 JUMP JUMPDEST PUSH1 0x1 ADD SWAP1 POP PUSH1 0x0 DUP2 PUSH1 0x1 PUSH1 0x1 PUSH1 0x40 SHL SUB DUP2 GT ISZERO PUSH2 0x1EA1 JUMPI PUSH2 0x1EA1 PUSH2 0x23ED JUMP JUMPDEST PUSH1 0x40 MLOAD SWAP1 DUP1 DUP3 MSTORE DUP1 PUSH1 0x1F ADD PUSH1 0x1F NOT AND PUSH1 0x20 ADD DUP3 ADD PUSH1 0x40 MSTORE DUP1 ISZERO PUSH2 0x1ECB JUMPI PUSH1 0x20 DUP3 ADD DUP2 DUP1 CALLDATASIZE DUP4 CALLDATACOPY ADD SWAP1 POP JUMPDEST POP SWAP1 POP DUP2 DUP2 ADD PUSH1 0x20 ADD JUMPDEST PUSH1 0x0 NOT ADD PUSH16 0x181899199A1A9B1B9C1CB0B131B232B3 PUSH1 0x81 SHL PUSH1 0xA DUP7 MOD BYTE DUP2 MSTORE8 PUSH1 0xA DUP6 DIV SWAP5 POP DUP5 PUSH2 0x1ED5 JUMPI POP SWAP4 SWAP3 POP POP POP JUMP JUMPDEST PUSH1 0x0 PUSH1 0x1 PUSH1 0x1 PUSH1 0xE0 SHL SUB NOT DUP3 AND PUSH4 0x24832483 PUSH1 0xE1 SHL EQ DUP1 PUSH2 0x526 JUMPI POP PUSH2 0x526 DUP3 PUSH2 0x20CC JUMP JUMPDEST PUSH1 0x0 PUSH1 0x1 PUSH1 0x1 PUSH1 0xA0 SHL SUB DUP4 AND ISZERO DUP1 ISZERO SWAP1 PUSH2 0x1468 JUMPI POP DUP3 PUSH1 0x1 PUSH1 0x1 PUSH1 0xA0 SHL SUB AND DUP5 PUSH1 0x1 PUSH1 0x1 PUSH1 0xA0 SHL SUB AND EQ DUP1 PUSH2 0x1F66 JUMPI POP PUSH2 0x1F66 DUP5 DUP5 PUSH2 0x15D9 JUMP JUMPDEST DUP1 PUSH2 0x1468 JUMPI POP POP PUSH1 0x0 SWAP1 DUP2 MSTORE PUSH1 0x4 PUSH1 0x20 MSTORE PUSH1 0x40 SWAP1 KECCAK256 SLOAD PUSH1 0x1 PUSH1 0x1 PUSH1 0xA0 SHL SUB SWAP1 DUP2 AND SWAP2 AND EQ SWAP2 SWAP1 POP JUMP JUMPDEST PUSH1 0x1 PUSH1 0x1 PUSH1 0xA0 SHL SUB DUP3 AND PUSH2 0x1FB9 JUMPI PUSH1 0x40 MLOAD PUSH4 0x32505749 PUSH1 0xE1 SHL DUP2 MSTORE PUSH1 0x0 PUSH1 0x4 DUP3 ADD MSTORE PUSH1 0x24 ADD PUSH2 0x61C JUMP JUMPDEST PUSH1 0x0 PUSH2 0x1FC7 DUP4 DUP4 PUSH1 0x0 PUSH2 0x1672 JUMP JUMPDEST SWAP1 POP PUSH1 0x1 PUSH1 0x1 PUSH1 0xA0 SHL SUB DUP2 AND ISZERO PUSH2 0x78A JUMPI PUSH1 0x40 MLOAD PUSH4 0x39E35637 PUSH1 0xE1 SHL DUP2 MSTORE PUSH1 0x0 PUSH1 0x4 DUP3 ADD MSTORE PUSH1 0x24 ADD PUSH2 0x61C JUMP JUMPDEST PUSH1 0x0 DUP1 PUSH19 0x184F03E93FF9F4DAA797ED6E38ED64BF6A1F01 PUSH1 0x40 SHL DUP4 LT PUSH2 0x2033 JUMPI PUSH19 0x184F03E93FF9F4DAA797ED6E38ED64BF6A1F01 PUSH1 0x40 SHL DUP4 DIV SWAP3 POP PUSH1 0x40 ADD JUMPDEST PUSH14 0x4EE2D6D415B85ACEF8100000000 DUP4 LT PUSH2 0x205F JUMPI PUSH14 0x4EE2D6D415B85ACEF8100000000 DUP4 DIV SWAP3 POP PUSH1 0x20 ADD JUMPDEST PUSH7 0x2386F26FC10000 DUP4 LT PUSH2 0x207D JUMPI PUSH7 0x2386F26FC10000 DUP4 DIV SWAP3 POP PUSH1 0x10 ADD JUMPDEST PUSH4 0x5F5E100 DUP4 LT PUSH2 0x2095 JUMPI PUSH4 0x5F5E100 DUP4 DIV SWAP3 POP PUSH1 0x8 ADD JUMPDEST PUSH2 0x2710 DUP4 LT PUSH2 0x20A9 JUMPI PUSH2 0x2710 DUP4 DIV SWAP3 POP PUSH1 0x4 ADD JUMPDEST PUSH1 0x64 DUP4 LT PUSH2 0x20BB JUMPI PUSH1 0x64 DUP4 DIV SWAP3 POP PUSH1 0x2 ADD JUMPDEST PUSH1 0xA DUP4 LT PUSH2 0x526 JUMPI PUSH1 0x1 ADD SWAP3 SWAP2 POP POP JUMP JUMPDEST PUSH1 0x0 PUSH1 0x1 PUSH1 0x1 PUSH1 0xE0 SHL SUB NOT DUP3 AND PUSH4 0x80AC58CD PUSH1 0xE0 SHL EQ DUP1 PUSH2 0x20FD JUMPI POP PUSH1 0x1 PUSH1 0x1 PUSH1 0xE0 SHL SUB NOT DUP3 AND PUSH4 0x5B5E139F PUSH1 0xE0 SHL EQ JUMPDEST DUP1 PUSH2 0x526 JUMPI POP PUSH4 0x1FFC9A7 PUSH1 0xE0 SHL PUSH1 0x1 PUSH1 0x1 PUSH1 0xE0 SHL SUB NOT DUP4 AND EQ PUSH2 0x526 JUMP JUMPDEST PUSH1 0x1 PUSH1 0x1 PUSH1 0xE0 SHL SUB NOT DUP2 AND DUP2 EQ PUSH2 0x1775 JUMPI PUSH1 0x0 DUP1 REVERT JUMPDEST PUSH1 0x0 PUSH1 0x20 DUP3 DUP5 SUB SLT ISZERO PUSH2 0x2144 JUMPI PUSH1 0x0 DUP1 REVERT JUMPDEST DUP2 CALLDATALOAD PUSH2 0x1C8F DUP2 PUSH2 0x211C JUMP JUMPDEST PUSH1 0x0 JUMPDEST DUP4 DUP2 LT ISZERO PUSH2 0x216A JUMPI DUP2 DUP2 ADD MLOAD DUP4 DUP3 ADD MSTORE PUSH1 0x20 ADD PUSH2 0x2152 JUMP JUMPDEST POP POP PUSH1 0x0 SWAP2 ADD MSTORE JUMP JUMPDEST PUSH1 0x0 DUP2 MLOAD DUP1 DUP5 MSTORE PUSH2 0x218B DUP2 PUSH1 0x20 DUP7 ADD PUSH1 0x20 DUP7 ADD PUSH2 0x214F JUMP JUMPDEST PUSH1 0x1F ADD PUSH1 0x1F NOT AND SWAP3 SWAP1 SWAP3 ADD PUSH1 0x20 ADD SWAP3 SWAP2 POP POP JUMP JUMPDEST PUSH1 0x20 DUP2 MSTORE PUSH1 0x0 PUSH2 0x1C8F PUSH1 0x20 DUP4 ADD DUP5 PUSH2 0x2173 JUMP JUMPDEST PUSH1 0x0 PUSH1 0x20 DUP3 DUP5 SUB SLT ISZERO PUSH2 0x21C4 JUMPI PUSH1 0x0 DUP1 REVERT JUMPDEST POP CALLDATALOAD SWAP2 SWAP1 POP JUMP JUMPDEST DUP1 CALLDATALOAD PUSH1 0x1 PUSH1 0x1 PUSH1 0xA0 SHL SUB DUP2 AND DUP2 EQ PUSH2 0x21E2 JUMPI PUSH1 0x0 DUP1 REVERT JUMPDEST SWAP2 SWAP1 POP JUMP JUMPDEST PUSH1 0x0 DUP1 PUSH1 0x40 DUP4 DUP6 SUB SLT ISZERO PUSH2 0x21FA JUMPI PUSH1 0x0 DUP1 REVERT JUMPDEST PUSH2 0x2203 DUP4 PUSH2 0x21CB JUMP JUMPDEST SWAP5 PUSH1 0x20 SWAP4 SWAP1 SWAP4 ADD CALLDATALOAD SWAP4 POP POP POP JUMP JUMPDEST PUSH1 0x0 DUP1 PUSH1 0x0 PUSH1 0x60 DUP5 DUP7 SUB SLT ISZERO PUSH2 0x2226 JUMPI PUSH1 0x0 DUP1 REVERT JUMPDEST PUSH2 0x222F DUP5 PUSH2 0x21CB JUMP JUMPDEST SWAP3 POP PUSH2 0x223D PUSH1 0x20 DUP6 ADD PUSH2 0x21CB JUMP JUMPDEST SWAP2 POP PUSH1 0x40 DUP5 ADD CALLDATALOAD SWAP1 POP SWAP3 POP SWAP3 POP SWAP3 JUMP JUMPDEST PUSH1 0x0 DUP1 PUSH1 0x40 DUP4 DUP6 SUB SLT ISZERO PUSH2 0x2260 JUMPI PUSH1 0x0 DUP1 REVERT JUMPDEST POP POP DUP1 CALLDATALOAD SWAP3 PUSH1 0x20 SWAP1 SWAP2 ADD CALLDATALOAD SWAP2 POP JUMP JUMPDEST PUSH1 0x0 DUP1 PUSH1 0x40 DUP4 DUP6 SUB SLT ISZERO PUSH2 0x2282 JUMPI PUSH1 0x0 DUP1 REVERT JUMPDEST DUP3 CALLDATALOAD SWAP2 POP PUSH2 0x2292 PUSH1 0x20 DUP5 ADD PUSH2 0x21CB JUMP JUMPDEST SWAP1 POP SWAP3 POP SWAP3 SWAP1 POP JUMP JUMPDEST PUSH1 0x0 DUP3 DUP3 MLOAD DUP1 DUP6 MSTORE PUSH1 0x20 DUP1 DUP7 ADD SWAP6 POP PUSH1 0x20 DUP3 PUSH1 0x5 SHL DUP5 ADD ADD PUSH1 0x20 DUP7 ADD PUSH1 0x0 JUMPDEST DUP5 DUP2 LT ISZERO PUSH2 0x22E8 JUMPI PUSH1 0x1F NOT DUP7 DUP5 SUB ADD DUP10 MSTORE PUSH2 0x22D6 DUP4 DUP4 MLOAD PUSH2 0x2173 JUMP JUMPDEST SWAP9 DUP5 ADD SWAP9 SWAP3 POP SWAP1 DUP4 ADD SWAP1 PUSH1 0x1 ADD PUSH2 0x22BA JUMP JUMPDEST POP SWAP1 SWAP8 SWAP7 POP POP POP POP POP POP POP JUMP JUMPDEST PUSH1 0x0 DUP2 MLOAD DUP1 DUP5 MSTORE PUSH1 0x20 DUP1 DUP6 ADD SWAP5 POP PUSH1 0x20 DUP5 ADD PUSH1 0x0 JUMPDEST DUP4 DUP2 LT ISZERO PUSH2 0x2326 JUMPI DUP2 MLOAD DUP8 MSTORE SWAP6 DUP3 ADD SWAP6 SWAP1 DUP3 ADD SWAP1 PUSH1 0x1 ADD PUSH2 0x230A JUMP JUMPDEST POP SWAP5 SWAP6 SWAP5 POP POP POP POP POP JUMP JUMPDEST PUSH1 0x0 PUSH2 0x100 DUP11 DUP4 MSTORE DUP1 PUSH1 0x20 DUP5 ADD MSTORE PUSH2 0x234B DUP2 DUP5 ADD DUP12 PUSH2 0x229B JUMP JUMPDEST SWAP1 POP DUP3 DUP2 SUB PUSH1 0x40 DUP5 ADD MSTORE PUSH2 0x235F DUP2 DUP11 PUSH2 0x229B JUMP JUMPDEST SWAP1 POP DUP3 DUP2 SUB PUSH1 0x60 DUP5 ADD MSTORE PUSH2 0x2373 DUP2 DUP10 PUSH2 0x229B JUMP JUMPDEST SWAP1 POP DUP3 DUP2 SUB PUSH1 0x80 DUP5 ADD MSTORE PUSH2 0x2387 DUP2 DUP9 PUSH2 0x229B JUMP JUMPDEST SWAP1 POP DUP3 DUP2 SUB PUSH1 0xA0 DUP5 ADD MSTORE PUSH2 0x239B DUP2 DUP8 PUSH2 0x22F5 JUMP JUMPDEST SWAP1 POP DUP3 DUP2 SUB PUSH1 0xC0 DUP5 ADD MSTORE PUSH2 0x23AF DUP2 DUP7 PUSH2 0x22F5 JUMP JUMPDEST SWAP1 POP DUP3 DUP2 SUB PUSH1 0xE0 DUP5 ADD MSTORE PUSH2 0x23C3 DUP2 DUP6 PUSH2 0x229B JUMP JUMPDEST SWAP12 SWAP11 POP POP POP POP POP POP POP POP POP POP POP JUMP JUMPDEST PUSH1 0x0 PUSH1 0x20 DUP3 DUP5 SUB SLT ISZERO PUSH2 0x23E4 JUMPI PUSH1 0x0 DUP1 REVERT JUMPDEST PUSH2 0x1C8F DUP3 PUSH2 0x21CB JUMP JUMPDEST PUSH4 0x4E487B71 PUSH1 0xE0 SHL PUSH1 0x0 MSTORE PUSH1 0x41 PUSH1 0x4 MSTORE PUSH1 0x24 PUSH1 0x0 REVERT JUMPDEST PUSH1 0x40 MLOAD PUSH1 0x1F DUP3 ADD PUSH1 0x1F NOT AND DUP2 ADD PUSH1 0x1 PUSH1 0x1 PUSH1 0x40 SHL SUB DUP2 GT DUP3 DUP3 LT OR ISZERO PUSH2 0x242B JUMPI PUSH2 0x242B PUSH2 0x23ED JUMP JUMPDEST PUSH1 0x40 MSTORE SWAP2 SWAP1 POP JUMP JUMPDEST PUSH1 0x0 PUSH1 0x1 PUSH1 0x1 PUSH1 0x40 SHL SUB DUP4 GT ISZERO PUSH2 0x244C JUMPI PUSH2 0x244C PUSH2 0x23ED JUMP JUMPDEST PUSH2 0x245F PUSH1 0x1F DUP5 ADD PUSH1 0x1F NOT AND PUSH1 0x20 ADD PUSH2 0x2403 JUMP JUMPDEST SWAP1 POP DUP3 DUP2 MSTORE DUP4 DUP4 DUP4 ADD GT ISZERO PUSH2 0x2473 JUMPI PUSH1 0x0 DUP1 REVERT JUMPDEST DUP3 DUP3 PUSH1 0x20 DUP4 ADD CALLDATACOPY PUSH1 0x0 PUSH1 0x20 DUP5 DUP4 ADD ADD MSTORE SWAP4 SWAP3 POP POP POP JUMP JUMPDEST PUSH1 0x0 DUP3 PUSH1 0x1F DUP4 ADD SLT PUSH2 0x249B JUMPI PUSH1 0x0 DUP1 REVERT JUMPDEST PUSH2 0x1C8F DUP4 DUP4 CALLDATALOAD PUSH1 0x20 DUP6 ADD PUSH2 0x2433 JUMP JUMPDEST PUSH1 0x0 DUP3 PUSH1 0x1F DUP4 ADD SLT PUSH2 0x24BB JUMPI PUSH1 0x0 DUP1 REVERT JUMPDEST DUP2 CALLDATALOAD PUSH1 0x20 PUSH1 0x1 PUSH1 0x1 PUSH1 0x40 SHL SUB DUP1 DUP4 GT ISZERO PUSH2 0x24D7 JUMPI PUSH2 0x24D7 PUSH2 0x23ED JUMP JUMPDEST DUP3 PUSH1 0x5 SHL PUSH2 0x24E6 DUP4 DUP3 ADD PUSH2 0x2403 JUMP JUMPDEST SWAP4 DUP5 MSTORE DUP6 DUP2 ADD DUP4 ADD SWAP4 DUP4 DUP2 ADD SWAP1 DUP9 DUP7 GT ISZERO PUSH2 0x2500 JUMPI PUSH1 0x0 DUP1 REVERT JUMPDEST DUP5 DUP9 ADD SWAP3 POP JUMPDEST DUP6 DUP4 LT ISZERO PUSH2 0x253C JUMPI DUP3 CALLDATALOAD DUP5 DUP2 GT ISZERO PUSH2 0x251E JUMPI PUSH1 0x0 DUP1 DUP2 REVERT JUMPDEST PUSH2 0x252C DUP11 DUP8 DUP4 DUP13 ADD ADD PUSH2 0x248A JUMP JUMPDEST DUP4 MSTORE POP SWAP2 DUP5 ADD SWAP2 SWAP1 DUP5 ADD SWAP1 PUSH2 0x2506 JUMP JUMPDEST SWAP9 SWAP8 POP POP POP POP POP POP POP POP JUMP JUMPDEST DUP1 CALLDATALOAD PUSH1 0x1 PUSH1 0x1 PUSH1 0x60 SHL SUB DUP2 AND DUP2 EQ PUSH2 0x21E2 JUMPI PUSH1 0x0 DUP1 REVERT JUMPDEST PUSH1 0x0 DUP1 PUSH1 0x0 DUP1 PUSH1 0x0 DUP1 PUSH1 0x0 DUP1 PUSH2 0x100 DUP10 DUP12 SUB SLT ISZERO PUSH2 0x257C JUMPI PUSH1 0x0 DUP1 REVERT JUMPDEST DUP9 CALLDATALOAD PUSH1 0x1 PUSH1 0x1 PUSH1 0x40 SHL SUB DUP1 DUP3 GT ISZERO PUSH2 0x2593 JUMPI PUSH1 0x0 DUP1 REVERT JUMPDEST PUSH2 0x259F DUP13 DUP4 DUP14 ADD PUSH2 0x248A JUMP JUMPDEST SWAP10 POP PUSH1 0x20 DUP12 ADD CALLDATALOAD SWAP2 POP DUP1 DUP3 GT ISZERO PUSH2 0x25B5 JUMPI PUSH1 0x0 DUP1 REVERT JUMPDEST PUSH2 0x25C1 DUP13 DUP4 DUP14 ADD PUSH2 0x24AA JUMP JUMPDEST SWAP9 POP PUSH1 0x40 DUP12 ADD CALLDATALOAD SWAP2 POP DUP1 DUP3 GT ISZERO PUSH2 0x25D7 JUMPI PUSH1 0x0 DUP1 REVERT JUMPDEST PUSH2 0x25E3 DUP13 DUP4 DUP14 ADD PUSH2 0x248A JUMP JUMPDEST SWAP8 POP PUSH1 0x60 DUP12 ADD CALLDATALOAD SWAP2 POP DUP1 DUP3 GT ISZERO PUSH2 0x25F9 JUMPI PUSH1 0x0 DUP1 REVERT JUMPDEST PUSH2 0x2605 DUP13 DUP4 DUP14 ADD PUSH2 0x248A JUMP JUMPDEST SWAP7 POP PUSH1 0x80 DUP12 ADD CALLDATALOAD SWAP2 POP DUP1 DUP3 GT ISZERO PUSH2 0x261B JUMPI PUSH1 0x0 DUP1 REVERT JUMPDEST POP PUSH2 0x2628 DUP12 DUP3 DUP13 ADD PUSH2 0x248A JUMP JUMPDEST SWAP5 POP POP PUSH1 0xA0 DUP10 ADD CALLDATALOAD SWAP3 POP PUSH1 0xC0 DUP10 ADD CALLDATALOAD SWAP2 POP PUSH2 0x2645 PUSH1 0xE0 DUP11 ADD PUSH2 0x2548 JUMP JUMPDEST SWAP1 POP SWAP3 SWAP6 SWAP9 POP SWAP3 SWAP6 SWAP9 SWAP1 SWAP4 SWAP7 POP JUMP JUMPDEST PUSH1 0x0 DUP1 PUSH1 0x0 DUP1 PUSH1 0x0 PUSH1 0xA0 DUP7 DUP9 SUB SLT ISZERO PUSH2 0x266C JUMPI PUSH1 0x0 DUP1 REVERT JUMPDEST DUP6 CALLDATALOAD SWAP5 POP PUSH1 0x20 DUP7 ADD CALLDATALOAD PUSH1 0x1 PUSH1 0x1 PUSH1 0x40 SHL SUB DUP1 DUP3 GT ISZERO PUSH2 0x268A JUMPI PUSH1 0x0 DUP1 REVERT JUMPDEST PUSH2 0x2696 DUP10 DUP4 DUP11 ADD PUSH2 0x248A JUMP JUMPDEST SWAP6 POP PUSH1 0x40 DUP9 ADD CALLDATALOAD SWAP2 POP DUP1 DUP3 GT ISZERO PUSH2 0x26AC JUMPI PUSH1 0x0 DUP1 REVERT JUMPDEST PUSH2 0x26B8 DUP10 DUP4 DUP11 ADD PUSH2 0x248A JUMP JUMPDEST SWAP5 POP PUSH1 0x60 DUP9 ADD CALLDATALOAD SWAP2 POP DUP1 DUP3 GT ISZERO PUSH2 0x26CE JUMPI PUSH1 0x0 DUP1 REVERT JUMPDEST POP PUSH2 0x26DB DUP9 DUP3 DUP10 ADD PUSH2 0x248A JUMP JUMPDEST SWAP6 SWAP9 SWAP5 SWAP8 POP SWAP3 SWAP6 PUSH1 0x80 ADD CALLDATALOAD SWAP4 SWAP3 POP POP POP JUMP JUMPDEST PUSH1 0x0 DUP1 PUSH1 0x40 DUP4 DUP6 SUB SLT ISZERO PUSH2 0x2700 JUMPI PUSH1 0x0 DUP1 REVERT JUMPDEST PUSH2 0x2709 DUP4 PUSH2 0x21CB JUMP JUMPDEST SWAP2 POP PUSH1 0x20 DUP4 ADD CALLDATALOAD DUP1 ISZERO ISZERO DUP2 EQ PUSH2 0x271E JUMPI PUSH1 0x0 DUP1 REVERT JUMPDEST DUP1 SWAP2 POP POP SWAP3 POP SWAP3 SWAP1 POP JUMP JUMPDEST PUSH1 0x0 DUP1 PUSH1 0x0 DUP1 PUSH1 0x80 DUP6 DUP8 SUB SLT ISZERO PUSH2 0x273F JUMPI PUSH1 0x0 DUP1 REVERT JUMPDEST PUSH2 0x2748 DUP6 PUSH2 0x21CB JUMP JUMPDEST SWAP4 POP PUSH2 0x2756 PUSH1 0x20 DUP7 ADD PUSH2 0x21CB JUMP JUMPDEST SWAP3 POP PUSH1 0x40 DUP6 ADD CALLDATALOAD SWAP2 POP PUSH1 0x60 DUP6 ADD CALLDATALOAD PUSH1 0x1 PUSH1 0x1 PUSH1 0x40 SHL SUB DUP2 GT ISZERO PUSH2 0x2778 JUMPI PUSH1 0x0 DUP1 REVERT JUMPDEST DUP6 ADD PUSH1 0x1F DUP2 ADD DUP8 SGT PUSH2 0x2789 JUMPI PUSH1 0x0 DUP1 REVERT JUMPDEST PUSH2 0x2798 DUP8 DUP3 CALLDATALOAD PUSH1 0x20 DUP5 ADD PUSH2 0x2433 JUMP JUMPDEST SWAP2 POP POP SWAP3 SWAP6 SWAP2 SWAP5 POP SWAP3 POP JUMP JUMPDEST PUSH1 0x0 DUP1 PUSH1 0x40 DUP4 DUP6 SUB SLT ISZERO PUSH2 0x27B7 JUMPI PUSH1 0x0 DUP1 REVERT JUMPDEST DUP3 CALLDATALOAD SWAP2 POP PUSH1 0x20 DUP4 ADD CALLDATALOAD PUSH1 0x1 PUSH1 0x1 PUSH1 0x40 SHL SUB DUP2 GT ISZERO PUSH2 0x27D4 JUMPI PUSH1 0x0 DUP1 REVERT JUMPDEST PUSH2 0x27E0 DUP6 DUP3 DUP7 ADD PUSH2 0x248A JUMP JUMPDEST SWAP2 POP POP SWAP3 POP SWAP3 SWAP1 POP JUMP JUMPDEST PUSH1 0x0 DUP1 PUSH1 0x40 DUP4 DUP6 SUB SLT ISZERO PUSH2 0x27FD JUMPI PUSH1 0x0 DUP1 REVERT JUMPDEST PUSH2 0x2806 DUP4 PUSH2 0x21CB JUMP JUMPDEST SWAP2 POP PUSH2 0x2292 PUSH1 0x20 DUP5 ADD PUSH2 0x21CB JUMP JUMPDEST PUSH1 0x1 DUP2 DUP2 SHR SWAP1 DUP3 AND DUP1 PUSH2 0x2828 JUMPI PUSH1 0x7F DUP3 AND SWAP2 POP JUMPDEST PUSH1 0x20 DUP3 LT DUP2 SUB PUSH2 0x2848 JUMPI PUSH4 0x4E487B71 PUSH1 0xE0 SHL PUSH1 0x0 MSTORE PUSH1 0x22 PUSH1 0x4 MSTORE PUSH1 0x24 PUSH1 0x0 REVERT JUMPDEST POP SWAP2 SWAP1 POP JUMP JUMPDEST PUSH4 0x4E487B71 PUSH1 0xE0 SHL PUSH1 0x0 MSTORE PUSH1 0x11 PUSH1 0x4 MSTORE PUSH1 0x24 PUSH1 0x0 REVERT JUMPDEST DUP1 DUP3 MUL DUP2 ISZERO DUP3 DUP3 DIV DUP5 EQ OR PUSH2 0x526 JUMPI PUSH2 0x526 PUSH2 0x284E JUMP JUMPDEST PUSH1 0x0 DUP3 PUSH2 0x2898 JUMPI PUSH4 0x4E487B71 PUSH1 0xE0 SHL PUSH1 0x0 MSTORE PUSH1 0x12 PUSH1 0x4 MSTORE PUSH1 0x24 PUSH1 0x0 REVERT JUMPDEST POP DIV SWAP1 JUMP JUMPDEST PUSH4 0x4E487B71 PUSH1 0xE0 SHL PUSH1 0x0 MSTORE PUSH1 0x32 PUSH1 0x4 MSTORE PUSH1 0x24 PUSH1 0x0 REVERT JUMPDEST PUSH1 0x0 PUSH1 0x1 DUP3 ADD PUSH2 0x28C5 JUMPI PUSH2 0x28C5 PUSH2 0x284E JUMP JUMPDEST POP PUSH1 0x1 ADD SWAP1 JUMP JUMPDEST PUSH1 0x1F DUP3 GT ISZERO PUSH2 0x78A JUMPI PUSH1 0x0 DUP2 PUSH1 0x0 MSTORE PUSH1 0x20 PUSH1 0x0 KECCAK256 PUSH1 0x1F DUP6 ADD PUSH1 0x5 SHR DUP2 ADD PUSH1 0x20 DUP7 LT ISZERO PUSH2 0x28F5 JUMPI POP DUP1 JUMPDEST PUSH1 0x1F DUP6 ADD PUSH1 0x5 SHR DUP3 ADD SWAP2 POP JUMPDEST DUP2 DUP2 LT ISZERO PUSH2 0x2914 JUMPI DUP3 DUP2 SSTORE PUSH1 0x1 ADD PUSH2 0x2901 JUMP JUMPDEST POP POP POP POP POP POP JUMP JUMPDEST DUP2 MLOAD PUSH1 0x1 PUSH1 0x1 PUSH1 0x40 SHL SUB DUP2 GT ISZERO PUSH2 0x2935 JUMPI PUSH2 0x2935 PUSH2 0x23ED JUMP JUMPDEST PUSH2 0x2949 DUP2 PUSH2 0x2943 DUP5 SLOAD PUSH2 0x2814 JUMP JUMPDEST DUP5 PUSH2 0x28CC JUMP JUMPDEST PUSH1 0x20 DUP1 PUSH1 0x1F DUP4 GT PUSH1 0x1 DUP2 EQ PUSH2 0x297E JUMPI PUSH1 0x0 DUP5 ISZERO PUSH2 0x2966 JUMPI POP DUP6 DUP4 ADD MLOAD JUMPDEST PUSH1 0x0 NOT PUSH1 0x3 DUP7 SWAP1 SHL SHR NOT AND PUSH1 0x1 DUP6 SWAP1 SHL OR DUP6 SSTORE PUSH2 0x2914 JUMP JUMPDEST PUSH1 0x0 DUP6 DUP2 MSTORE PUSH1 0x20 DUP2 KECCAK256 PUSH1 0x1F NOT DUP7 AND SWAP2 JUMPDEST DUP3 DUP2 LT ISZERO PUSH2 0x29AD JUMPI DUP9 DUP7 ADD MLOAD DUP3 SSTORE SWAP5 DUP5 ADD SWAP5 PUSH1 0x1 SWAP1 SWAP2 ADD SWAP1 DUP5 ADD PUSH2 0x298E JUMP JUMPDEST POP DUP6 DUP3 LT ISZERO PUSH2 0x29CB JUMPI DUP8 DUP6 ADD MLOAD PUSH1 0x0 NOT PUSH1 0x3 DUP9 SWAP1 SHL PUSH1 0xF8 AND SHR NOT AND DUP2 SSTORE JUMPDEST POP POP POP POP POP PUSH1 0x1 SWAP1 DUP2 SHL ADD SWAP1 SSTORE POP JUMP JUMPDEST PUSH1 0x40 DUP2 MSTORE PUSH1 0x0 PUSH2 0x29EE PUSH1 0x40 DUP4 ADD DUP6 PUSH2 0x2173 JUMP JUMPDEST DUP3 DUP2 SUB PUSH1 0x20 DUP5 ADD MSTORE PUSH2 0x2A00 DUP2 DUP6 PUSH2 0x2173 JUMP JUMPDEST SWAP6 SWAP5 POP POP POP POP POP JUMP JUMPDEST PUSH1 0x0 DUP4 MLOAD PUSH2 0x2A1B DUP2 DUP5 PUSH1 0x20 DUP9 ADD PUSH2 0x214F JUMP JUMPDEST DUP4 MLOAD SWAP1 DUP4 ADD SWAP1 PUSH2 0x2A2F DUP2 DUP4 PUSH1 0x20 DUP9 ADD PUSH2 0x214F JUMP JUMPDEST ADD SWAP5 SWAP4 POP POP POP POP JUMP JUMPDEST PUSH1 0x1 PUSH1 0x1 PUSH1 0xA0 SHL SUB DUP6 DUP2 AND DUP3 MSTORE DUP5 AND PUSH1 0x20 DUP3 ADD MSTORE PUSH1 0x40 DUP2 ADD DUP4 SWAP1 MSTORE PUSH1 0x80 PUSH1 0x60 DUP3 ADD DUP2 SWAP1 MSTORE PUSH1 0x0 SWAP1 PUSH2 0x2A6B SWAP1 DUP4 ADD DUP5 PUSH2 0x2173 JUMP JUMPDEST SWAP7 SWAP6 POP POP POP POP POP POP JUMP JUMPDEST PUSH1 0x0 PUSH1 0x20 DUP3 DUP5 SUB SLT ISZERO PUSH2 0x2A87 JUMPI PUSH1 0x0 DUP1 REVERT JUMPDEST DUP2 MLOAD PUSH2 0x1C8F DUP2 PUSH2 0x211C JUMP INVALID LOG2 PUSH5 0x6970667358 0x22 SLT KECCAK256 AND 0xB3 0xB9 MSIZE AND 0x5E 0x5C CALLDATACOPY 0x5C DUP12 GT SSTORE 0xE1 0x4A 0xB4 0xCB DELEGATECALL 0x2C RETURNDATASIZE 0x1E DUP9 DUP16 0xDA PUSH25 0x46857650A96F0CC264736F6C63430008160033000000000000 "},"methodIdentifiers":{"getNFTAddress()":"b9618478","nftContract()":"d56d229d"}}}}}